:10000000C01801202178000013410200517800003F
:100010005178000051780000517800000000000085
:1000200000000000000000000000000081750000DA
:1000300051780000000000002D750000CD2E020058
:10004000E17700002DA80100E1770000E1770000D2
:10005000E1770000E1770000E1770000E177000040
:10006000E1770000E1770000E1770000E177000030
:10007000E1770000E1770000E1770000E177000020
:10008000E1770000E1770000E1770000E177000010
:10009000E1770000E1770000E1770000E177000000
:1000A000E1770000E1770000E1770000E1770000F0
:1000B000E1770000E1770000E1770000E1770000E0
:1000C000E1770000E1770000E1770000E1770000D0
:1000D000E1770000E1770000E1770000E1770000C0
:1000E000E1770000E1770000E1770000E1770000B0
:1000F000E1770000E1770000E1770000E1770000A0
:1001000081F0004102E000BF83F0004330B54FEAC8
:1001100041044FEA430594EA050F08BF90EA020F35
:100120001FBF54EA000C55EA020C7FEA645C7FEAC8
:10013000655C00F0E2804FEA5454D4EB5555B8BFEB
:100140006D420CDD2C4480EA020281EA030382EA5C
:10015000000083EA010180EA020281EA0303362DEE
:1001600088BF30BD11F0004F4FEA01314FF4801CC1
:100170004CEA113102D0404261EB410113F0004FD3
:100180004FEA03334CEA133302D0524263EB43038A
:1001900094EA050F00F0A780A4F10104D5F1200E28
:1001A0000DDB02FA0EFC22FA05F2801841F1000183
:1001B00003FA0EF2801843FA05F359410EE0A5F157
:1001C00020050EF1200E012A03FA0EFC28BF4CF088
:1001D000020C43FA05F3C01851EBE37101F000453E
:1001E00007D54FF0000EDCF1000C7EEB00006EEB4B
:1001F0000101B1F5801F1BD3B1F5001F0CD34908D5
:100200005FEA30004FEA3C0C04F101044FEA44522B
:1002100012F5800F80F09A80BCF1004F08BF5FEAB2
:10022000500C50F1000041EB045141EA050130BD92
:100230005FEA4C0C404141EB0101013C28BFB1F5A4
:10024000801FE9D291F0000F04BF01460020B1FAEF
:1002500081F308BF2033A3F10B03B3F120020CDAC2
:100260000C3208DD02F1140CC2F10C0201FA0CF0A0
:1002700021FA02F10CE002F11402D8BFC2F1200C05
:1002800001FA02F120FA0CFCDCBF41EA0C019040BB
:10029000E41AA2BF01EB0451294330BD6FEA040404
:1002A0001F3C1CDA0C340EDC04F11404C4F12002EF
:1002B00020FA04F001FA02F340EA030021FA04F301
:1002C00045EA030130BDC4F10C04C4F1200220FA58
:1002D00002F001FA04F340EA0300294630BD21FA96
:1002E00004F0294630BD94F0000F83F4801306BF5C
:1002F00081F480110134013D4EE77FEA645C18BF50
:100300007FEA655C29D094EA050F08BF90EA020FE6
:1003100005D054EA000C04BF1946104630BD91EADE
:10032000030F1EBF0021002030BD5FEA545C05D1E1
:100330004000494128BF41F0004130BD14F5800420
:100340003CBF01F5801130BD01F0004545F0FE4194
:1003500041F470014FF0000030BD7FEA645C1ABFC9
:10036000194610467FEA655C1CBF0B46024650EA00
:10037000013406BF52EA033591EA030F41F400212C
:1003800030BD00BF90F0000F04BF0021704730B5B2
:100390004FF4806404F132044FF000054FF0000187
:1003A00050E700BF90F0000F04BF0021704730B548
:1003B0004FF4806404F1320410F0004548BF40421D
:1003C0004FF000013EE700BF42004FEAE2014FEA72
:1003D00031014FEA02701FBF12F07F4393F07F4F4D
:1003E00081F06051704732F07F4208BF704793F050
:1003F0007F4F04BF41F40021704730B54FF4607463
:1004000001F0004521F000411CE700BF50EA010265
:1004100008BF704730B54FF000050AE050EA01020E
:1004200008BF704730B511F0004502D5404261EB7E
:1004300041014FF4806404F132045FEA915C3FF4BF
:10044000D8AE4FF003025FEADC0C18BF03325FEA5C
:10045000DC0C18BF033202EBDC02C2F1200300FA0D
:1004600003FC20FA02F001FA03FE40EA0E0021FA32
:1004700002F11444BDE600BF70B54FF0FF0C4CF420
:10048000E06C1CEA11541DBF1CEA135594EA0C0FD2
:1004900095EA0C0F00F0DEF82C4481EA030621EA0D
:1004A0004C5123EA4C5350EA013518BF52EA033548
:1004B00041F4801143F4801338D0A0FB02CE4FF0FA
:1004C0000005E1FB02E506F00042E0FB03E54FF02A
:1004D0000006E1FB03569CF0000F18BF4EF0010E22
:1004E000A4F1FF04B6F5007F64F5407404D25FEA1E
:1004F0004E0E6D4146EB060642EAC62141EA5551D1
:100500004FEAC52040EA5E504FEACE2EB4F1FD0C12
:1005100088BFBCF5E06F1ED8BEF1004F08BF5FEA90
:10052000500E50F1000041EB045170BD06F0004642
:1005300046EA010140EA020081EA0301B4EB5C04EF
:10054000C2BFD4EB0C0541EA045170BD41F48011E7
:100550004FF0000E013C00F3AB8014F1360FDEBF0C
:10056000002001F0004170BDC4F10004203C35DAE8
:100570000C341BDC04F11404C4F1200500FA05F36B
:1005800020FA04F001FA05F240EA020001F000420C
:1005900021F0004110EBD37021FA04F642EB060182
:1005A0005EEA430E08BF20EAD37070BDC4F10C04AC
:1005B000C4F1200500FA04F320FA05F001FA04F270
:1005C00040EA020001F0004110EBD37041F100015C
:1005D0005EEA430E08BF20EAD37070BDC4F1200567
:1005E00000FA05F24EEA020E20FA04F301FA05F2CF
:1005F00043EA020321FA04F001F0004121FA04F277
:1006000020EA020000EBD3705EEA430E08BF20EA46
:10061000D37070BD94F0000F0FD101F00046400080
:1006200041EB010111F4801F08BF013CF7D041EA02
:10063000060195F0000F18BF704703F00046520006
:1006400043EB030313F4801F08BF013DF7D043EAD7
:100650000603704794EA0C0F0CEA135518BF95EA8D
:100660000C0F0CD050EA410618BF52EA4306D1D114
:1006700081EA030101F000414FF0000070BD50EA33
:10068000410606BF1046194652EA430619D094EABD
:100690000C0F02D150EA013613D195EA0C0F05D1A7
:1006A00052EA03361CBF104619460AD181EA0301FB
:1006B00001F0004141F0FE4141F470014FF00000B3
:1006C00070BD41F0FE4141F4780170BD70B54FF04E
:1006D000FF0C4CF4E06C1CEA11541DBF1CEA1355CE
:1006E00094EA0C0F95EA0C0F00F0A7F8A4EB0504B0
:1006F00081EA030E52EA03354FEA013100F08880A7
:100700004FEA03334FF0805545EA131343EA12636F
:100710004FEA022245EA111545EA10654FEA002624
:100720000EF000419D4208BF964244F1FD0404F5DD
:10073000407402D25B084FEA3202B61A65EB030539
:100740005B084FEA32024FF480104FF4002CB6EBF6
:10075000020E75EB030E22BFB61A754640EA0C0076
:100760005B084FEA3202B6EB020E75EB030E22BFB6
:10077000B61A754640EA5C005B084FEA3202B6EBF7
:10078000020E75EB030E22BFB61A754640EA9C00B6
:100790005B084FEA3202B6EB020E75EB030E22BF86
:1007A000B61A754640EADC0055EA060E18D04FEA44
:1007B000051545EA16754FEA06164FEAC30343EAE4
:1007C00052734FEAC2025FEA1C1CC0D111F4801FB1
:1007D0000BD141EA00014FF000004FF0004CB6E7AA
:1007E00011F4801F04BF01430020B4F1FD0C88BF49
:1007F000BCF5E06F3FF6AFAEB5EB030C04BFB6EB54
:10080000020C5FEA500C50F1000041EB045170BD46
:100810000EF0004E4EEA113114EB5C04C2BFD4EB73
:100820000C0541EA045170BD41F480114FF0000EF7
:10083000013C90E645EA060E8DE60CEA135594EA73
:100840000C0F08BF95EA0C0F3FF43BAF94EA0C0F76
:100850000AD150EA01347FF434AF95EA0C0F7FF4EB
:1008600025AF104619462CE795EA0C0F06D152EA3F
:1008700003353FF4FDAE1046194622E750EA410623
:1008800018BF52EA43067FF4C5AE50EA41047FF434
:100890000DAF52EA43057FF4EBAE12E74FEA410297
:1008A00012F5001215D211D56FF47873B3EB6252C2
:1008B00012D94FEAC12343F0004343EA505311F0E9
:1008C000004F23FA02F018BF404270474FF000007B
:1008D000704750EA013005D111F0004008BF6FF0B9
:1008E000004070474FF00000704700BF4A0011D22F
:1008F00012F5001211D20DD56FF47873B3EB62527A
:100900000ED44FEAC12343F0004343EA505323FA85
:1009100002F070474FF00000704750EA013002D1FA
:100920004FF0FF3070474FF0000070474FEA410230
:10093000B2F1E04324BFB3F5001CDCF1FE5C0DD93D
:1009400001F0004C4FEAC0024CEA5070B2F1004F87
:1009500040EB830008BF20F00100704711F0804F8A
:1009600021D113F13872BCBF01F00040704741F44F
:1009700080114FEA5252C2F11802C2F1200C10FA53
:100980000CF320FA02F018BF40F001004FEAC12337
:100990004FEAD32303FA0CFC40EA0C0023FA02F3DB
:1009A0004FEA4303CCE77FEA625307D150EA0133B1
:1009B0001EBF4FF0FE4040F44000704701F0004081
:1009C00040F0FE4040F40000704700BF80F000405F
:1009D00002E000BF81F0004142001FBF5FEA410317
:1009E00092EA030F7FEA226C7FEA236C6AD04FEA17
:1009F0001262D2EB1363C1BFD2184140484041405C
:100A0000B8BF5B42192B88BF704710F0004F40F40D
:100A1000000020F07F4018BF404211F0004F41F429
:100A2000000121F07F4118BF494292EA030F3FD0F5
:100A3000A2F1010241FA03FC10EB0C00C3F1200308
:100A400001FA03F100F0004302D5494260EB400097
:100A5000B0F5000F13D3B0F1807F06D340084FEA02
:100A6000310102F10102FE2A51D2B1F1004F40EBF7
:100A7000C25008BF20F0010040EA0300704749005F
:100A800040EB0000013A28BFB0F5000FEDD2B0FAFC
:100A900080FCACF1080CB2EB0C0200FA0CF0AABF1F
:100AA00000EBC25052421843BCBFD04018437047BD
:100AB00092F0000F81F4000106BF80F400000132C3
:100AC000013BB5E74FEA41037FEA226C18BF7FEA9A
:100AD000236C21D092EA030F04D092F0000F08BFDC
:100AE0000846704790EA010F1CBF0020704712F0C3
:100AF0007F4F04D1400028BF40F00040704712F102
:100B000000723CBF00F50000704700F0004343F066
:100B1000FE4040F4000070477FEA226216BF08469C
:100B20007FEA23630146420206BF5FEA412390EA5F
:100B3000010F40F4800070474FF0000304E000BF55
:100B400010F0004348BF40425FEA000C08BF704706
:100B500043F0964301464FF000001CE050EA0102CA
:100B600008BF70474FF000030AE000BF50EA0102DF
:100B700008BF704711F0004302D5404261EB4101CC
:100B80005FEA010C02BF84460146002043F0B643F1
:100B900008BFA3F18053A3F50003BCFA8CF2083A16
:100BA000A3EBC25310DB01FA02FC634400FA02FC1F
:100BB000C2F12002BCF1004F20FA02F243EB020026
:100BC00008BF20F00100704702F1200201FA02FC88
:100BD000C2F1200250EA4C0021FA02F243EB02007B
:100BE00008BF20EADC7070474FF0FF0C1CEAD052BF
:100BF0001EBF1CEAD15392EA0C0F93EA0C0F6FD080
:100C00001A4480EA010C400218BF5FEA41211ED05D
:100C10004FF0006343EA501043EA5111A0FB013149
:100C20000CF00040B1F5000F3EBF490041EAD3711E
:100C30005B0040EA010062F17F02FD2A1DD8B3F19A
:100C4000004F40EBC25008BF20F00100704790F009
:100C5000000F0CF0004C08BF49024CEA502040EA5B
:100C600051207F3AC2BFD2F1FF0340EAC250704721
:100C700040F400004FF00003013A5DDC12F1190F5F
:100C8000DCBF00F000407047C2F10002410021FAD1
:100C900002F1C2F1200200FA02FC5FEA310040F1E9
:100CA000000053EA4C0308BF20EADC70704792F062
:100CB000000F00F0004C02BF400010F4000F013A9A
:100CC000F9D040EA0C0093F0000F01F0004C02BF95
:100CD000490011F4000F013BF9D041EA0C018FE704
:100CE0000CEAD15392EA0C0F18BF93EA0C0F0AD00A
:100CF00030F0004C18BF31F0004CD8D180EA010030
:100D000000F00040704790F0000F17BF90F0004FC8
:100D1000084691F0000F91F0004F14D092EA0C0FAA
:100D200001D142020FD193EA0C0F03D14B0218BF3D
:100D3000084608D180EA010000F0004040F0FE4083
:100D400040F40000704740F0FE4040F4400070471F
:100D50004FF0FF0C1CEAD0521EBF1CEAD15392EA9E
:100D60000C0F93EA0C0F69D0A2EB030280EA010C8E
:100D700049024FEA402037D04FF0805343EA111127
:100D800043EA10130CF000408B4238BF5B0042F185
:100D90007D024FF4000C8B4224BF5B1A40EA0C002A
:100DA000B3EB510F24BFA3EB510340EA5C00B3EB5C
:100DB000910F24BFA3EB910340EA9C00B3EBD10F4A
:100DC00024BFA3EBD10340EADC001B0118BF5FEA9C
:100DD0001C1CE0D1FD2A3FF650AF8B4240EBC250C5
:100DE00008BF20F0010070470CF0004C4CEA502086
:100DF0007F32C2BFD2F1FF0340EAC250704740F4D5
:100E000000004FF00003013A37E792F0000F00F0C6
:100E1000004C02BF400010F4000F013AF9D040EA44
:100E20000C0093F0000F01F0004C02BF490011F4D8
:100E3000000F013BF9D041EA0C0195E70CEAD153D0
:100E400092EA0C0F08D142027FF47DAF93EA0C0FB7
:100E50007FF470AF084676E793EA0C0F04D14B029B
:100E60003FF44CAF08466EE730F0004C18BF31F04D
:100E7000004CCAD130F000427FF45CAF31F0004347
:100E80007FF43CAF5FE700BF53B94AB9002908BF00
:100E900000281CBF4FF0FF314FF0FF3000F074B955
:100EA000ADF1080C6DE904CE00F006F8DDF804E0C1
:100EB000DDE9022304B070472DE9F047089E0D4696
:100EC00004468846002B4DD18A42944668D9B2FA2E
:100ED00082F252B101FA02F3C2F1200120FA01F1CB
:100EE0000CFA02FC41EA030894404FEA1C45210C2D
:100EF000B8FBF5FE1FFA8CF705FB1E8341EA03439E
:100F00000EFB07F199420BD91CEB03030EF1FF30E6
:100F100080F01E81994240F21B81AEF1020E6344C3
:100F20005B1AA4B2B3FBF5F005FB103344EA0344AB
:100F300000FB07F7A7420AD91CEB040400F1FF33BA
:100F400080F00881A74240F2058164440238E41B26
:100F500040EA0E4000211EB1D4400023C6E9004300
:100F6000BDE8F0878B4208D9002E00F0EE8000210A
:100F7000C6E900050846BDE8F087B3FA83F1002909
:100F80004AD1AB4202D3824200F2F980841A65EB67
:100F9000030301209846002EE2D0C6E90048DFE7AF
:100FA00002B9FFDEB2FA82F2002A40F09180A1EB92
:100FB0000C054FEA1C471FFA8CFE0121B5FBF7F325
:100FC00007FB1350250C45EA00450EFB03F0A84231
:100FD00008D91CEB050503F1FF3802D2A84200F244
:100FE000CB8043462D1AA4B2B5FBF7F007FB105592
:100FF00044EA05440EFB00FEA64508D91CEB040498
:1010000000F1FF3502D2A64500F2BB802846A4EBD2
:101010000E0440EA03409EE7C1F120078B4022FA0C
:1010200007FC4CEA030C20FA07F405FA01F31C4311
:10103000FD404FEA1C4900FA01F3B5FBF9F8200C1A
:101040001FFA8CFE09FB185540EA054508FB0EF017
:10105000A84202FA01F20BD91CEB050508F1FF3A90
:1010600080F08880A84240F28580A8F1020865449B
:101070002D1AA4B2B5FBF9F009FB105544EA054559
:1010800000FB0EFEAE4508D91CEB050500F1FF3450
:101090006CD2AE456AD90238654440EA0840A0FBEC
:1010A0000294A5EB0E05A542C846A64656D353D0DA
:1010B0005EB1B3EB080265EB0E0505FA07F722FAFD
:1010C00001F3CD401F43C6E900750021BDE8F0875C
:1010D000C2F1200320FA03F10CFA02FC25FA03F313
:1010E00095400D434FEA1C471FFA8CFEB3FBF7F106
:1010F00007FB11302B0C43EA004301FB0EF0984232
:1011000004FA02F408D91CEB030301F1FF382FD2D3
:1011100098422DD9023963441B1AADB2B3FBF7F0E4
:1011200007FB103345EA034500FB0EF3AB4208D939
:101130001CEB050500F1FF3816D2AB4214D902387A
:101140006544ED1A40EA014138E73146304607E789
:101150008646E5E61846FAE64B45A9D2B9EB020801
:1011600064EB0C0E0138A3E74046EAE7204694E71B
:101170004146D1E7D0467BE7023B654432E708466B
:1011800009E76444023842E7704700BF00000000EE
:101190002DE9F04794B06D460024042000F0CCF80F
:1011A0000134142C45F8040BF7D117A7D7E90067D1
:1011B000DFF85C904FF0000AE84613255446D8F853
:1011C000041048F8041B2046FFF706FC013D0446C6
:1011D000F5D1042000F0B0F821461390FFF7FCFB96
:1011E0004946FFF7B5FDFFF7EFF832463B46FFF7FC
:1011F00043F9FFF753FB074B18604FF47A701FF069
:10120000FCFC01F09BFBD7E73333333333E352402D
:101210000000A04120020020F0B5002089B009F0B4
:1012200027F9064630B10146274809B0BDE8F0402D
:1012300020F0A2BB254D264820F09EFB03F058F875
:1012400021F0BBFC0FCD03AC0FC42B6823602149F8
:1012500000963346042203A809F08CFC014618B31B
:101260001D4820F089FB1D481D4C09F0FDFF1D485D
:101270000AF01AFC1C4820F07FFB2368C3B110A7BA
:10128000D7E90067194D41F288301FF0B6FC012301
:101290002B6042F21070042323601FF0AEFC304636
:1012A000394603F03DF8EEE7114820F065FBDAE738
:1012B0004FF47A701FF0A1FCDFE700BFAFF30080AE
:1012C0005C8FC2F5281C434054920200A0780200B3
:1012D00074920200987902008B920200240200208E
:1012E0004CAD0020F8010020D392020058AD002040
:1012F000B19202000000000037B5054601A820F0B9
:101300006AF8019B1A0444BF5B42019304460198AA
:10131000FFF716FCFFF758F805A3D3E90023FFF702
:10132000ABF8FFF703FB2860204603B030BD00BFD9
:101330007B14AE47E17A743FF0B5012387B0834058
:1013400002930C2300260493274F01960A23054697
:10135000ADF8143003978DF8166002F0CBFA234BEA
:101360001A78954204460CD0214A1D70167070B947
:1013700000241D480C22002122F0CBFFB4B91D48E7
:101380002CE00028F4D01A4B1B78002BF1D11A491D
:101390000B7965F304030B71A36820461B6898471B
:1013A0000028E5D1124B01221A70E2E7A36801A9D7
:1013B0005B68204698470028E1D1B7F90000431C3C
:1013C000DDD0FEF7EFFF06A3D3E90023FFF754F8C3
:1013D0000A4B0022FFF750F8FFF7A8FA07B0F0BD5C
:1013E000CDCCCCCCCCCC0C4042ED0020EB08002086
:1013F00075ED0020000080BFA60700200000503FD0
:1014000070B5444DD5F81C31996811F0010188B0D0
:101410001FD103AA40F6034008F05AF804460028FA
:1014200074D1039B9B681B7883B905F1940318461C
:1014300023F003F9BFF35B8F00F0050053E8002FA2
:1014400043E800010029F9D1BFF35B8F03981CF03A
:1014500057F803AA002141F2030008F039F80446C6
:10146000002853D1039B2C4899680822013122F0AF
:1014700025FF03981CF044F8214603AA41F201001D
:1014800008F026F80446002840D1039883685A786B
:1014900085F83420D9789A7842EA0122EA861A79C6
:1014A00085F83520197ADA7942EA01222A875A79B1
:1014B0009B7942EA03236B871CF022F8214603AA9A
:1014C00041F2020008F004F80446F8B9039B1348FF
:1014D00099684022013122F0F1FE95F866300398B8
:1014E00043F0060385F866301CF00AF895F84030A2
:1014F0005A061BD40A4B0B490B48C91AC908890163
:1015000041F0010120F0CEFE6FF01204204608B039
:1015100070BD00BF000000203C00002044000020FF
:1015200014770200CC77020075C40200214603AA9A
:1015300042F2030007F0CCFF04460028E6D1039BEB
:10154000B54899680822013122F0B8FE03981BF0D3
:10155000D7FF214603AA42F2020007F0B9FF044672
:101560000028D3D1039B9B68B3F80120A5F8C420C1
:1015700091B221B1DA78A948114625F0CCFC039844
:101580001BF0BEFF95F8406016F0200600F01E81AB
:1015900095F860301B0712D503AA002142F21C0007
:1015A00007F096FF04460028B0D103988368D3F86B
:1015B0000120D3F80530C5E928231BF0A1FF95F8D9
:1015C00098309E0624D502A90DF1060008F050F9C6
:1015D000044600289AD1042142F2240007F018FEA4
:1015E0000646002800F0F9800421083024F0BAFEF5
:1015F000BDF806300380BDF80830438022463146EE
:1016000042F2240007F064FF044600287FF47EAF16
:1016100095F898305C062CD5022142F22E0007F096
:10162000F7FD0446002800F0D8800221083024F09D
:1016300099FE6FF07B030370032343702146002261
:1016400042F22E0007F044FF044600287FF45EAF0C
:10165000014603AA42F22A0007F03AFF0446002896
:101660007FF454AF039883685B7885F8E0301BF013
:1016700047FF082142F2010007F0CAFD0446002896
:1016800000F0AB800821084424F06CFE95F8981017
:1016900011F0400F024640F2022308BF03238807DF
:1016A0004CBF43F02C0043F00C008B0695F89930AA
:1016B00048BF40F0400013F0090F95F8663018BF9E
:1016C00040F4006003F00603CE0748BF40F010006E
:1016D000062B08BF40F4C070002122F0EDFF214628
:1016E000002242F2010007F0F3FE044600287FF4D6
:1016F0000DAF95F8403098061ED4B5F8C410D9B98E
:1017000003AA41F2050007F0E3FE044600287FF437
:10171000FDAEB5F8C43063B9039B9B685A789978DD
:1017200042EA0122A5F8C4209A883C48114625F0D7
:10173000F2FB03981BF0E4FE082140F6014007F09D
:1017400067FD0446002848D00821084424F00AFE1A
:1017500095F89830D907024654D52DA1D1E900015A
:1017600022F0AAFF2146002240F6014007F0B0FE19
:10177000044600287FF4CAAE014602AA4FF6014093
:1017800007F0A6FE264E274BF61AF608B6010028EB
:1017900054D0254846F0020120F084FD0AF0ACF94F
:1017A000044600287FF4B2AE014630221F4822F0E2
:1017B000B0FD1F4BC5F83431EB79002B40F0AB8006
:1017C0001C4846F0030120F06DFD9FE6022140F623
:1017D0006D4007F01DFD044610B96FF0360495E624
:1017E0000221083024F0BEFD01230370467021461B
:1017F000324640F66D4007F06BFE044600283FF489
:10180000C7AE83E60C484FF00051A9E7AFF3008064
:10181000908800020080002098000020C80000206E
:10182000CC7702001477020099C402003001002036
:10183000259800006DC5020010880002029B3948FF
:101840009C68B4F80120032A96BF3749374951F8FC
:10185000221046F0030320F046FDB4F80110B4F85E
:101860000320022946F003032ED1032A2CD8304945
:1018700051F822102F4820F036FD62792E48032AB5
:1018800096BF2E49294951F82210CDE90312A279B9
:101890000592B4F807200692D4F80920079246F082
:1018A0000303052203A920F053FD02981BF028FE34
:1018B00002AA00214FF6024007F00AFE044628B1B2
:1018C0001F4846F0020167E71849D3E7029B1D480D
:1018D00099680222013122F0F1FC02981BF010FEFF
:1018E00095F885305B077FF559AF02AA21464FF680
:1018F000034007F0EDFD18B1134846F002014BE735
:10190000029B124899680122114422F0D7FC0298E8
:101910001BF0F6FD42E704210D4822F09DFE08F081
:101920002FFDF3E5BDC40200107F020067BE020078
:10193000D07E0200D6C40200EEC40200487F02003E
:101940001BC502008500002044C502008400002061
:1019500094000020000000002DE9F041D0E90B3593
:10196000866A5C193034A6428846174618D81C4D42
:10197000A3FB050118A3D3E90023FFF785FAA41BF5
:1019800020F07F40C8F8000013A3D3E90023A4FB94
:101990000501FFF779FA20F07F403860BDE8F0815B
:1019A0000F4C0DA3D3E90023A6FB0401FFF76CFA4B
:1019B00005F1300120F07F40C8F8000006A3D3E90C
:1019C0000023A1FB0401FFF75FFA20F07F4038609D
:1019D000BDE8F081AFF300808D49FD1A07000000DB
:1019E00000CA9A3B000000002DE9F04F8FB000289C
:1019F00000F04B81AA4C94F84E6016F0010636D1E7
:101A000094F82D2094F8393094F8290004EB8202E0
:101A100004EB8303FF2100F00300D2F83080D3F8F9
:101A20003C9084F82A1018F013FB94F84E004707F6
:101A300000F11781B8F1000F11D09948414613F019
:101A40001FFA98F800305D0605D506210EF0D8FD86
:101A5000002800F0DF819248494613F011FA98F807
:101A6000003013F00E0F40F0D380636A23B10C26D0
:101A700030460FB0BDE8F08F12F06AFB82460028B6
:101A800000F0D78112F070FB8346002800F0D68169
:101A900013F052FF0546002800F0CD81806F4FF60D
:101AA000FF73AB8505F11C03002800F0BE8105F132
:101AB0006C0205F168010B930EF0AEFDB5F86420E1
:101AC00095F84010C5F83CA122F4EF6222F007021D
:101AD00042F4887242F00102A5F8642095F83D2096
:101AE00002F03F0262F07F0285F83D2095F8322136
:101AF00022F0030285F8322195F87E2022F01F02A1
:101B000085F87E20674A2A66674AC5F8282100279B
:101B10004FF01B1267F30001EA65062285F84010BA
:101B2000C5E9137785F83F706F866F636F65A5F819
:101B3000C870A5F8CC70C5F80C71A5F81071A5F89F
:101B40002471C5F82C71A5F8307185F83B71AF6729
:101B5000A5F87C70A5F85C71A5F8C42095F85E2105
:101B6000A5F87C7122F0070285F85E21B5F8DC202B
:101B7000C5F8E47002F0FC02A5F8DC2095F87E219F
:101B8000A5F8E87067F3041285F87E2195F8A62180
:101B900085F8EA7067F3C30285F8A621A5F8A47159
:101BA000A5F8B07114F002FAA5F8D60014F004FA02
:101BB000D5F8B4113D4AA5F8D8000A40C5F8B421BB
:101BC00014F000FA95F8B82160F3020285F8B82104
:101BD00014F0FEF90B9B6362C4E911AB95F8B831C0
:101BE000C5F8BC7160F3C50385F8B83195F82030AD
:101BF000ED6167F30003C5E97277C5E97077C5E960
:101C0000057785F8203019F047FA002840F0048164
:101C100094F828300121C3F342030DF133008DF80D
:101C200033300EF073FE002800F0998098F8002001
:101C300002F00F02022A3BD0012A00F0F18099F84D
:101C400001301033DB00002A00F0D980062A00F0B2
:101C5000FA804FF4DA734FF41B71013803FB001163
:101C600032E0C0F3C000324604F14F0118F05CFBD3
:101C7000FF2884F82A003FF4DDAE304618F002FA5F
:101C8000B8F1000F7FF4D9AEE9E6054B93F84E307A
:101C9000DB077FF5ECAE0FB0BDE8F04F12F0BCBE35
:101CA000A8E10020480148017F4101000000FFF643
:101CB00098F801301033DB0000FB03F3411E03F5FD
:101CC000AA73642000FB013194F820306648E46177
:101CD000002565F3000384F8203031232360A1FB45
:101CE00000015FA3D3E90023C4E90555C4E9015508
:101CF000FFF7CAF8B4F84C70E0600FF04BFF814674
:101D000047B998F8005005F00F05A5F10105B5FA9F
:101D100085F56D0994F8280065F3000010F00105C1
:101D200084F8280022D0E368504ADFF84481049305
:101D3000002002250DAF019305920321CDE9020099
:101D400006944B4600900897CDF81C802A460D95C6
:101D50000FF054FE394612F0B1FA00283BD0636A06
:101D6000002B3FF484AE12F015FE80E6E368414A92
:101D70004148049303F24713A7FB00010694029520
:101D80001360912303FB0711394B0793374B0593DE
:101D90004FF6FF7309924FF0020803930DAF30A383
:101DA000D3E90023CDF834800897FFF76DF84B4650
:101DB000CDE900504246284603210FF0C9FD3946BF
:101DC00012F07CFA0028CAD194F84E3043F0010397
:101DD00084F84E304CE6294A05924AF2D8320092F5
:101DE000CDE90300CDE90100CDF81C8008970694E9
:101DF0004B46012203210D950FF000FEDFE798F816
:101E00000110103103EBC103CA0003F54D7102F557
:101E10009A7322E712262BE612F0BCFD032627E672
:101E20004FF4F2734FF47F7117E705F17000A86764
:101E30003DE607261CE6584612F09CF9504612F083
:101E40008DF9072614E698F80120103203EBC2033F
:101E5000D20003F54D7102F59A73FEE6AFF30080F0
:101E60008D49FD1A0700000000CA9A3B7547010022
:101E70000D34010000E20020002AE78459460100E9
:101E80002DE9F04FC24D2B688BB004460F469046AB
:101E9000002B00F01682638EE68E1E4494F81231F9
:101EA0003E4413F00703B6B240F08E81B4F8EC90D4
:101EB000A6EB09021FFA82FB120400F1EB8194F9F0
:101EC0003D20002AC0F22B8194F8E83084F8E930F4
:101ED00094F87C2194F87D3194F8101184F8111154
:101EE000934206D094F87E3103F00703052B00F0EF
:101EF0003E822B68A34204BF00232B60D4F80C5110
:101F0000002D00F030812868002800F02C81E28D3F
:101F1000B4F814314168C4F80C119342B4F8162196
:101F200000F00581B4F81811B4F82CC0EB83152328
:101F30002B710023A5F806C02A8469842B772946D3
:101F400012F01EF912F026F92368002B0ADAD4E900
:101F5000012123F0004391422CBF88449044236028
:101F6000A8EB0308E08DB4F8145110FB0BF080B21D
:101F7000B0FBF5F115FB01F39BB298421FFA81FA11
:101F800080F08D811B1A834940F2E24003FB00F090
:101F9000A0FB01017CA3D3E90023FEF775FF20F02D
:101FA0007F408044618E94F93D30A9EB0609D1440D
:101FB0000F444F446786002B40F2E24707FB05F6CB
:101FC000C0F28181744A7549754840F6F6131FF0D6
:101FD000D3FC404080F311884FF0030002DF00275C
:101FE000B346704AB4F818316F48B4F81611218618
:101FF0003244B2FBF6F2A4F8CA2042F2107202FB9D
:1020000003633044013BB0FBF6F0B3FBF6F6B4F8E3
:102010001431E38583B2881D8342A4F8C660A4F816
:10202000D23002DD5B1A063B9BB2A4F8CE3094F8A6
:1020300012311B0744BF0023A4F8C830022101203D
:102040001AF0A8FF00220221814601200EF034FB85
:1020500056494FF4EA7220460EF0BEFA00F1030A28
:102060005FFA8AFA524B00945246012100200FF089
:102070004FFD30F002030CD0474A4E49484840F625
:1020800025231FF079FC404080F311884FF00300B6
:1020900002DF404EABFB066B3BA3D3E90023304687
:1020A0005946FEF7F1FE089420F07F450694424819
:1020B000E3680493A5FB0001072303FB05113F4BD5
:1020C00007933F4B0593301A4FF6FE736BEB0101FC
:1020D00003934FF47A720023FEF7D6FE4346CDE910
:1020E000015000975246012100200FF087FC30F08C
:1020F00002030CD0284A2F49294840F63F231FF0FD
:102100003BFC404080F311884FF0030002DFB9F13F
:10211000000F40F0238148460BB0BDE8F08F94F8E3
:10212000DD20002A3FF4D0AE84F8DD30D0E6218EE9
:102130009142B4F818117FF4F7AE40F2E24C0CFB78
:1021400003FE42F2107C0CFB01EC0CF1FF3CBCFBEB
:10215000FEFCB4F8C6E01FFA8CFCE6457FF4E4AE62
:1021600001232B71EBE60C4A16490D4840F67A1311
:102170001FF002FC404080F311884FF0030002DFA3
:102180002868C4E6AFF300808D49FD1A07000000FF
:10219000F4E3002000CA9A3B10870200EC820200A0
:1021A00054820200FF5962027FC3C90120E200206D
:1021B0009D510100F08702008D49FD1A4551010033
:1021C00039950100DC870200012011F0E9FF074684
:1021D000002800F0DE8076480EF0C8F90546002899
:1021E00000F0D78011F0FAFF2B793A68D4F80C117F
:1021F000516043F00303C4F80C7100212B710C23D0
:102200006B71E97194F820312B72238ED4F81C2164
:102210001E44684BA3FB0232B4F81431A5F80B300E
:10222000920AB4F81631A5F80920A5F80D3094F8F3
:102230001221B4F81831A5F80F300636D4F8BC31A5
:10224000B6B261F30202A4F8EC6084F81221A5F89A
:102250001160002B00F0918094F85E21900700F14E
:102260008C8094F8B721D10700F18780D4F8C82179
:10227000934204BF1A68C4F8C821D4F8C021002AC8
:102280007ED11A682A601D602B68C4E970550BB9AD
:10229000C4F8CC516FF043000BB0BDE8F08F05FBE4
:1022A000110140F2E243444889B203FB01F1A1FB72
:1022B00000013DA3D3E90023FEF7E6FDA8EB0008EB
:1022C00070E62860E7E5626CE36C02FB1B33E364B5
:1022D00018F034FF054694F8DC00C0F3820018F0D3
:1022E0002FFF054406FB05F5344B94F8202105F536
:1022F000742505F23F25A3FB0535AD0C07FB02F263
:10230000E36C626505FB0AF072080344963A934257
:1023100028BF13466564A6EB050B274DC4E91223BD
:102320000023C4F8E430A0FB05011FA3D3E9002378
:10233000FEF7AAFD1F49A8EB0008D4F81C01A1FB79
:102340000030800A07FB00F017A3D3E90023A0FBAD
:102350000501FEF799FD20F07F4742E60122104675
:1023600002210EF0A9F900200BB0BDE8F08F002388
:1023700084F87D21A4F8CC30BBE5D4F8C0216AB143
:10238000D4F8C4311A682A601D602B68C4F8C4519F
:102390007DE76FF036000BB0BDE8F08F2B60C4E92D
:1023A0006F55C4F8C45172E78D49FD1A070000004B
:1023B00078E400205917B7D100CA9A3B83DE1B434B
:1023C0002DE9F04F93B092460A90126818461D46C8
:1023D0000C46176850F80C8B03222E3105F10809C2
:1023E00021F06CFF05F11C06042204F12A01484685
:1023F00021F064FF052204F13A01304621F05EFF2E
:10240000304605210EF082FA95F8212000F03F00B9
:1024100060F30502012885F821200AD994F83F10BD
:1024200001F01F02053AC1F304000B2A85F82200CF
:1024300002D913B0BDE8F08FDAF8002000209060D8
:10244000A68E6E8294F8362094F8370042EA002275
:10245000AA8298F8DC20638E0C93490961F3840208
:1024600088F8DC2018F06AFE0B9098F8DC00C0F3C6
:10247000820018F065FE0B9BC34AC44940F2E24B50
:10248000B6B20BFB06F6184406FB00F000F574200C
:1024900000F23F20A2FB003094F831200BFB02F247
:1024A000EA637208800C963AA862EA62238FA88ACF
:1024B000B74AADF8363042F2107C3144B1FBF6F148
:1024C000A8F8CA1099B20CFB01613244013900F13D
:1024D000060CB1FBF6F1B2FBF6F2A8F8C61091B209
:1024E0006145A8F8D21002DD091A063989B2A8F8A8
:1024F000CE100422494608F1E00021F0DFFE227FE1
:1025000004F11E09C2F380134946062210A80F9356
:1025100021F0D4FE227F4FF48071A183C2F34013D7
:1025200097F82A009AF812B00E930B9318F092F8CD
:1025300006220146002840F0EA8004F12B0021F039
:10254000E8FEBBF1FF0F00F0EC804946584604F16D
:102550001F0217F00DFBA27F0232A27710A90622FC
:1025600004F1250021F0AAFE98F8DC20698ABDF864
:1025700036306186C2F38202A98AA186E38684F896
:102580003820404613F0E4F921462882E080DAF84A
:1025900004400A9811F0F4FD2B8AE380182323717C
:1025A0000B9B2068002B00F0CC8095F821302A8905
:1025B00043F0400385F821306B8953406B8401233D
:1025C0002377214611F0DCFD11F0E4FD95F8490078
:1025D000012100F0070018F0B7FC83466D484FF06A
:1025E000000931230BF25241C8F80030C8E90199C3
:1025F00063A3D3E90023A1FB0001FEF745FCAB6A0E
:10260000DAF80C40F61A0C9B40F2E24101FB03445D
:1026100020F07F4004F28634A4EB0B034A460221EB
:10262000C8F80C0001200A930EF046F8384612F064
:10263000AFFB821C584B0097D2B2484601210FF0E5
:1026400067FA012800F0898097F82830DB077CD4EE
:10265000404613F07DF9DFF83C91A6FB094648A3FC
:10266000D3E90023054631462046FEF70DFCDAF893
:102670000830CDF81880A3F1310A484B0793484B36
:1026800005934FF4B6730893D8F80C3020F07F47C9
:1026900044484FF0000BCDE903B3A7FB000107232B
:1026A000201A03FB071166EB01014FF47A72002335
:1026B000FEF7EAFB0A9BCDE90170A3FB090130A3F9
:1026C000D3E90023FEF7E0FB033520F07F40EDB2B5
:1026D000009053462A46012158460FF08FF930F0FA
:1026E00002030CD0304A3149314840F26D131FF0DB
:1026F00043F9404080F311884FF0030002DF0122CC
:10270000022110460DF0D8FF13B0BDE8F08F04F1A0
:10271000240104F12B0021F0D1FDBBF1FF0F7FF468
:1027200014AF0622002104F1250021F0F2FD9DF8EE
:102730003C30A37710A9062204F11F0021F0BEFD52
:1027400012E79DF8383023773BE7002301220093FE
:10275000184611460FF0DCF97AE711F0EDFD8742DB
:102760003FF472AF104A1349114840F2FD131FF0B5
:1027700003F9404080F311884FF0030002DF63E764
:102780008D49FD1A0700000083DE1B43FF596202DA
:102790007FC3C90100CA9A3BFD940100CD9401009A
:1027A000399501008D49FD1A38890200F087020031
:1027B00054820200908902002DE9F04F8FB0DFF8BB
:1027C000D8800A900DF137010DF1360011F050FD5F
:1027D000324F9DF836A09DF837B00FF0DBF9D8F8EE
:1027E0000040A4FB07542AA3D3E9002381462146D5
:1027F0002846FEF749FB0A9B0B90D8F80400069385
:10280000274B0593002622A3D3E90023A0FB070151
:10281000CDE90766FEF738FB0B9B20F07F40CDE942
:102820000360204823F07F47A7FB00010723281AF5
:1028300003FB071164EB01014FF47A720023FEF7EA
:1028400023FB0096CDE901704B465A4603215046C2
:102850000FF0D4F830F0020416D1134A13480023C5
:102860001DF050FD68B19DF837209DF836000094AA
:10287000234603210FF04CF96FF03B000FB0BDE889
:10288000F08FD8F80C00F9E76FF04700F6E700BFCB
:102890008D49FD1A07000000B0EB002000CA9A3BEA
:1028A00061E201008D49FD1A447B0B00C0EB002062
:1028B00038B50F4D04460FF06DF9A9680FF06CF9AB
:1028C0006968B0FBF4F404440A4807A3D3E9002381
:1028D000A1FB0001FEF7D8FA20F07F40844294BFAC
:1028E0000020012038BD00BF8D49FD1A07000000FF
:1028F000B0EB002000CA9A3B044A054B0548012969
:102900000CBF114619461FF037B800BF7291020084
:102910007A9102008391020001481FF02DB800BF98
:102920009991020011B103481FF026B802481FF028
:1029300023B800BFB7910200D7910200044B1A6878
:10294000C82A84BF00221A60188803F0C7BA00BFE3
:1029500050AD002070B503788AB004460E4607AD2E
:10296000032B20D8DFE803F002191B1D114928466C
:1029700021F04AFC63780493A3780393E3780293ED
:1029800023790193637900930B4AA37905951E215E
:1029900030461EF0FEFF0AB070BD0849E7E708495F
:1029A000E5E70849E3E7084A0A2128461EF0F1FF57
:1029B000E0E700BFE291020004920200E991020008
:1029C000F0910200FA91020038D2020000B589B0FD
:1029D00022F0E5F86946FFF7BDFF034869461EF09F
:1029E000CBFF09B05DF804FB2792020010B588B058
:1029F0000C4622F0D4F86946FFF7ACFF03482246A4
:102A000069461EF0B9FF08B010BD00BF3E9202003B
:102A100008B5054C237813B9012001F017FC4FF4D9
:102A2000FA701EF0EAF8F5E76308002008B5064CD6
:102A300023783BB9012001F023FC4FF4FA701EF01B
:102A4000DCF8F5E70020F6E76308002008B500F0A1
:102A5000F9FD01F0BFFB044C00F05CFE20704FF468
:102A6000FA701EF0CAF8F7E76308002008B500F016
:102A7000FBF900F055FA00F05FFC1EF02DFC00F0B1
:102A8000E1FC00F0C7FE00F0E3FE00F017FF114B81
:102A9000114E124D124C01221A603368ABB1012B5A
:102AA000FCD11049104822462B4600F02BFD0F4860
:102AB000FEF722FC00F0BEFA0D4B18600D481EF028
:102AC000ADFCFFF73BFF0A2001E04FF4FA701EF067
:102AD00094F8E2E74CAD002058AD002071ED0020E5
:102AE00070ED002060AD002050AD002068AD0020EA
:102AF00064AD002040ED002008B51EF0A5FD0120CA
:102B00001EF07BF801F0CEFA024B1868BDE80840D1
:102B10001EF064BD400200202DE9F04188B001F0B4
:102B2000C1FAFF201EF05AFD8E4E8F4D3368FF2BE9
:102B300031DDFF2333602B68326893422FDA8B4AF2
:102B4000126813442B602B68FF2B2DDDFF232B60B5
:102B500028681EF043FD864B1C68012C28D0042CED
:102B600040D0002CE2D1834F834800949622114636
:102B70004FF6FF731EF003FE3A68804B53F82200B5
:102B800001F0B4F93B68032B98BF5C1C7C4B3C60A4
:102B900000221A60CAE7312BCDDC3223CAE7D2DD2E
:102BA000724A12689B1ACDE7312BD1DC3223CEE773
:102BB000734C2368012B01D0FFF79EFF962200275C
:102BC0001146704800974FF6FF731EF0D8FD4FF680
:102BD000FF736D480097C82282211EF0D0FD0123AB
:102BE0002360A3E7DFF89881D8F80030042B4DD09C
:102BF000FFF782FF3224642300271A4663481F210F
:102C0000CDE9004401F0DCF9614800974FF6FF730D
:102C1000A0225A211EF0B3FD5E4864234FF4827255
:102C20004FF47841CDE9004401F0CAF95A480097C1
:102C30004FF6FF73A0224FF484711EF0A0FD574899
:102C40004FF48C7364224FF4FC61CDE9004401F031
:102C5000B7F9534800974FF6FF734FF4AA725E21FD
:102C60001EF08DFD4F484FF48C734FF482724FF479
:102C70007841CDE9004401F0A3F94B4800974FF6A5
:102C8000FF734FF4AA72FA211EF079FD474B4849B1
:102C90001A6802A8002405F035F94FF6FF73009476
:102CA000BE22782102A81EF06AFD424B1B7873B148
:102CB000414B42491A6806A805F024F900944FF6E2
:102CC000FF73BE224FF4877106A81EF058FD3C4BDF
:102CD0001868FDF779FB002402460B4604A8394921
:102CE00005F010F94FF6FF73374800944FF4B972AE
:102CF0005A211EF044FD354B1B787BB1344B2C49D7
:102D00001A6806A805F0FEF800944FF6FF734FF41A
:102D1000B9724FF4827106A81EF031FD2D4B1B785D
:102D2000EBB900934FF478432B481E2280211EF00C
:102D300026FD0423C8F80030284B1D491A88D53ACF
:102D400092B206A81A8005F0DDF800230093F02265
:102D50004FF6FF73BE2106A81EF011FDE6E6002324
:102D60000093E1E720020020400200201C02002026
:102D70004CAD002054AD0020F5920200440200202A
:102D800048AD0020FD92020005930200F489002066
:102D900010930200AC18002016930200B893002094
:102DA0001A930200308000201F93020064AD0020BF
:102DB00000BF020070ED002050AD002024930200FF
:102DC00068AD0020299302002E93020071ED0020CF
:102DD00060AD0020630800203393020040ED002026
:102DE00070B5064688B00D4614460D481CF0CEFB63
:102DF0000DF1070202920122039200228DF81020A9
:102E00000722CDE905548DF807608DF81C208368F2
:102E100002225C6802A91923A047C0B208B070BDA5
:102E2000DF93020070B5064688B00D4614460D4883
:102E30001CF0ACFB0DF1070202920122039200226A
:102E40008DF810200222CDE905548DF807608DF829
:102E50001C20836802A95C681923A047C0B208B08F
:102E600070BD00BFDF93020030B58DB021481CF06B
:102E70008DFB28B920480DB0BDE830401EF07CBD68
:102E80001E4B019319221A701D4A08921D4A09927D
:102E90001D4A0A920822ADF814200C228DF80C204D
:102EA000684646228DF816201EF029F9F0B9174819
:102EB0001EF062FD6946B6201EF010F94FF4A470B2
:102EC00000211DF0D9F9684600F0C4F980B9104816
:102ED000104D6C461EF050FD0FCC0FC50FCC0FC52A
:102EE00094E80F0085E80F000DB030BD0A48DFE719
:102EF0000A48EDE7DF930200E593020072ED00203F
:102F0000E12D0000252E00001B0C0200049402009D
:102F1000469402006CAD00202194020060940200EF
:102F200070B5374D0FCD8CB06C460FC40FCD0FC4AC
:102F300095E80F0084E80F006946B6201EF0CEF831
:102F4000044690B92F481EF017FD002140F6CD40F1
:102F50001DF092F968461EF0D2F8044360B284B2C4
:102F60002CB129481EF008FD15E02848EBE7284859
:102F70001EF002FD694601201EF08BF884B26CB988
:102F800024481EF0F9FC684600F064F984B23CB1B4
:102F9000214804F0CFFF20460CB070BD1F48E1E788
:102FA0001F4804F0C7FF01216A4608461EF0CFF80B
:102FB00084B20CB11B48ECE71B4804F0BBFF204671
:102FC0006B46012202211EF0AEF884B224B12146E4
:102FD000164804F0AFFFDEE7694601201EF02EF927
:102FE00084B2002CF3D16D460FCD054E0FC60FCD28
:102FF0000FC695E80F0086E80F000D48B2E700BF46
:103000006CAD002081940200E4940200AF940200B1
:103010001095020035950200769502005295020047
:1030200090950200B0950200CB950200E295020057
:10303000F295020030B50C4D0FCD8FB002AC0FC42D
:103040000FCD0FC495E80F0084E80F00002302A9FC
:1030500001A801931EF025F910B104481EF08CFC64
:1030600001980FB030BD00BF6CAD00200A96020081
:10307000F7B50546294600208DF804008DF80500B7
:103080001DF034FFAB6A696804464FF4E17098475D
:103090004CB92B46012201A959201DF04BFF0446D3
:1030A000002800F08780204603B0F0BD73092F6927
:1030B0008DF806302846C6F3430337448DF80730B1
:1030C0001DF0ADFD002872D1002F70D02B460122DB
:1030D0000DF107015B201DF02DFF044678B92B464A
:1030E00001220DF106015C201DF024FF044630B9D9
:1030F000AA8A2B4639465E201DF09FFD0446AB8A06
:103100001E44B6B2AB8DB342D0D8002CCBD1012631
:103110002B46324601A959208DF804601DF00AFFA4
:1031200004460028BFD1AB6A6968254898473246F3
:103130002B460DF105012A201DF050FE9DF805607B
:1031400006F00F068DF8056004460028ABD1012E6D
:1031500032D1294630461DF0C9FE04460028A2D1CE
:103160008DF806008DF8070028461DF058FD04462E
:10317000002898D12B4632460DF106015B201DF048
:1031800081FD044600288ED12B4632460DF1070101
:103190005C201DF077FD0446002884D19DF80630A0
:1031A00003F00F03EB759DF807302B767BE74FF0AC
:1031B000FF34A4E70646A5E76FF0040473E700BFF9
:1031C000F0490200F7B51C46214B1646B3F8032020
:1031D0005B798DF80630074645F2567320460D465A
:1031E000ADF80420ADF800301DF019FD70BB23468A
:1031F000032201A956201DF0F1FD38BB02AB012EC0
:1032000003EB07064FEA152217BF16F8041C06F851
:10321000045C21EA050506F8045C16BF9DF806303B
:103220008DF80620934301A918BF8DF8063016F8D3
:10323000080C2346012239441DF07CFE30B9234698
:1032400001220DF1060158201DF074FE03B0F0BDFF
:103250004879020090B10378162B12D1838A9A1E06
:1032600092B241F2FE718A420ED8DA0744BF03F1EE
:10327000FF338382064B0361FFF7FABE4FF0FF3046
:1032800070476FF0030070476FF00900704700BF90
:103290002796020030B5054685B00C460A481CF05A
:1032A00075F902228DF800508DF80140CDF804D058
:1032B00002928DF80C20836801225C6801A95723D3
:1032C000A047C0B205B030BDDF93020030B505465F
:1032D00089B00C460D481CF059F90DF10702029215
:1032E0000122CDE905420392002107228DF8075003
:1032F0008DF810108DF81C20836802225C6802A9EA
:103300005723A047C0B209B030BD00BFDF93020011
:1033100008B540210920FFF7BDFF20B904481EF081
:103320002BFB012008BD03481EF026FB0020F9E717
:1033300027AE02003EAE020013B5FFF7E9FF002101
:103340004FF400401CF098FF0DF106010020FFF73C
:10335000BDFF0DF10701FF20FFF7B8FF044650B98C
:103360009DF80730152B0CBF044805481EF004FBE0
:10337000204602B010BD0348F8E700BF5CAE020073
:103380007EAE0200A7AE02002DE9F04190B01822F7
:1033900006460D4604A8002120F0BBFF274B002461
:1033A000186802909B882C600DF10601346004209F
:1033B000ADF80C30FFF78AFF0DF10601062002AFD1
:1033C000FFF784FF1E481CF0E1F807220DEB020115
:1033D0000A9101210B9106218DF807208DF83040CC
:1033E0000D970E918DF83C2083680222D3F804805B
:1033F0000AA95723C04704AB013417F8012B43F83F
:10340000042B062CF8D1059B049A1B0203EB024304
:10341000069A13442B60089B079A1B0203EB024396
:10342000099A1344C3F3110333602B680020C3F3DC
:1034300011032B6010B0BDE8F08100BF4E7902008F
:10344000DF9302002DE9F04F234F244BDFF890B0BB
:10345000DFF89080244D3B6000244FF4FA73234E34
:10346000CBF8004087B0C8F80030A946A246D8F88B
:103470000010A14211DC1E4B59F824201A601D4B8C
:1034800002931D4B01931D4B0093174A1C4B174889
:1034900000F036FA07B0BDE8F08F8DF817A00DF1F7
:1034A00017010020FFF712FF9DF81730402BF6D1CF
:1034B00031462846FFF768FF55F8043B3A689342C7
:1034C000DBF8002038BF3B60934288BFCBF8003068
:1034D00001340436CBE700BF4CBD0020FFFF0300E2
:1034E00048BD002040BD00206CB500209CAD0020F0
:1034F00050BD002073ED00203CBD002074ED002085
:1035000044BD00202DE9F04F3F4DDFF80091DFF87A
:1035100000C189B00E463F49CDE9042300233E4A4D
:103520002A6007460B60CE464FF4F57418469A465B
:10353000DCF82810DEF828804CF8041B91423CBFD0
:103540000A464FF0010A814284BF08460123013C2C
:103550004EF8048BECD1BAF1000F00D02A600BB109
:103560002C4B1860DFF8B480DFF8B4A02D4D4FF479
:10357000F5644FF0000B58F8043BCAF800308DF8A2
:103580001FB00DF11F010020FFF7A0FE9DF81F30B6
:10359000402BF6D10DF11F010420FFF797FE0DF12E
:1035A0001F010620FFF792FE09EB04014046FFF7DA
:1035B000EBFE2B683B601C4B1C491A68326091F98A
:1035C0000020501E4242424104980270184890F96F
:1035D000002002F1FF3CDCF1000242EB0C0204345B
:1035E000DDF814C0B4F5FA6F8CF80020C3D1CDE932
:1035F000015110490090064A0968044800F080F91A
:1036000009B0BDE8F08F00BF4CBD00209CAD00208C
:103610006CB5002048BD0020FFFF030010BD002056
:1036200050BD00203CBD002044BD002073ED0020B3
:1036300074ED002040BD002001481EF09DB900BF80
:10364000DBAE020070B528481BF0A0FF044628B985
:10365000BDE87040244925481EF08EB9072140F28C
:1036600011121DF07CFE014630B11F4A204807238D
:10367000BDE870401EF080B9A36807219D694FF432
:10368000A0324FF480232046A847014618B1164ABD
:1036900018480723ECE71849184B4B6080238B60D0
:1036A000A368DB6913B101222046984714481BF038
:1036B0006DFF054640B9124912481EF05DF9124BE4
:1036C0001C60124B1D6070BD0A214FF400721DF08A
:1036D00046FE01460028F2D0094A0D480A231EF092
:1036E0004BF90025EBE700BFECAE0200F3AE0200A1
:1036F00011AF02003AAF020054BD0020393600007D
:1037000070AF020077AF020060BD002064BD0020F2
:1037100092AF0200024B1968024B18681DF032BECE
:1037200064BD002060BD002030B5054685B00C4664
:103730000A481BF02BFF02238DF800508DF8014042
:10374000CDF804D002938DF80C305023012201A94A
:103750001DF03BFEC0B205B030BD00BFDF930200DC
:1037600030B5054689B00C460C481BF00FFF0DF133
:10377000070302930123CDE90543039300220723A6
:103780008DF807508DF810208DF81C305023022240
:1037900002A91DF01AFEC0B209B030BDDF930200CD
:1037A0001FB504460A481BF0F1FE00238DF80130D6
:1037B00002238DF80040CDF804D002938DF80C3030
:1037C0006823012201A91DF000FE04B010BD00BF56
:1037D000DF93020030B5054689B00C460C481BF05B
:1037E000D5FE0DF1070302930123CDE905430393B1
:1037F000002207238DF807508DF810208DF81C301B
:103800006823022202A91DF0E0FDC0B209B030BD5C
:10381000DF93020013B5FF200DF10701FFF7A0FFB2
:10382000044650B99DF80730302B0CBF05480648B8
:103830001EF0A2F8204602B010BD014603481EF05B
:103840009BF8F7E7C6AF0200E8AF020011B0020034
:1038500010B500210120FFF767FF00210446042076
:10386000FFF762FF002104430520FFF75DFFA4B2CC
:10387000044300210620FFF757FFA4B204430F21A1
:103880000920FFF751FFA4B204431A210A20FFF7D1
:103890004BFFA4B20443C1211420FFF745FFA4B29B
:1038A0000443A4B224B903481EF066F8204610BDB4
:1038B0000148F9E748B0020063B0020007B56B2089
:1038C000FFF76EFF1B20FFF76BFF3820FFF768FF45
:1038D00001A97520FFF77EFF019B682B0CBF0348F1
:1038E00003481EF049F803B05DF804FB85B0020000
:1038F0009FB0020001481BF049BE00BFC1B00200EA
:103900002DE9F04FBDB090460022059306460D46C6
:103910001346AA4245DBB3FBF5F39B4C002220463D
:10392000AA4243DB984A0021176852F8043F5068C6
:10393000034490683B441B1848BF033301319B107C
:10394000B1F5F87F42F8043CEED190488E4F8446A2
:10395000002240F2EF1E3B4679681B680132CB1A09
:1039600072454CF8043B07F10407F4D1874A002163
:10397000136852F8047F3B44013103EBD3735B10AF
:10398000B1F5F77F42F8043CF2D1804F00214B1D86
:10399000DFF8FCE18B42B4BF01230623BC460022C2
:1039A00012E056F8221001320B44B2E756F822100A
:1039B000C91A40F8041B0132B2E75CF804ABD146E7
:1039C0003EF802AB09FB1A22013BF6D140F27A4CD9
:1039D000013192FBFCF247F8042B40F2E9129142CC
:1039E000D5D11A4640F2EF1750F8041B01330029D5
:1039F000B8BF4942BB420A44F6D10821052092FBD8
:103A0000F3F2CDE90110009209A9604A2DA81DF03A
:103A1000A1FD099F012F4FF0000338DD2DAA0120E1
:103A20001146D2F804C009680130ACEB01018742AD
:103A300002F104020B44F3D17A1E93FBF2F341F23C
:103A4000707292FBF3F3479A13600123489A0DF1C9
:103A50003C0C13702DA8614600239F421BDC4D4B8C
:103A60004949184600228E46AA421BDB0020054623
:103A70000DF1780AAF421FDC01283FDC059A464B66
:103A800013600023469A13703DB0BDE8F08F47994C
:103A9000414A0A60DAE750F8042B023241F8042B5D
:103AA0000133DAE756F8229041F8049B58F8229047
:103AB00040F8049B0132D7E75CF8046B711DB1F547
:103AC000F77F0FDC721F002A0CDD063E9142B4BF67
:103AD00001210B2131444FF0807801268A4203D125
:103AE00006B901300135C5E75EF82290C145BEBF79
:103AF0004AF82520C84600260132EFE70025216854
:103B000054F8042F666832441144A2681E688A186B
:103B100048BF0332921044F8042C53F8042F59681C
:103B20000A4499683244521848BF03320135921052
:103B3000B5F5F87F43F8042CE1D10023CDE90A3331
:103B4000CDE90C331EAC0E93224652F8041BB1F59E
:103B5000FA7F93DC01339842F7D100210A4D0D4ED4
:103B60008E4600F1FF3AD4F804C054F8042BACEBB5
:103B70000208B8F10A0F0EF1010E56DD4FF07F4733
:103B80001346B94618E000BF28C5002068BD0020D4
:103B900034910200F8CC002019FCFFFF55F82300F7
:103BA000B842C8BF074656F82300C8BF0793484528
:103BB000C4BF9B46814601339C45EFDC55F822305B
:103BC00055F82C00C01A079B9B1A584390FBF8F33A
:103BD00055F82200069355F82B301B1A06981B1A2D
:103BE00009FB03F34FEAE319B9F1000F1DDD0429C6
:103BF0001BDC56F8220056F82C30ABEB02021B1AE5
:103C00005A4356F82B3092FBF8F81B1AA3EB080323
:103C10005F43FF1109D03CAB03EB810C64235F438E
:103C2000013197FBF9F74CF8C87CD6459BDB0AA815
:103C30001DF026FC4A1003294FEA820314DD3CA93B
:103C400001EB820151F8CC3C51F8C82C134403EB32
:103C5000D3735B10DA1EB42A3FF610AF054AD35C6B
:103C6000059A136001230DE73CAA134453F8C83C9E
:103C7000F0E700BFC7B002002DE9F04128481BF073
:103C800085FC054638B9274825491DF075FE4FF0DB
:103C9000FF30BDE8F0810C211DF07FFC044638B1F7
:103CA0000C2321481E4A21461DF066FE20B2F0E793
:103CB0001B481BF06BFC06460028E4D00A211DF0CF
:103CC0006CFC044608B10A23EBE715481BF05EFCC8
:103CD00080460028D7D0062130461DF05EFC044601
:103CE00008B10623DDE70E481BF050FC074600280C
:103CF000C9D0052130461DF050FC044608B105230B
:103D0000CFE70A481DF038FE094B1D60094B1E60C5
:103D1000094BC3F80080094B20461F60B9E700BF7C
:103D2000ECAE02007FB1020096B10200C6B1020003
:103D3000D4D40020CCD40020D0D40020C8D400207B
:103D400008B5064B02460C2118681DF016FC18B188
:103D500003481DF011FE012008BD00BFD4D400208F
:103D6000E1B1020008B5064B02460A2118681DF0B1
:103D700004FC18B103481DF0FFFD012008BD00BF81
:103D8000CCD40020F2B1020008B5064B0246062151
:103D900018681DF0F2FB18B103481DF0EDFD01207D
:103DA00008BD00BFD0D4002006B2020008B5064B03
:103DB0000246052118681DF0E0FB18B103481DF00C
:103DC000DBFD012008BD00BFC8D400201AB20200EC
:103DD0001FB50093069B01930123CDF808D00393F0
:103DE000836802AA1C680023A04720B103481DF085
:103DF000C3FD6FF0040004B010BD00BF2CB2020080
:103E000001481BF0C3BB00BF44B2020070B588B0CC
:103E10000024CDE905448DF80F000794FFF7F0FF6B
:103E2000054620B912481DF0A7FD08B070BD4FF43B
:103E30008073ADF818300F4B20461B6805930126A0
:103E4000FFF77EFF2046FFF7B1FF05A900960DF1B1
:103E50000F0322462846FFF7BBFF014618B106486C
:103E60001DF08AFDE1E73046FFF76AFFDDE700BF9E
:103E70004AB20200BC7A020065B2020070B588B096
:103E80000024CDE905448DF80F000794FFF7B8FF33
:103E9000054620B912481DF06FFD08B070BD4FF403
:103EA0008073ADF818300F4B20461B680593012630
:103EB000FFF746FF0120FFF779FF05A900960DF1F6
:103EC0000F0322462846FFF783FF014618B1064834
:103ED0001DF052FDE1E73046FFF732FFDDE700BF9E
:103EE0004AB20200BC7A020065B202002DE9F04F2E
:103EF0008BB00025CDE9075503900995FFF780FFAA
:103F0000064628B92B481DF037FD0BB0BDE8F08FF1
:103F10004FF48073ADF82030274BDFF8A0901B687A
:103F20000793C82240F2171340F25D1132201DF0B2
:103F30005FFB2846FFF704FF0120FFF737FF4FF034
:103F4000500A002705EB09080AFB07F318F803409D
:103F5000ECB1039B01241B0A8DF81830002206AB3C
:103F6000009407A93046FFF733FF009403AB00220B
:103F700007A930460137FFF72BFFB7F5967FE3D14E
:103F80000135502DDDD10120FFF7DAFEBDE74FF0FE
:103F9000010B0DF117032246CDF800B007A93046FA
:103FA00006948DF81740FFF713FFCDF800B006AB6D
:103FB0002246DDE74AB20200BC7A020070220020ED
:103FC0002DE9F04F8BB00024CDE90744DDF8548093
:103FD00003910746164699460994FFF711FF0546D7
:103FE00028B92E481DF0C8FC0BB0BDE8F08F4FF487
:103FF0008073ADF820302A4B1B680793149B08F19F
:10400000FF31013B4B444A46314430461DF0F0FA43
:104010002046FFF795FE0120FFF7C8FE4FF0320A59
:10402000149BA34236D80120FFF78AFEDCE70AFB87
:1040300006F31BF80320D2B1039B4FF001091B0AC2
:104040008DF81830002206ABCDF8009007A928465D
:10405000FFF7BEFECDF8009003AB002207A928466B
:10406000FFF7B6FE0136B045E1D80134D8E74FF08E
:1040700001090DF11703CDF8009007A92846069213
:104080008DF817200292FFF7A3FE029ACDF8009058
:1040900006ABE3E7002607EB040BE4E74AB20200B5
:1040A000BC7A020008B5FFF7E7FD01201DF086FA93
:1040B00015481DF061FC0120FFF766FE64201DF02D
:1040C0007DFA0120FFF73CFE0120FFF74BFE502058
:1040D0001DF074FA0020FFF745FE50201DF06EFA27
:1040E0000120FFF73FFE4FF4F0701DF067FAFFF775
:1040F00087FE20B90548BDE808401DF03DBC1DF015
:10410000A6FA0348F7E700BF8DB202004AB20200E8
:104110009BB0020070B588B0002403900020FFF728
:104120000FFE0120FFF742FECDE905440794FFF79B
:1041300067FE054620B911481DF01EFC08B070BD91
:104140004FF48073ADF818300D4B1B680593039B3B
:1041500001261B0A8DF8133022460DF1130305A921
:104160000096FFF735FE009603AB224605A92846C8
:10417000FFF72EFE3046FFF7E3FDDFE74AB202000D
:10418000BC7A02002DE9F04104461E46084602F1C1
:1041900014030F311DF02CFA20465F2C0C4C4FF00D
:1041A0002A0328BF5F2003FB0044E71814F8018BA3
:1041B000002508FA05F31B0654BF06983046013562
:1041C000FFF7A8FF082DF4D1A742EFD1BDE8F08199
:1041D000EC08002070B517481BF0D8F9064630B936
:1041E000154814491DF0C8FB4FF0FF3070BD042185
:1041F0001DF0EFFA044638B1042310480D4A214659
:104200001DF0BAFB20B2F1E70A481BF0BFF90546E2
:104210000028E5D003211DF0DCFA044608B1032391
:10422000EBE707481DF0A8FB064B1E60064B204637
:104230001D60DBE770AF02007FB1020096B10200A3
:10424000C6B10200D8D40020DCD4002038B50B4D14
:104250004FF47A742868012204211DF0CAFAFA206A
:1042600022F06FFE2868002204211DF0C2FAFA2015
:1042700022F067FE013CEDD1012038BDD8D40020EA
:1042800010B5094C03460122206803214BB11DF0F3
:10429000B0FA00214FF400501BF0EEFF206800221E
:1042A00003211DF0A6FA10BDDCD400208B1E59425C
:1042B0005941014B197070477CED002008B5034847
:1042C0001DF05AFB024B00221A7008BDA6B2020074
:1042D0007BED00200349044B0448002A08BF19461F
:1042E0001DF04ABBBBB20200C0B20200C8B202005D
:1042F00008B508481BF04AF9014620B9BDE8084056
:1043000005481DF039BB02680448BDE808401DF0AF
:1043100033BB00BFD7B20200DEB20200F5B202002A
:10432000F8B5184B1B7806460F464BB3164D2C7844
:1043300034BB02460B46154803F0FCFD144B00222B
:1043400030463946FCF798F8FCF7D0FA114B124981
:104350005870C0F307229A70FE221A710F4A4A6001
:104360000F4A8A600F4A1C70000CD870C1E9032301
:10437000204605238B8209F0D7FD08B901232B7055
:10438000F8BD00BF7CED00207BED002014B30200DF
:104390000000594076ED0020E0D40020E87A0200C9
:1043A000D5420000BD42000030B50A4C0A4491429B
:1043B00000D130BD11F8013B58400309E35C83EAAA
:1043C0000013DDB2C3F30313E05C80EA0510C0B252
:1043D000EDE700BF29B302000B6801330B60014B0E
:1043E0001B68184774020020014B1860704700BF1B
:1043F0007402002007B50B460021024601910348D4
:1044000001A900F0F9F803B05DF804FBD9430000FE
:1044100030B585B0CDE901010446002501A9054864
:10442000039500F0E9F8DDE902309842B8BF255461
:1044300005B030BD531902002DE9F84FB0F81890BF
:1044400019F00808044693460DD001290CBF49F025
:10445000100949F02009A0F818908BF31188BFF3D8
:104460006F8FBDE8F88F09F00709022907D12046B0
:104470001DF09CFA0028F0D00128238B4ED16769EB
:10448000218B002F15DA256821F00701C4E9008887
:1044900041F0010121830026218B01F0070ACA4562
:1044A00002D0A368002B5AD10DB9002E71D0002381
:1044B00056E001F007035A1F012A1ED821F0070118
:1044C000062B256889B2C4E900880AD13DB1638B07
:1044D0002A46126801339BB2002AFAD1638341F065
:1044E0000201218320461DF061FA06460028D3D040
:1044F000238B43F020032383CDE7042B0CD121F041
:10450000070189B2218320461DF050FA0546002894
:10451000C1D041F0200121830025BCE7032809D147
:10452000226923F00703166843F00603238300255E
:104530002F46B1E7042806D1226923F00703566805
:1045400043F00403F2E7052806D1226923F00703AC
:10455000966843F00503E9E700252E46E8E70123C6
:1045600041F0080121838BF31188BFF36F8FFBB9F2
:1045700085BB16B11F492046B0474FF02003EFF32B
:10458000118B83F31188BFF36F8F238B23F0080304
:104590002383238BDA0625D523F0100323830121FF
:1045A000B4F8189009F0070900297FF45EAF54E7CA
:1045B000A1680029DCD0D1F80090D1F804B03B46C6
:1045C00052462046D847B9F1000FD1D04946D9F814
:1045D0000090F2E729463B46524620462D681DF0E2
:1045E00001FAC5E713F020011EBF23F02003238347
:1045F0000221D5E7111A02002DE9F04F81469BB048
:104600008A4615461C460026287810B9304600F028
:10461000EEBD6B1C2528029306D05146C8470028E2
:10462000C0F2E58501364CE2182200210CA81FF0EB
:1046300070FE6B78252B7CD00022681C9646904635
:1046400094461746014610F8013B2B2B00F0A08042
:1046500000F29780202B00F09E80232B00F09E809C
:104660002FB19DF8380040F004008DF83800BCF1FF
:10467000000F05D09DF8380040F008008DF8380094
:10468000B8F1000F05D09DF8380040F010008DF80B
:104690003800BEF1000F05D09DF8380040F0200032
:1046A0008DF838002AB19DF8382042F040028DF88C
:1046B00038209DF8382002F04400442803D16FF3DD
:1046C00086128DF838209DF838202A2B42F080027F
:1046D0008DF838207ED19DF8392042F001024B1C24
:1046E0008DF839201A782E2A9DF839200CBF012127
:1046F000002161F341028DF8392077D15A782A2AB6
:104700006DD0013300214FF00A0C184610F8012B30
:10471000A2F13007092F40F2AB809DF838201091AC
:10472000C2F3400040EAD17161F341028DF83820B4
:104730005CE0AA1C02928DF83B309DF83930DF070F
:1047400040F1738154F804BBBBF1000F07DA9DF808
:10475000382042F004028DF83820CBF1000B5807C6
:1047600040F16C8154F8048BB8F1000F80F26B813A
:104770009DF839306FF341038DF839304FF0FF3831
:1047800061E12D2B0DD0302B7FF46AAF012259E768
:104790004FF0010C56E74FF0010853E74FF0010EC0
:1047A00050E701274EE70CFB0272303A03461846E9
:1047B00010F8017BA7F1300EBEF1090FF3D9994231
:1047C00090D09DF838100F92D20F62F341018DF80E
:1047D000381087E70B4600224FF00A0CE7E79DF8F8
:1047E000392042F004028DF839200233194611F8BD
:1047F000012B6C2A5CD040D8682A46D06A2A61D046
:104800004C2A67D019460B4613F8012B0293782ADD
:104810008DF83B2000F2DF80572A68D8412A04D067
:10482000A2F14503022B00F2D6809DF83A3002F047
:10483000DF020421A2F1410861F30203D8F1000272
:104840009DF839108DF83A3042EB080262F3C71137
:104850000A068DF83910CBB200F1E58003F078023A
:10486000182A40F0B5806FF3C6038DF839309CE00C
:104870000CFB01213039034647E7742A26D07A2AF7
:10488000C0D19DF8393006220DE05A78682A9DF88B
:10489000392006D1012161F3C6028DF83920991C17
:1048A000B1E71346022262F3C6038DF83930AAE756
:1048B0005A786C2A9DF8392001D10421EBE7134680
:1048C0000322F0E79DF839300522ECE79DF83930F6
:1048D0000722E8E7BDF8383023F4F04323F0020361
:1048E00043F4804343F00203ADF838308BE7A2F184
:1048F0005803202B6FD801A151F823F0AF490000D5
:10490000D7490000D7490000D7490000D749000027
:10491000D7490000D7490000D7490000D749000017
:104920002B480000D7490000AF4900008149000032
:104930002B4800002B4800002B480000D7490000FE
:1049400081490000D7490000D7490000D74900003D
:10495000D7490000E5490000AF490000094A0000BE
:10496000D7490000D7490000094A0000D749000094
:10497000AF490000D7490000D7490000AF49000007
:104980009DF83A30012161F302038DF83A309DF829
:10499000393003F07803402B02BF9DF8381041F006
:1049A00001018DF83810632A05D0002306E09DF838
:1049B0003A300221E7E7003B18BF01239DF8382079
:1049C000C2F340010B4363F341028DF83820B4E693
:1049D00013F0380FE9D09DF8383043F001038DF81B
:1049E0003830E2E79DF83A30032262F302038DF893
:1049F0003A309DF8393003F07803A3F1400CDCF134
:104A0000000343EB0C03D9E79DF83A30032262F32D
:104A100002038DF83A309DF8393013F0780F14BF47
:104A200001230023CAE70123C8E79DF93820002AA3
:104A3000B4BFDDF83CB04FF0FF3B90E699077FF53F
:104A40009DAEDDF840809DF839100023CDE90F338D
:104A50009DF83A3003F00702042A09D18A0707D4E7
:104A60009DF93920002AB4BF4FF00D084FF0060819
:104A700003F00703012BC1F3C30137D1CB1E042B75
:104A800021D8DFE803F003090920200054F8043B93
:104A9000DA17CDE90C3206E0073424F00704F4E815
:104AA0000223CDE90C239DF83870BB0756D0029B3A
:104AB0002A46514648461DF09BFB0028C0F29783CA
:104AC0000644029DA0E554F8043B01294FEAE37235
:104AD000CDE90C3205D19DF830300C9300230D93B5
:104AE000E1E70229DFD1BDF93030D1E7022B23D134
:104AF000CB1E042B13D8DFE803F0030A0A121200BE
:104B000022680C920023201D0D930446CBE7E01D84
:104B100020F00700F0E80223CDE90C23F5E754F874
:104B2000043B0C9301294FF000030D93D3D00229CD
:104B3000B9D1BDF83030D0E7042B09D1E31D23F003
:104B4000070303F10804D3E90023CDE90C23AAE706
:104B5000032B04BF54F8043B0C93A4E79DF83B20BF
:104B6000782AAED8572A00F28C80252A00F0D4800B
:104B7000242AA6D9412A03D0A2F14503022BA0D8AA
:104B8000DDE90C13002BC0F2BE81380700F1BD81B6
:104B900017F0100718BF2027C3F30A55C3F31303F8
:104BA000CDE90813002D40F0B28151EA030014BF93
:104BB00001200020DB0243EA5153C902462A45EA9C
:104BC000010E43EAE57C08BF66225EEA0C0CCDE9E3
:104BD000081300F00682002840F0CE81DDE90801CC
:104BE0004FF0000C41F00041A5F2FE3509916346FB
:104BF0004FF0050E15F1020FC0F2C581BCF1000F98
:104C000001D0CDE90801002DDDE9081000F3D081C5
:104C100009980899C5F1040C1C3500FA05F5ACF1AA
:104C2000200E21FA0CF120FA0EFE294341EA0E0172
:104C300020FA0CF0CDE9081002F0DF01472940F01E
:104C4000D781DD1C02DB984580F2CE81023AB8F1B3
:104C5000000FD2B201DD08F1FF389DF83810880648
:104C600000F1C681B8F1000FD4BF00210121662AEE
:104C7000039140F0BF8118EB030540F1BD81002591
:104C8000BDE1A2F15803202B3FF61BAF01A050F865
:104C900023F000BFA94E0000C34A0000C34A000031
:104CA000C34A0000C34A0000C34A0000C34A0000D0
:104CB000C34A0000C34A0000814B0000C34A000001
:104CC000454D0000494E0000814B0000814B000023
:104CD000814B0000C34A0000494E0000C34A000057
:104CE000C34A0000C34A0000C34A0000DF4E000070
:104CF000A94E0000AD4E0000C34A0000C34A0000A8
:104D00001F4D0000C34A0000A94E0000C34A000026
:104D1000C34A0000A94E0000514610467EE4B8F197
:104D2000000F0C9A09DB4146104603921FF08FFAE0
:104D3000039A0027151862B9C3E6104603921FF0C4
:104D40007FFAF5E70C9B8DF84C3000270DF14D05EF
:104D500013AAAB1A07B101339DF83A00C10640F11E
:104D60003A8202330F9940060B4444BF10995B18F6
:104D7000BBF1000F23DDABEB030B9DF83830590777
:104D8000C3F380081BD4580640F13482002F00F092
:104D90003482514638460392C8470028C0F2278221
:104DA000039A474601364FF030085E445B46002BBD
:104DB000A6EB0B000BF1FF3B00F31182064647B157
:104DC000514638460392C8470028C0F21082039A21
:104DD00001369DF83A30590640F165829DF9393027
:104DE000002BA6EB02030393C0F20A821746387821
:104DF000039BA0F13002092AB84603EB070607F12E
:104E0000010740F229829DF83A200F9F930608D4AB
:104E10003E44002FA6EB070307F1FF3700F3228281
:104E20001E4698F800002E280BD15146C84700288E
:104E3000C0F2DD81002F06F1010600F31A8208F1AD
:104E40000108A6EB08061DE23D072BD417F010075A
:104E500018BF2027DDE90C23002B05DA524263EB53
:104E60004303CDE90C232D270DF1650300930EAA12
:104E7000DDE90C0113AB1DF075F90246B8F1000F26
:104E80000DF16505FFF657AF9DF83810AB1A6FF3BB
:104E9000861198458DF838107FF64DAFA8EB0303C7
:104EA0000F9348E72B27D5E70027DDE70C9800286C
:104EB00000F08D810DF1650300930EAA13AB002164
:104EC0001DF050F9BDF83A3003F0EF0343F4F0431E
:104ED00043F010030246ADF83A300027CEE70C9BB2
:104EE00007293FF6EEADDFE801F00C04060C0808D8
:104EF0000C0C1E70E5E51E80E3E5F217C3E90062C5
:104F0000DFE51E60DDE52D2746E62B2744E640F26F
:104F1000FF7085422DD10B43A2F141021BD1192A0A
:104F200011D849238DF84C304E238DF84D3046234F
:104F30008DF84E309DF838306FF386138DF8383089
:104F40000DF14F0504E769238DF84C306E238DF881
:104F50004D306623ECE7192A99BF4E2341226E2378
:104F6000612294BF8DF84C308DF84C308DF84D2077
:104F7000DEE700201EE6013D49185B41002BFADA0E
:104F8000CDE908132AE6400840EAC1704908B1F1AA
:104F9000333FAC4605F10105F5D20EFB01F5A0FB50
:104FA0000E012944013B0CF102054FF0010C21E6F2
:104FB000023140F10000CDE9081008A8CDE9032333
:104FC0001DF0A1F8049B039ADDE90810013D0133AF
:104FD00049184041002805F1FF35F9DACDE90810FC
:104FE00011E600231D4613E6A8EB0308662234E60B
:104FF00000213CE608F10105102DA8BF1025102165
:10500000079100204FF00061CDE90A01DDE90A10A7
:10501000A5B9089D4919099D40EB0505B5F1805FCB
:105020001BD2CDE90815662A40F09980002B23DCBD
:1050300030218DF84C100DF14D052FE0490841EA63
:10504000C0714008CDE90A100AA8CDE90423013D4A
:105050001DF059F8DDE90423D8E7490841EAC57194
:1050600008A86D08CDE90423CDE908151DF04BF81B
:10507000059B049A0133D6E713AD079900290BDD90
:1050800007A908A8CDE904231DF055F8059B05F8EC
:10509000010B013B049AF0D10F9300239DF83810C7
:1050A000890602D4B8F1000F1DDD2E2105F8011B81
:1050B0009BB1B8F1000F16DD59424145A8BF4146EA
:1050C0009DF83A000F910029A8EB0108D4BF0021F8
:1050D000012161F345108DF83A00B8F1000F02DDAF
:1050E0000799002956DC0399002963D1CDF8408047
:1050F00002F0DF01452921D1002B2946B8BF5B42D0
:1051000001F8022BB4BF2D222B22632B6A7009DD1C
:10511000642093FBF0F202F1300CE91C85F802C028
:1051200000FB12330A200D4693FBF0F200FB123312
:1051300002F1300C303305F802CB4B700F9B002B83
:1051400043DC109B002BD4BF002301239DF83A20A1
:1051500063F3861200238DF83A202B70F8E507A937
:1051600008A8CDE904231CF0E6FFDDE904239DF83F
:1051700038108DF84C00302818BF03F1FF33880633
:1051800002D4B8F1000F12DD2E218DF84D100DF173
:105190004E05A2E707A908A8CDE904231CF0CBFF20
:1051A00008F1FF38DDE9042305F8010B95E70DF15F
:1051B0004D0598E700211091284615F8011D30296A
:1051C000FAD02E2918BF054692E70123BEE74B4DC2
:1051D00007466A1FBDE5010748BF0133C2E55146D6
:1051E00040460392C8470028039ABFF6DFAD1BB0C4
:1051F000BDE8F08F4FF02008D7E54FF03008D4E538
:105200009046039B4746434418F8010B70281ED173
:105210001E46109B03EB0608A8EB0603002B3BDCA5
:105220002B463A46514648461CF0E2FF0028DEDB9A
:10523000304406468344ABEB0603002B7FF741ACBA
:1052400051462020C8470028D1DB0136F3E75146FC
:10525000C8470028D5DACAE75146C8470028BFF634
:10526000C6ADC4E751463020C8470028BFF6D1ADCF
:10527000BDE751463020C847013FD8E55146C847F1
:105280000028B4DB474606EB080318F8010BA0F131
:105290003002092AF2D9BBE751463020C84700281E
:1052A000A5DB0136B8E7D80601D4190707D5514662
:1052B00030200392C847002899DB039A01369DF8F5
:1052C0003A30DB0608D59DF83B0003925146C847AB
:1052D00000288CDB039A01360F9F3744BB1B002B41
:1052E00001DC2B469EE7514630200392C847002838
:1052F000FFF67DAF039A0136F0E700BF3EB3020030
:1053000030B51049104889B0002221F00CFF0F4D34
:105310000F4900220023CDE9062300240E23CDE906
:105320000334CDE901440B4B00944FF440722846FE
:105330001BF05AF80849284621F007FE204609B01C
:1053400030BD00BF5D53000098A40020D0A4002011
:10535000E0FF0020B55600003FB3020001481AF0FC
:10536000ABBF00BFD89F002008B500F067FA09481E
:105370001CF055FF042328220749084821F0E6FBCA
:10538000074B084A1A604FF40040BDE8084000F09F
:105390009DBC00BF04D50020982B01200CD5002017
:1053A000780200205D220200F8B50F4BBFF35B8F3F
:1053B000002553E8007F43E80052002AF9D1BFF3EB
:1053C0005B8F0A4C0A4E361B3611B54200DBF8BD26
:1053D00063685B792BB12368DB6813B139462046DB
:1053E000984701351034F0E7FCD400207C780200A7
:1053F0009C780200064BBFF35B8F53E8002F01320D
:1054000043E800210029F8D1BFF35B8F704700BF4C
:10541000FCD40020044A054B9B1AB1EBD30F34BFD8
:1054200052F8310000207047147702007C780200A7
:10543000094A4368801A10B50011084C1960013000
:10544000012218715A71237813B905481AF034FFF4
:105450000123237010BD00BF7C7802007DED002089
:10546000D89F002070B5114BBFF35B8F53E8005FEE
:105470006A1C43E800210029F8D1BFF35B8F2DB9E6
:105480000B4C0C4E361B3611B54200DB70BD237B36
:1054900043B123685B6903B1984704220021204689
:1054A000FFF7C6FF01351034EEE700BF00D500203E
:1054B0007C7802009C780200164B984237B504466F
:1054C00002D3154B984220D314480022002301A98F
:1054D0001AF024FA0546D8B90122019BBFF35B8F6D
:1054E00053E8001F43E800200028F9D1BFF35B8F89
:1054F000019821461F2204301EF090FE019C7E235D
:1055000084F8233084F824500434204603B030BD9E
:10551000034CFAE73074020084D802000CD5002056
:1055200047B3020048B1054B984205D3A0339842D7
:105530002CBF00200120704700207047982B0120CD
:105540002DE9F04F4D4B1B7885B0044603B960B38D
:105550004FF02003EFF3118683F31188BFF36F8FB1
:1055600047481CF06CFE054686F31188BFF36F8F29
:1055700078B1BFF35B8F434B53E8002F013A43E808
:1055800000210029F8D1BFF35B8F94B128461CF0AD
:105590006FFF24B93C4B1B680BB1FFF705FF384880
:1055A0001CF04BFE041E18BF0124204605B0BDE8C8
:1055B000F08F364B1B78E3B92B7ADB0719D41CF03C
:1055C0006AFF074628461CF031FF014638461CF0AA
:1055D00049FEDFF8BC802F4BDFF8BCB0A3EB08031B
:1055E000DB0803932D4BA3EB080306464FEAD30ACF
:1055F00036B92B4E2B4FBF1B3F114FF000083AE03E
:10560000B6FA86F1C1F11F09494628461CF011FF80
:10561000254B9842014602D3244A90421AD30846A9
:10562000FFF780FF0246A8B9214B994212D06B893F
:105630000399C3F389138B4238BF58F833204FEADC
:105640008A1343F00103ADF8003049463B46584603
:105650001CF062FE012303FA09F126EA0106C7E7FE
:1056600073685B7923B1336829461B6830469847D5
:1056700008F101081036B845F2DB87E77DED002020
:1056800004D50020F8D40020FCD400207EED0020BA
:10569000147702007C78020061B3020034780200C3
:1056A0007C7802009C7802003074020084D80200EA
:1056B00047B3020010B5FFF7D5FE1AF0F7FD0C4B0B
:1056C000186030B10B4B1B68092B02DD0A481AF039
:1056D000F3FD094C0020FFF733FF0028FAD14FF00B
:1056E000FF324FF0FF3320461AF00CFEF2E700BF06
:1056F00028D50020F8D40020D89F0020294B73B56E
:105700001B68418104469847274DE060BFF35B8FDB
:1057100055E8003F013345E80032002AF8D1BFF3D5
:105720005B8F4FF02003EFF3118683F31188BFF3F3
:105730006F8F1E4821461CF076FD86F31188BFF35B
:105740006F8F1B4B1B7883B14FF02003EFF3118455
:1057500083F31188BFF36F8F0020FFF7F1FE84F30E
:105760001188BFF36F8F02B070BD124A2B681268A8
:10577000002AF8D0012B0AD100220023CDE9002312
:105780000D484FF4004200231BF0BEF8EBE70A2B54
:10579000E9D1094821F0D3FC084802B0BDE87040C7
:1057A0001AF08ABD78020020F8D4002004D5002029
:1057B0007EED002028D5002098A40020D89F00204E
:1057C000F8B50E4F3D7875B90D4C0E4EFFF74AFEF9
:1057D000361B3611B54207DB0020FFF7B1FE00286B
:1057E000FAD101233B70F8BD63685B791BB1236874
:1057F00020461B69984701351034EBE77EED002009
:105800007C7802009C78020007B504380190BFF351
:105810005B8F50E8003F5A1E40E800210029F8D174
:10582000BFF35B8F012B03D1034801A91AF0A6F83F
:1058300003B05DF804FB00BF0CD500202023024913
:1058400002481A4621F082B9382C01202CD50020BC
:1058500037B50023094D01930120FFF771FE04467F
:10586000FFF7C8FD0022002301A928461AF056F8C8
:1058700008B1002CF0D1019803B030BD2CD5002028
:1058800007B50023019307480022002301A91AF05D
:1058900045F810B1FFF7DCFF0190019803B05DF807
:1058A00004FB00BF2CD50020F0B5037A85B0DC07DF
:1058B00001901ED4457A2D091BD00024264601985C
:1058C00031461CF0B6FD0746FFF72CFE70B134B927
:1058D000019B294618691CF0C5FC044648B124FA0E
:1058E00006F3D90702D53846FFF78EFF0136AE42E0
:1058F000E5D3019B1A7A920704D55B69084C0393A0
:10590000039B2BB9064801A91AF038F805B0F0BD81
:105910001D6803A920461AF031F80395F0E700BF8F
:105920002CD500200EB403B503AB014653F8042B6D
:1059300004480193FEF760FE02B05DF804EB03B08B
:10594000704700BF4F2802002DE9F0471D46089B15
:105950001746DA0604460E4605D499064CBF2A4976
:105960002A49FFF7DFFFDFF8A8904FF00008A845AD
:105970002ADBDFF8A080DFF8A090DFF894A00025F4
:10598000BD422FD2725D49462046FFF7CBFF01355D
:10599000102D20D12149DFF87880DFF8849020464F
:1059A000FFF7C0FF0025AF4228D9725DA2F12003A6
:1059B0005F2B28BF2E2249462046FFF7B3FF013553
:1059C000102D14D1BDE8F08749462046FFF7AAFF05
:1059D00008F10108CBE76A07D2D151462046FFF70C
:1059E000A1FFCDE741462046FFF79CFFCFE76B07BD
:1059F000D9D141462046FFF795FFD4E741462046DE
:105A0000FFF790FFDBE700BFF3920200DF95020093
:105A10003CAE0200AAB30200A4B30200AEB302007F
:105A2000B0B302002DE9F04F85B011F002049046AA
:105A30009DF8387006461A4601F0010901F0080584
:105A400006D011F0440F36D13249FFF76BFF044600
:105A5000B9F1000F0AD0304B304953F82720304BB2
:105A60003046002A08BF1A46FFF75CFF3DB12D4BB8
:105A70002D4953F827203046FFF754FF0546B8F16B
:105A8000000F44D0012303FA07F7284B17F0100F3B
:105A9000274F18BF1F46BDF840109DF83C00FFF788
:105AA000B9FC394602463046FFF73CFF2844204403
:105AB00005B0BDE8F08F1F4B196831B31E4B4FF492
:105AC000616C1B68B2FBF3F34FF47A7BB3FBF1F428
:105AD000B4FBFCF20CFB124C01FB14340BFB04F482
