:10000000201701203D710000D13902006D71000000
:100010006D7100006D7100006D7100000000000046
:100020000000000000000000000000009D6E0000C5
:100030006D71000000000000496E00008B27020077
:10004000FD70000049A10100FD700000FD7000007E
:10005000FD700000FD700000FD700000FD700000EC
:10006000FD700000FD700000FD700000FD700000DC
:10007000FD700000FD700000FD700000FD700000CC
:10008000FD700000FD700000FD700000FD700000BC
:10009000FD700000FD700000FD700000FD700000AC
:1000A000FD700000FD700000FD700000FD7000009C
:1000B000FD700000FD700000FD700000FD7000008C
:1000C000FD700000FD700000FD700000FD7000007C
:1000D000FD700000FD700000FD700000FD7000006C
:1000E000FD700000FD700000FD700000FD7000005C
:1000F000FD700000FD700000FD700000FD7000004C
:1001000081F0004102E000BF83F0004330B54FEAC8
:1001100041044FEA430594EA050F08BF90EA020F35
:100120001FBF54EA000C55EA020C7FEA645C7FEAC8
:10013000655C00F0E2804FEA5454D4EB5555B8BFEB
:100140006D420CDD2C4480EA020281EA030382EA5C
:10015000000083EA010180EA020281EA0303362DEE
:1001600088BF30BD11F0004F4FEA01314FF4801CC1
:100170004CEA113102D0404261EB410113F0004FD3
:100180004FEA03334CEA133302D0524263EB43038A
:1001900094EA050F00F0A780A4F10104D5F1200E28
:1001A0000DDB02FA0EFC22FA05F2801841F1000183
:1001B00003FA0EF2801843FA05F359410EE0A5F157
:1001C00020050EF1200E012A03FA0EFC28BF4CF088
:1001D000020C43FA05F3C01851EBE37101F000453E
:1001E00007D54FF0000EDCF1000C7EEB00006EEB4B
:1001F0000101B1F5801F1BD3B1F5001F0CD34908D5
:100200005FEA30004FEA3C0C04F101044FEA44522B
:1002100012F5800F80F09A80BCF1004F08BF5FEAB2
:10022000500C50F1000041EB045141EA050130BD92
:100230005FEA4C0C404141EB0101013C28BFB1F5A4
:10024000801FE9D291F0000F04BF01460020B1FAEF
:1002500081F308BF2033A3F10B03B3F120020CDAC2
:100260000C3208DD02F1140CC2F10C0201FA0CF0A0
:1002700021FA02F10CE002F11402D8BFC2F1200C05
:1002800001FA02F120FA0CFCDCBF41EA0C019040BB
:10029000E41AA2BF01EB0451294330BD6FEA040404
:1002A0001F3C1CDA0C340EDC04F11404C4F12002EF
:1002B00020FA04F001FA02F340EA030021FA04F301
:1002C00045EA030130BDC4F10C04C4F1200220FA58
:1002D00002F001FA04F340EA0300294630BD21FA96
:1002E00004F0294630BD94F0000F83F4801306BF5C
:1002F00081F480110134013D4EE77FEA645C18BF50
:100300007FEA655C29D094EA050F08BF90EA020FE6
:1003100005D054EA000C04BF1946104630BD91EADE
:10032000030F1EBF0021002030BD5FEA545C05D1E1
:100330004000494128BF41F0004130BD14F5800420
:100340003CBF01F5801130BD01F0004545F0FE4194
:1003500041F470014FF0000030BD7FEA645C1ABFC9
:10036000194610467FEA655C1CBF0B46024650EA00
:10037000013406BF52EA033591EA030F41F400212C
:1003800030BD00BF90F0000F04BF0021704730B5B2
:100390004FF4806404F132044FF000054FF0000187
:1003A00050E700BF90F0000F04BF0021704730B548
:1003B0004FF4806404F1320410F0004548BF40421D
:1003C0004FF000013EE700BF42004FEAE2014FEA72
:1003D00031014FEA02701FBF12F07F4393F07F4F4D
:1003E00081F06051704732F07F4208BF704793F050
:1003F0007F4F04BF41F40021704730B54FF4607463
:1004000001F0004521F000411CE700BF50EA010265
:1004100008BF704730B54FF000050AE050EA01020E
:1004200008BF704730B511F0004502D5404261EB7E
:1004300041014FF4806404F132045FEA915C3FF4BF
:10044000D8AE4FF003025FEADC0C18BF03325FEA5C
:10045000DC0C18BF033202EBDC02C2F1200300FA0D
:1004600003FC20FA02F001FA03FE40EA0E0021FA32
:1004700002F11444BDE600BF70B54FF0FF0C4CF420
:10048000E06C1CEA11541DBF1CEA135594EA0C0FD2
:1004900095EA0C0F00F0DEF82C4481EA030621EA0D
:1004A0004C5123EA4C5350EA013518BF52EA033548
:1004B00041F4801143F4801338D0A0FB02CE4FF0FA
:1004C0000005E1FB02E506F00042E0FB03E54FF02A
:1004D0000006E1FB03569CF0000F18BF4EF0010E22
:1004E000A4F1FF04B6F5007F64F5407404D25FEA1E
:1004F0004E0E6D4146EB060642EAC62141EA5551D1
:100500004FEAC52040EA5E504FEACE2EB4F1FD0C12
:1005100088BFBCF5E06F1ED8BEF1004F08BF5FEA90
:10052000500E50F1000041EB045170BD06F0004642
:1005300046EA010140EA020081EA0301B4EB5C04EF
:10054000C2BFD4EB0C0541EA045170BD41F48011E7
:100550004FF0000E013C00F3AB8014F1360FDEBF0C
:10056000002001F0004170BDC4F10004203C35DAE8
:100570000C341BDC04F11404C4F1200500FA05F36B
:1005800020FA04F001FA05F240EA020001F000420C
:1005900021F0004110EBD37021FA04F642EB060182
:1005A0005EEA430E08BF20EAD37070BDC4F10C04AC
:1005B000C4F1200500FA04F320FA05F001FA04F270
:1005C00040EA020001F0004110EBD37041F100015C
:1005D0005EEA430E08BF20EAD37070BDC4F1200567
:1005E00000FA05F24EEA020E20FA04F301FA05F2CF
:1005F00043EA020321FA04F001F0004121FA04F277
:1006000020EA020000EBD3705EEA430E08BF20EA46
:10061000D37070BD94F0000F0FD101F00046400080
:1006200041EB010111F4801F08BF013CF7D041EA02
:10063000060195F0000F18BF704703F00046520006
:1006400043EB030313F4801F08BF013DF7D043EAD7
:100650000603704794EA0C0F0CEA135518BF95EA8D
:100660000C0F0CD050EA410618BF52EA4306D1D114
:1006700081EA030101F000414FF0000070BD50EA33
:10068000410606BF1046194652EA430619D094EABD
:100690000C0F02D150EA013613D195EA0C0F05D1A7
:1006A00052EA03361CBF104619460AD181EA0301FB
:1006B00001F0004141F0FE4141F470014FF00000B3
:1006C00070BD41F0FE4141F4780170BD70B54FF04E
:1006D000FF0C4CF4E06C1CEA11541DBF1CEA1355CE
:1006E00094EA0C0F95EA0C0F00F0A7F8A4EB0504B0
:1006F00081EA030E52EA03354FEA013100F08880A7
:100700004FEA03334FF0805545EA131343EA12636F
:100710004FEA022245EA111545EA10654FEA002624
:100720000EF000419D4208BF964244F1FD0404F5DD
:10073000407402D25B084FEA3202B61A65EB030539
:100740005B084FEA32024FF480104FF4002CB6EBF6
:10075000020E75EB030E22BFB61A754640EA0C0076
:100760005B084FEA3202B6EB020E75EB030E22BFB6
:10077000B61A754640EA5C005B084FEA3202B6EBF7
:10078000020E75EB030E22BFB61A754640EA9C00B6
:100790005B084FEA3202B6EB020E75EB030E22BF86
:1007A000B61A754640EADC0055EA060E18D04FEA44
:1007B000051545EA16754FEA06164FEAC30343EAE4
:1007C00052734FEAC2025FEA1C1CC0D111F4801FB1
:1007D0000BD141EA00014FF000004FF0004CB6E7AA
:1007E00011F4801F04BF01430020B4F1FD0C88BF49
:1007F000BCF5E06F3FF6AFAEB5EB030C04BFB6EB54
:10080000020C5FEA500C50F1000041EB045170BD46
:100810000EF0004E4EEA113114EB5C04C2BFD4EB73
:100820000C0541EA045170BD41F480114FF0000EF7
:10083000013C90E645EA060E8DE60CEA135594EA73
:100840000C0F08BF95EA0C0F3FF43BAF94EA0C0F76
:100850000AD150EA01347FF434AF95EA0C0F7FF4EB
:1008600025AF104619462CE795EA0C0F06D152EA3F
:1008700003353FF4FDAE1046194622E750EA410623
:1008800018BF52EA43067FF4C5AE50EA41047FF434
:100890000DAF52EA43057FF4EBAE12E74FEA410297
:1008A00012F5001215D211D56FF47873B3EB6252C2
:1008B00012D94FEAC12343F0004343EA505311F0E9
:1008C000004F23FA02F018BF404270474FF000007B
:1008D000704750EA013005D111F0004008BF6FF0B9
:1008E000004070474FF00000704700BF4FEA4102E0
:1008F000B2F1E04324BFB3F5001CDCF1FE5C0DD97E
:1009000001F0004C4FEAC0024CEA5070B2F1004FC7
:1009100040EB830008BF20F00100704711F0804FCA
:1009200021D113F13872BCBF01F00040704741F48F
:1009300080114FEA5252C2F11802C2F1200C10FA93
:100940000CF320FA02F018BF40F001004FEAC12377
:100950004FEAD32303FA0CFC40EA0C0023FA02F31B
:100960004FEA4303CCE77FEA625307D150EA0133F1
:100970001EBF4FF0FE4040F44000704701F00040C1
:1009800040F0FE4040F40000704700BF80F000409F
:1009900002E000BF81F0004142001FBF5FEA410357
:1009A00092EA030F7FEA226C7FEA236C6AD04FEA57
:1009B0001262D2EB1363C1BFD2184140484041409C
:1009C000B8BF5B42192B88BF704710F0004F40F44E
:1009D000000020F07F4018BF404211F0004F41F46A
:1009E000000121F07F4118BF494292EA030F3FD036
:1009F000A2F1010241FA03FC10EB0C00C3F1200349
:100A000001FA03F100F0004302D5494260EB4000D7
:100A1000B0F5000F13D3B0F1807F06D340084FEA42
:100A2000310102F10102FE2A51D2B1F1004F40EB37
:100A3000C25008BF20F0010040EA0300704749009F
:100A400040EB0000013A28BFB0F5000FEDD2B0FA3C
:100A500080FCACF1080CB2EB0C0200FA0CF0AABF5F
:100A600000EBC25052421843BCBFD04018437047FD
:100A700092F0000F81F4000106BF80F40000013203
:100A8000013BB5E74FEA41037FEA226C18BF7FEADA
:100A9000236C21D092EA030F04D092F0000F08BF1C
:100AA0000846704790EA010F1CBF0020704712F003
:100AB0007F4F04D1400028BF40F00040704712F142
:100AC00000723CBF00F50000704700F0004343F0A7
:100AD000FE4040F4000070477FEA226216BF0846DD
:100AE0007FEA23630146420206BF5FEA412390EAA0
:100AF000010F40F4800070474FF0000304E000BF96
:100B000010F0004348BF40425FEA000C08BF704746
:100B100043F0964301464FF000001CE050EA01020A
:100B200008BF70474FF000030AE000BF50EA01021F
:100B300008BF704711F0004302D5404261EB41010C
:100B40005FEA010C02BF84460146002043F0B64331
:100B500008BFA3F18053A3F50003BCFA8CF2083A56
:100B6000A3EBC25310DB01FA02FC634400FA02FC5F
:100B7000C2F12002BCF1004F20FA02F243EB020066
:100B800008BF20F00100704702F1200201FA02FCC8
:100B9000C2F1200250EA4C0021FA02F243EB0200BB
:100BA00008BF20EADC7070474FF0FF0C1CEAD052FF
:100BB0001EBF1CEAD15392EA0C0F93EA0C0F6FD0C0
:100BC0001A4480EA010C400218BF5FEA41211ED09E
:100BD0004FF0006343EA501043EA5111A0FB01318A
:100BE0000CF00040B1F5000F3EBF490041EAD3715F
:100BF0005B0040EA010062F17F02FD2A1DD8B3F1DB
:100C0000004F40EBC25008BF20F00100704790F049
:100C1000000F0CF0004C08BF49024CEA502040EA9B
:100C200051207F3AC2BFD2F1FF0340EAC250704761
:100C300040F400004FF00003013A5DDC12F1190F9F
:100C4000DCBF00F000407047C2F10002410021FA11
:100C500002F1C2F1200200FA02FC5FEA310040F129
:100C6000000053EA4C0308BF20EADC70704792F0A2
:100C7000000F00F0004C02BF400010F4000F013ADA
:100C8000F9D040EA0C0093F0000F01F0004C02BFD5
:100C9000490011F4000F013BF9D041EA0C018FE744
:100CA0000CEAD15392EA0C0F18BF93EA0C0F0AD04A
:100CB00030F0004C18BF31F0004CD8D180EA010070
:100CC00000F00040704790F0000F17BF90F0004F09
:100CD000084691F0000F91F0004F14D092EA0C0FEB
:100CE00001D142020FD193EA0C0F03D14B0218BF7E
:100CF000084608D180EA010000F0004040F0FE40C4
:100D000040F40000704740F0FE4040F4400070475F
:100D10004FF0FF0C1CEAD0521EBF1CEAD15392EADE
:100D20000C0F93EA0C0F69D0A2EB030280EA010CCE
:100D300049024FEA402037D04FF0805343EA111167
:100D400043EA10130CF000408B4238BF5B0042F1C5
:100D50007D024FF4000C8B4224BF5B1A40EA0C006A
:100D6000B3EB510F24BFA3EB510340EA5C00B3EB9C
:100D7000910F24BFA3EB910340EA9C00B3EBD10F8A
:100D800024BFA3EBD10340EADC001B0118BF5FEADC
:100D90001C1CE0D1FD2A3FF650AF8B4240EBC25005
:100DA00008BF20F0010070470CF0004C4CEA5020C6
:100DB0007F32C2BFD2F1FF0340EAC250704740F415
:100DC00000004FF00003013A37E792F0000F00F007
:100DD000004C02BF400010F4000F013AF9D040EA85
:100DE0000C0093F0000F01F0004C02BF490011F419
:100DF000000F013BF9D041EA0C0195E70CEAD15311
:100E000092EA0C0F08D142027FF47DAF93EA0C0FF7
:100E10007FF470AF084676E793EA0C0F04D14B02DB
:100E20003FF44CAF08466EE730F0004C18BF31F08D
:100E3000004CCAD130F000427FF45CAF31F0004387
:100E40007FF43CAF5FE700BF53B94AB9002908BF40
:100E500000281CBF4FF0FF314FF0FF3000F074B995
:100E6000ADF1080C6DE904CE00F006F8DDF804E001
:100E7000DDE9022304B070472DE9F047089E0D46D6
:100E800004468846002B4DD18A42944668D9B2FA6E
:100E900082F252B101FA02F3C2F1200120FA01F10B
:100EA0000CFA02FC41EA030894404FEA1C45210C6D
:100EB000B8FBF5FE1FFA8CF705FB1E8341EA0343DE
:100EC0000EFB07F199420BD91CEB03030EF1FF3027
:100ED00080F01E81994240F21B81AEF1020E634404
:100EE0005B1AA4B2B3FBF5F005FB103344EA0344EC
:100EF00000FB07F7A7420AD91CEB040400F1FF33FB
:100F000080F00881A74240F2058164440238E41B66
:100F100040EA0E4000211EB1D4400023C6E9004340
:100F2000BDE8F0878B4208D9002E00F0EE8000214A
:100F3000C6E900050846BDE8F087B3FA83F1002949
:100F40004AD1AB4202D3824200F2F980841A65EBA7
:100F5000030301209846002EE2D0C6E90048DFE7EF
:100F600002B9FFDEB2FA82F2002A40F09180A1EBD2
:100F70000C054FEA1C471FFA8CFE0121B5FBF7F365
:100F800007FB1350250C45EA00450EFB03F0A84271
:100F900008D91CEB050503F1FF3802D2A84200F284
:100FA000CB8043462D1AA4B2B5FBF7F007FB1055D2
:100FB00044EA05440EFB00FEA64508D91CEB0404D8
:100FC00000F1FF3502D2A64500F2BB802846A4EB13
:100FD0000E0440EA03409EE7C1F120078B4022FA4D
:100FE00007FC4CEA030C20FA07F405FA01F31C4352
:100FF000FD404FEA1C4900FA01F3B5FBF9F8200C5B
:101000001FFA8CFE09FB185540EA054508FB0EF057
:10101000A84202FA01F20BD91CEB050508F1FF3AD0
:1010200080F08880A84240F28580A8F102086544DB
:101030002D1AA4B2B5FBF9F009FB105544EA054599
:1010400000FB0EFEAE4508D91CEB050500F1FF3490
:101050006CD2AE456AD90238654440EA0840A0FB2C
:101060000294A5EB0E05A542C846A64656D353D01A
:101070005EB1B3EB080265EB0E0505FA07F722FA3D
:1010800001F3CD401F43C6E900750021BDE8F0879C
:10109000C2F1200320FA03F10CFA02FC25FA03F353
:1010A00095400D434FEA1C471FFA8CFEB3FBF7F146
:1010B00007FB11302B0C43EA004301FB0EF0984272
:1010C00004FA02F408D91CEB030301F1FF382FD214
:1010D00098422DD9023963441B1AADB2B3FBF7F025
:1010E00007FB103345EA034500FB0EF3AB4208D97A
:1010F0001CEB050500F1FF3816D2AB4214D90238BB
:101100006544ED1A40EA014138E73146304607E7C9
:101110008646E5E61846FAE64B45A9D2B9EB020841
:1011200064EB0C0E0138A3E74046EAE7204694E75B
:101130004146D1E7D0467BE7023B654432E70846AB
:1011400009E76444023842E7704700BF000000002E
:101150002DE9F04794B06D460024042000F05CF8BF
:101160000134142C45F8040BF7D117A7D7E9006711
:10117000DFF85C904FF0000AE84613255446D8F893
:10118000041048F8041B2046FFF706FC013D044606
:10119000F5D1042000F040F821461390FFF7FCFB46
:1011A0004946FFF7B5FDFFF70FF932463B46FFF71B
:1011B00063F9FFF773FB074B18604FF47A701FF069
:1011C000AAF901F02BFBD7E73333333333E3524033
:1011D0000000A0412002002037B5054601A81FF0FD
:1011E00088FD019B1A0444BF5B42019304460198A9
:1011F000FFF786FCFFF7E8F805A3D3E90023FFF724
:101200003BF9FFF773FB2860204603B030BD00BFF9
:101210007B14AE47E17A743FF0B5012387B0834079
:1012200002930C2300260493274F01960A230546B8
:10123000ADF8143003978DF8166002F029FB234BAC
:101240001A78954204460CD0214A1D70167070B968
:1012500000241D480C22002122F0BAFCB4B91D481C
:101260002CE00028F4D01A4B1B78002BF1D11A493E
:101270000B7965F304030B71A36820461B6898473C
:101280000028E5D1124B01221A70E2E7A36801A9F8
:101290005B68204698470028E1D1B7F90000431C5D
:1012A000DDD0FFF77FF806A3D3E90023FFF7E4F8CA
:1012B0000A4B0022FFF7E0F8FFF718FB07B0F0BD7C
:1012C000CDCCCCCCCCCC0C40F2EC0020B308002030
:1012D00025ED0020000080BF860700200000503F61
:1012E00070B5444DD5F81C31996811F0010188B0F2
:1012F0001FD103AA40F6034007F078FD04460028FA
:1013000074D1039B9B681B7883B905F1940318463D
:1013100022F0F2FDBFF35B8F00F0050053E8002FD1
:1013200043E800010029F9D1BFF35B8F03981BF05C
:1013300075FD03AA002141F2030007F057FD0446A2
:10134000002853D1039B2C4899680822013122F0D0
:1013500014FC03981BF062FD214603AA41F2010030
:1013600007F044FD0446002840D1039883685A786A
:1013700085F83420D9789A7842EA0122EA861A79E7
:1013800085F83520197ADA7942EA01222A875A79D2
:101390009B7942EA03236B871BF040FD214603AA99
:1013A00041F2020007F022FD0446F8B9039B1348FE
:1013B00099684022013122F0E0FB95F866300398ED
:1013C00043F0060385F866301BF028FD95F84030A1
:1013D0005A061BD40A4B0B490B48C91AC908890184
:1013E00041F0010120F0BDFB6FF01204204608B06F
:1013F00070BD00BF000000203C0000204400002021
:10140000C86F02008070020052BC0200214603AA8D
:1014100042F2030007F0EAFC04460028E6D1039BF1
:10142000B54899680822013122F0A7FB03981BF008
:10143000F5FC214603AA42F2020007F0D7FC04465D
:101440000028D3D1039B9B68B3F80120A5F8C420E2
:1014500091B221B1DA78A948114625F0BBF9039879
:101460001BF0DCFC95F8406016F0200600F01E81B1
:1014700095F860301B0712D503AA002142F21C0028
:1014800007F0B4FC04460028B0D103988368D3F871
:101490000120D3F80530C5E928231BF0BFFC95F8DF
:1014A00098309E0624D502A90DF1060007F06EFEC5
:1014B000044600289AD1042142F2240007F036FBAA
:1014C0000646002800F0F9800421083024F0A9FB2A
:1014D000BDF806300380BDF808304380224631460F
:1014E00042F2240007F082FC044600287FF47EAF1D
:1014F00095F898305C062CD5022142F22E0007F0B8
:1015000015FB0446002800F0D8800221083024F0A2
:1015100088FB6FF07B030370032343702146002296
:1015200042F22E0007F062FC044600287FF45EAF12
:10153000014603AA42F22A0007F058FC044600289C
:101540007FF454AF039883685B7885F8E0301BF034
:1015500065FC082142F2010007F0E8FA0446002881
:1015600000F0AB800821084424F05BFB95F898104C
:1015700011F0400F024640F2022308BF0323880700
:101580004CBF43F02C0043F00C008B0695F89930CB
:1015900048BF40F0400013F0090F95F8663018BFBF
:1015A00040F4006003F00603CE0748BF40F010008F
:1015B000062B08BF40F4C070002122F0DCFC21465D
:1015C000002242F2010007F011FC044600287FF4DB
:1015D0000DAF95F8403098061ED4B5F8C410D9B9AF
:1015E00003AA41F2050007F001FC044600287FF43D
:1015F000FDAEB5F8C43063B9039B9B685A789978FF
:1016000042EA0122A5F8C4209A883C48114625F0F8
:10161000E1F803981BF002FC082140F6014007F0B6
:1016200085FA0446002848D00821084424F0F9FA35
:1016300095F89830D907024654D52DA1D1E900017B
:1016400022F099FC2146002240F6014007F0CEFB33
:10165000044600287FF4CAAE014602AA4FF60140B4
:1016600007F0C4FB264E274BF61AF608B6010028F1
:1016700054D0254846F0020120F073FA09F0CAFE62
:10168000044600287FF4B2AE014630221F4822F003
:101690009FFA1F4BC5F83431EB79002B40F0AB803B
:1016A0001C4846F0030120F05CFA9FE6022140F658
:1016B0006D4007F03BFA044610B96FF0360495E62A
:1016C0000221083024F0ADFA012303704670214650
:1016D000324640F66D4007F089FB044600283FF48F
:1016E000C7AE83E60C484FF00051A9E7AFF3008086
:1016F000908800020080002098000020C800002090
:1017000080700200C86F020076BC02003001002029
:10171000419100004ABD020010880002029B394836
:101720009C68B4F80120032A96BF3749374951F81D
:10173000221046F0030320F035FAB4F80110B4F893
:101740000320022946F003032ED1032A2CD8304966
:1017500051F822102F4820F025FA62792E48032AEA
:1017600096BF2E49294951F82210CDE90312A279DA
:101770000592B4F807200692D4F80920079246F0A3
:101780000303052203A920F042FA02981BF046FB4E
:1017900002AA00214FF6024007F028FB044628B1B8
:1017A0001F4846F0020167E71849D3E7029B1D482E
:1017B00099680222013122F0E0F902981BF02EFB19
:1017C00095F885305B077FF559AF02AA21464FF6A1
:1017D000034007F00BFB18B1134846F002014BE73A
:1017E000029B124899680122114422F0C6F902981E
:1017F0001BF014FB42E704210D4822F08CFB08F09B
:101800004DFAF3E59ABC02007077020044B602007C
:1018100030770200B3BC0200CBBC0200A877020004
:10182000F8BC02008500002021BD020084000020D9
:1018300094000020000000002DE9F041D0E90B35B4
:10184000866A5C193034A6428846174618D81C4D63
:10185000A3FB050118A3D3E90023FFF7F5FAA41BA6
:1018600020F07F40C8F8000013A3D3E90023A4FBB5
:101870000501FFF7E9FA20F07F403860BDE8F0810C
:101880000F4C0DA3D3E90023A6FB0401FFF7DCFAFC
:1018900005F1300120F07F40C8F8000006A3D3E92D
:1018A0000023A1FB0401FFF7CFFA20F07F4038604E
:1018B000BDE8F081AFF300808D49FD1A07000000FC
:1018C00000CA9A3B000000002DE9F04F8FB00028BD
:1018D00000F04B81AA4C94F84E6016F0010636D108
:1018E00094F82D2094F8393094F8290004EB820202
:1018F00004EB8303FF2100F00300D2F83080D3F81B
:101900003C9084F82A1018F031F894F84E004707FC
:1019100000F11781B8F1000F11D09948414612F03B
:101920003DFF98F800305D0605D506210EF0F6FA69
:10193000002800F0DF819248494612F02FFF98F806
:10194000003013F00E0F40F0D380636A23B10C26F1
:1019500030460FB0BDE8F08F12F088F882460028BC
:1019600000F0D78112F08EF88346002800F0D6816F
:1019700013F070FC0546002800F0CD81806F4FF613
:10198000FF73AB8505F11C03002800F0BE8105F153
:101990006C0205F168010B930EF0CCFAB5F86420E7
:1019A00095F84010C5F83CA122F4EF6222F007023E
:1019B00042F4887242F00102A5F8642095F83D20B7
:1019C00002F03F0262F07F0285F83D2095F8322157
:1019D00022F0030285F8322195F87E2022F01F02C2
:1019E00085F87E20674A2A66674AC5F828210027BD
:1019F0004FF01B1267F30001EA65062285F84010DC
:101A0000C5E9137785F83F706F866F636F65A5F83A
:101A1000C870A5F8CC70C5F80C71A5F81071A5F8C0
:101A20002471C5F82C71A5F8307185F83B71AF674A
:101A3000A5F87C70A5F85C71A5F8C42095F85E2126
:101A4000A5F87C7122F0070285F85E21B5F8DC204C
:101A5000C5F8E47002F0FC02A5F8DC2095F87E21C0
:101A6000A5F8E87067F3041285F87E2195F8A621A1
:101A700085F8EA7067F3C30285F8A621A5F8A4717A
:101A8000A5F8B07113F020FFA5F8D60013F022FFDF
:101A9000D5F8B4113D4AA5F8D8000A40C5F8B421DC
:101AA00013F01EFF95F8B82160F3020285F8B82103
:101AB00013F01CFF0B9B6362C4E911AB95F8B831BE
:101AC000C5F8BC7160F3C50385F8B83195F82030CE
:101AD000ED6167F30003C5E97277C5E97077C5E981
:101AE000057785F8203018F065FF002840F0048164
:101AF00094F828300121C3F342030DF133008DF82F
:101B000033300EF091FB002800F0998098F8002007
:101B100002F00F02022A3BD0012A00F0F18099F86E
:101B200001301033DB00002A00F0D980062A00F0D3
:101B3000FA804FF4DA734FF41B71013803FB001184
:101B400032E0C0F3C000324604F14F0118F07AF8D9
:101B5000FF2884F82A003FF4DDAE304617F020FF5E
:101B6000B8F1000F7FF4D9AEE9E6054B93F84E309B
:101B7000DB077FF5ECAE0FB0BDE8F04F12F0DABB3B
:101B800058E10020480148017F4101000000FFF6B4
:101B900098F801301033DB0000FB03F3411E03F51E
:101BA000AA73642000FB013194F820306648E46198
:101BB000002565F3000384F8203031232360A1FB66
:101BC00000015FA3D3E90023C4E90555C4E9015529
:101BD000FFF73AF9B4F84C70E0600FF069FC814609
:101BE00047B998F8005005F00F05A5F10105B5FAC1
:101BF00085F56D0994F8280065F3000010F00105E3
:101C000084F8280022D0E368504ADFF84481049326
:101C1000002002250DAF019305920321CDE90200BA
:101C200006944B4600900897CDF81C802A460D95E7
:101C30000FF072FB394611F0CFFF00283BD0636AEA
:101C4000002B3FF484AE12F033FB80E6E368414A98
:101C50004148049303F24713A7FB00010694029541
:101C60001360912303FB0711394B0793374B0593FF
:101C70004FF6FF7309924FF0020803930DAF30A3A4
:101C8000D3E90023CDF834800897FFF7DDF84B4601
:101C9000CDE900504246284603210FF0E7FA3946C5
:101CA00011F09AFF0028CAD194F84E3043F0010396
:101CB00084F84E304CE6294A05924AF2D832009216
:101CC000CDE90300CDE90100CDF81C80089706940A
:101CD0004B46012203210D950FF01EFBDFE798F81C
:101CE0000110103103EBC103CA0003F54D7102F579
:101CF0009A7322E712262BE612F0DAFA032627E679
:101D00004FF4F2734FF47F7117E705F17000A86785
:101D10003DE607261CE6584611F0BAFE504611F083
:101D2000ABFE072614E698F80120103203EBC2033D
:101D3000D20003F54D7102F59A73FEE6AFF3008011
:101D40008D49FD1A0700000000CA9A3B914001002E
:101D5000292D0100B0E10020002AE784753F010031
:101D60002DE9F04FC24D2B688BB004460F469046CC
:101D7000002B00F01682638EE68E1E4494F812311A
:101D80003E4413F00703B6B240F08E81B4F8EC90F5
:101D9000A6EB09021FFA82FB120400F1EB8194F911
:101DA0003D20002AC0F22B8194F8E83084F8E93015
:101DB00094F87C2194F87D3194F8101184F8111175
:101DC000934206D094F87E3103F00703052B00F010
:101DD0003E822B68A34204BF00232B60D4F80C5131
:101DE000002D00F030812868002800F02C81E28D61
:101DF000B4F814314168C4F80C119342B4F81621B8
:101E000000F00581B4F81811B4F82CC0EB83152349
:101E10002B710023A5F806C02A8469842B772946F4
:101E200011F03CFE11F044FE2368002B0ADAD4E9DD
:101E3000012123F0004391422CBF88449044236049
:101E4000A8EB0308E08DB4F8145110FB0BF080B23E
:101E5000B0FBF5F115FB01F39BB298421FFA81FA32
:101E600080F08D811B1A834940F2E24003FB00F0B1
:101E7000A0FB01017CA3D3E90023FEF7E5FF20F0DE
:101E80007F408044618E94F93D30A9EB0609D1442E
:101E90000F444F446786002B40F2E24707FB05F6EC
:101EA000C0F28181744A7549754840F6F6131FF0F7
:101EB000F1F9404080F311884FF0030002DF002762
:101EC000B346704AB4F818316F48B4F81611218639
:101ED0003244B2FBF6F2A4F8CA2042F2107202FBBE
:101EE00003633044013BB0FBF6F0B3FBF6F6B4F805
:101EF0001431E38583B2881D8342A4F8C660A4F838
:101F0000D23002DD5B1A063B9BB2A4F8CE3094F8C7
:101F100012311B0744BF0023A4F8C830022101205E
:101F20001AF0C6FC00220221814601200EF052F870
:101F300056494FF4EA7220460DF0DCFF00F1030A27
:101F40005FFA8AFA524B00945246012100200FF0AA
:101F50006DFA30F002030CD0474A4E49484840F62B
:101F600025231FF097F9404080F311884FF00300BC
:101F700002DF404EABFB066B3BA3D3E900233046A8
:101F80005946FEF761FF089420F07F4506944248C9
:101F9000E3680493A5FB0001072303FB05113F4BF6
:101FA00007933F4B0593301A4FF6FE736BEB01011D
:101FB00003934FF47A720023FEF746FF4346CDE9C0
:101FC000015000975246012100200FF0A5F930F092
:101FD00002030CD0284A2F49294840F63F231FF01E
:101FE00059F9404080F311884FF0030002DFB9F146
:101FF000000F40F0238148460BB0BDE8F08F94F805
:10200000DD20002A3FF4D0AE84F8DD30D0E6218E0A
:102010009142B4F818117FF4F7AE40F2E24C0CFB99
:1020200003FE42F2107C0CFB01EC0CF1FF3CBCFB0C
:10203000FEFCB4F8C6E01FFA8CFCE6457FF4E4AE83
:1020400001232B71EBE60C4A16490D4840F67A1332
:102050001FF020F9404080F311884FF0030002DFA9
:102060002868C4E6AFF300808D49FD1A0700000020
:10207000A4E3002000CA9A3B707F02004C7B020060
:10208000B47A0200FF5962027FC3C901D0E1002087
:10209000B94A0100508002008D49FD1A614A0100D1
:1020A000558E01003C800200012011F007FD07461B
:1020B000002800F0DE8076480DF0E6FE0546002898
:1020C00000F0D78011F018FD2B793A68D4F80C1184
:1020D000516043F00303C4F80C7100212B710C23F1
:1020E0006B71E97194F820312B72238ED4F81C2186
:1020F0001E44684BA3FB0232B4F81431A5F80B3030
:10210000920AB4F81631A5F80920A5F80D3094F814
:102110001221B4F81831A5F80F300636D4F8BC31C6
:10212000B6B261F30202A4F8EC6084F81221A5F8BB
:102130001160002B00F0918094F85E21900700F16F
:102140008C8094F8B721D10700F18780D4F8C8219A
:10215000934204BF1A68C4F8C821D4F8C021002AE9
:102160007ED11A682A601D602B68C4E970550BB9CE
:10217000C4F8CC516FF043000BB0BDE8F08F05FB05
:10218000110140F2E243444889B203FB01F1A1FB93
:1021900000013DA3D3E90023FEF756FEA8EB00089B
:1021A00070E62860E7E5626CE36C02FB1B33E364D6
:1021B00018F052FC054694F8DC00C0F3820018F0D9
:1021C0004DFC054406FB05F5344B94F8202105F53C
:1021D000742505F23F25A3FB0535AD0C07FB02F284
:1021E000E36C626505FB0AF072080344963A934279
:1021F00028BF13466564A6EB050B274DC4E91223DF
:102200000023C4F8E430A0FB05011FA3D3E9002399
:10221000FEF71AFE1F49A8EB0008D4F81C01A1FB29
:102220000030800A07FB00F017A3D3E90023A0FBCE
:102230000501FEF709FE20F07F4742E60122104625
:1022400002210DF0C7FE00200BB0BDE8F08F002387
:1022500084F87D21A4F8CC30BBE5D4F8C0216AB164
:10226000D4F8C4311A682A601D602B68C4F8C451C0
:102270007DE76FF036000BB0BDE8F08F2B60C4E94E
:102280006F55C4F8C45172E78D49FD1A070000006C
:1022900028E400205917B7D100CA9A3B83DE1B43BC
:1022A0002DE9F04F93B092460A90126818461D46E9
:1022B0000C46176850F80C8B03222E3105F10809E3
:1022C00021F05BFC05F11C06042204F12A014846BA
:1022D00021F053FC052204F13A01304621F04DFC77
:1022E000304605210DF0A0FF95F8212000F03F00B9
:1022F00060F30502012885F821200AD994F83F10DF
:1023000001F01F02053AC1F304000B2A85F82200F0
:1023100002D913B0BDE8F08FDAF8002000209060F9
:10232000A68E6E8294F8362094F8370042EA002296
:10233000AA8298F8DC20638E0C93490961F3840229
:1023400088F8DC2018F088FB0B9098F8DC00C0F3CC
:10235000820018F083FB0B9BC34AC44940F2E24B56
:10236000B6B20BFB06F6184406FB00F000F574202D
:1023700000F23F20A2FB003094F831200BFB02F268
:10238000EA637208800C963AA862EA62238FA88AF0
:10239000B74AADF8363042F2107C3144B1FBF6F169
:1023A000A8F8CA1099B20CFB01613244013900F15E
:1023B000060CB1FBF6F1B2FBF6F2A8F8C61091B22A
:1023C0006145A8F8D21002DD091A063989B2A8F8C9
:1023D000CE100422494608F1E00021F0CEFB227F16
:1023E00004F11E09C2F380134946062210A80F9378
:1023F00021F0C3FB227F4FF48071A183C2F340130D
:1024000097F82A009AF812B00E930B9317F0B0FDCC
:1024100006220146002840F0EA8004F12B0021F05A
:10242000D7FBBBF1FF0F00F0EC804946584604F1A2
:102430001F0217F02BF8A27F0232A27710A9062202
:1024400004F1250021F099FB98F8DC20698ABDF899
:1024500036306186C2F38202A98AA186E38684F8B7
:102460003820404612F002FF21462882E080DAF848
:1024700004400A9811F012FB2B8AE3801823237181
:102480000B9B2068002B00F0CC8095F821302A8926
:1024900043F0400385F821306B8953406B8401235E
:1024A0002377214611F0FAFA11F002FB95F8490062
:1024B000012100F0070018F0D5F983466D484FF070
:1024C000000931230BF25241C8F80030C8E90199E4
:1024D00063A3D3E90023A1FB0001FEF7B5FCAB6ABF
:1024E000DAF80C40F61A0C9B40F2E24101FB03447F
:1024F00020F07F4004F28634A4EB0B034A4602210D
:10250000C8F80C0001200A930DF064FD384612F063
:10251000CDF8821C584B0097D2B2484601210EF0EC
:1025200085FF012800F0898097F82830DB077CD4EC
:10253000404612F09BFEDFF83C91A6FB094648A3FB
:10254000D3E90023054631462046FEF77DFCDAF844
:102550000830CDF81880A3F1310A484B0793484B57
:1025600005934FF4B6730893D8F80C3020F07F47EA
:1025700044484FF0000BCDE903B3A7FB000107234C
:10258000201A03FB071166EB01014FF47A72002356
:10259000FEF75AFC0A9BCDE90170A3FB090130A3A9
:1025A000D3E90023FEF750FC033520F07F40EDB265
:1025B000009053462A46012158460EF0ADFE30F0F9
:1025C00002030CD0304A3149314840F26D131EF0FD
:1025D00061FE404080F311884FF0030002DF0122CA
:1025E000022110460DF0F6FC13B0BDE8F08F04F1A7
:1025F000240104F12B0021F0C0FABBF1FF0F7FF49E
:1026000014AF0622002104F1250021F0E1FA9DF823
:102610003C30A37710A9062204F11F0021F0ADFA87
:1026200012E79DF8383023773BE70023012200931F
:10263000184611460EF0FAFE7AE711F00BFB8742BE
:102640003FF472AF104A1349114840F2FD131EF0D7
:1026500021FE404080F311884FF0030002DF63E762
:102660008D49FD1A0700000083DE1B43FF596202FB
:102670007FC3C90100CA9A3B198E0100E98D010090
:10268000558E01008D49FD1A98810200508002008C
:10269000B47A0200F08102002DE9F04F8FB0DFF82C
:1026A000D8800A900DF137010DF1360011F06EFA65
:1026B000324F9DF836A09DF837B00EF0F9FED8F8ED
:1026C0000040A4FB07542AA3D3E9002381462146F6
:1026D0002846FEF7B9FB0A9B0B90D8F80400069336
:1026E000274B0593002622A3D3E90023A0FB070173
:1026F000CDE90766FEF7A8FB0B9B20F07F40CDE9F4
:102700000360204823F07F47A7FB00010723281A16
:1027100003FB071164EB01014FF47A720023FEF70B
:1027200093FB0096CDE901704B465A460321504673
:102730000EF0F2FD30F0020416D1134A13480023C4
:102740001DF06EFA68B19DF837209DF836000094B0
:10275000234603210EF06AFE6FF03B000FB0BDE888
:10276000F08FD8F80C00F9E76FF04700F6E700BFEC
:102770008D49FD1A0700000060EB002000CA9A3B5B
:102780007DDB01008D49FD1A447B0B0070EB0020BE
:1027900038B50F4D04460EF08BFEA9680EF08AFE88
:1027A0006968B0FBF4F404440A4807A3D3E90023A2
:1027B000A1FB0001FEF748FB20F07F40844294BF5C
:1027C0000020012038BD00BF8D49FD1A0700000020
:1027D00060EB002000CA9A3B044A054B05480129DA
:1027E0000CBF114619461EF055BD00BFD28902002C
:1027F000DA890200E389020001481EF04BBD00BFE8
:10280000F989020011B103481EF044BD02481EF0D0
:1028100041BD00BF178A0200378A0200044B1A68C4
:10282000C82A84BF00221A60188802F0E5BF00BFE2
:1028300018AD002070B503788AB004460E4607AD87
:10284000032B20D8DFE803F002191B1D114928468D
:1028500021F039F963780493A3780393E378029322
:1028600023790193637900930B4AA37905951E217F
:1028700030461EF01CFD0AB070BD0849E7E7084964
:10288000E5E70849E3E7084A0A2128461EF00FFD5C
:10289000E0E700BF428A0200648A0200498A02001F
:1028A000508A02005A8A020015CA020000B589B097
:1028B00021F0D4FD6946FFF7BDFF034869461EF0CD
:1028C000E9FC09B05DF804FB878A020010B588B006
:1028D0000C4621F0C3FD6946FFF7ACFF03482246D2
:1028E00069461EF0D7FC08B010BD00BF9E8A0200EA
:1028F00008B5054C237813B9012001F075FC4FF49D
:10290000FA701DF008FEF5E72B08002008B5064C0C
:1029100023783BB9012001F081FC4FF4FA701DF0DF
:10292000FAFDF5E70020F6E72B08002008B500F0D7
:1029300057FE01F01DFC044C00F0BAFE20704FF46D
:10294000FA701DF0E8FDF7E72B08002008B500F04D
:1029500059FA00F0B3FA00F0BDFC1EF04BF900F09C
:102960003FFD00F025FF00F041FF00F075FF114B27
:10297000114E124D124C01221A603368ABB1012B7B
:10298000FCD11049104822462B4600F089FD0F4823
:10299000FEF722FC00F01CFB0D4B18600D481EF0EA
:1029A000CBF9FFF73BFF0A2001E04FF4FA701DF06E
:1029B000B2FDE2E714AD002020AD002021ED0020A3
:1029C00020ED002028AD002018AD002030AD002003
:1029D0002CAD0020F0EC002070B5002088B007F08E
:1029E000D5F9064630B101461F4808B0BDE8704031
:1029F0001EF050BC1D4D1E481EF04CFC1FF03CFD4F
:102A00000FCD03AC0FC42B6823601A4900963346E0
:102A1000042203A807F03CFD0146E0B116481EF071
:102A200039FC1648164C08F0ADF8164808F0CAFCF8
:102A300015481EF02FFC23688BB1144D012641F27E
:102A400088301DF068FD042342F210702E60236070
:102A50001DF061FDF3E70E481EF01CFCE1E74FF4AA
:102A60007A701DF058FDE6E7B48A0200507102004A
:102A7000D48A020048720200EB8A0200240200207D
:102A800014AD0020F8010020338B020020AD00209F
:102A9000118B020008B51EF065FA01201DF03BFD08
:102AA00001F0CEFA024B1868BDE808401EF024BAC7
:102AB000400200202DE9F04188B001F0C1FAFF206A
:102AC0001EF01AFA8E4E8F4D3368FF2B31DDFF2337
:102AD00033602B68326893422FDA8B4A12681344B2
:102AE0002B602B68FF2B2DDDFF232B6028681EF049
:102AF00003FA864B1C68012C28D0042C40D0002CF3
:102B0000E2D1834F83480094962211464FF6FF731B
:102B10001EF0C3FA3A68804B53F8220001F0B4F972
:102B20003B68032B98BF5C1C7C4B3C6000221A6006
:102B3000CAE7312BCDDC3223CAE7D2DD724A1268F4
:102B40009B1ACDE7312BD1DC3223CEE7734C2368BF
:102B5000012B01D0FFF79EFF9622002711467048F7
:102B600000974FF6FF731EF098FA4FF6FF736D480B
:102B70000097C82282211EF090FA01232360A3E768
:102B8000DFF89881D8F80030042B4DD0FFF782FF92
:102B90003224642300271A4663481F21CDE90044EC
:102BA00001F0DCF9614800974FF6FF73A0225A212B
:102BB0001EF073FA5E4864234FF482724FF478413A
:102BC000CDE9004401F0CAF95A4800974FF6FF7367
:102BD000A0224FF484711EF060FA57484FF48C73B2
:102BE00064224FF4FC61CDE9004401F0B7F9534889
:102BF00000974FF6FF734FF4AA725E211EF04DFA54
:102C00004F484FF48C734FF482724FF47841CDE902
:102C1000004401F0A3F94B4800974FF6FF734FF4BF
:102C2000AA72FA211EF039FA474B48491A6802A8DD
:102C3000002404F0F5FD4FF6FF730094BE227821C6
:102C400002A81EF02AFA424B1B7873B1414B42494D
:102C50001A6806A804F0E4FD00944FF6FF73BE2244
:102C60004FF4877106A81EF018FA3C4B1868FDF760
:102C7000ABFB002402460B4604A8394904F0D0FD02
:102C80004FF6FF73374800944FF4B9725A211EF083
:102C900004FA354B1B787BB1344B2C491A6806A8D3
:102CA00004F0BEFD00944FF6FF734FF4B9724FF479
:102CB000827106A81EF0F1F92D4B1B78EBB9009339
:102CC0004FF478432B481E2280211EF0E6F904239E
:102CD000C8F80030284B1D491A88D53A92B206A888
:102CE0001A8004F09DFD00230093F0224FF6FF733D
:102CF000BE2106A81EF0D1F9E6E600230093E1E725
:102D000020020020400200201C02002014AD002000
:102D10001CAD0020558B02004402002010AD0020A5
:102D20005D8B0200658B0200BC890020708B020065
:102D300074180020768B0200809300207A8B0200AA
:102D4000F87F00207F8B02002CAD0020DDB6020052
:102D500020ED002018AD0020848B020030AD002053
:102D6000898B02008E8B020021ED002028AD00200F
:102D70002B080020938B0200F0EC002070B5064673
:102D800088B00D4614460D481CF08EF80DF1070270
:102D900002920122039200228DF810200722CDE931
:102DA00005548DF807608DF81C20836802225C684A
:102DB00002A91923A047C0B208B070BD3F8C020021
:102DC00070B5064688B00D4614460D481CF06CF8E8
:102DD0000DF1070202920122039200228DF81020C9
:102DE0000222CDE905548DF807608DF81C20836818
:102DF00002A95C681923A047C0B208B070BD00BF2B
:102E00003F8C020030B58DB021481CF04DF828B938
:102E100020480DB0BDE830401EF03CBA1E4B019377
:102E200019221A701D4A08921D4A09921D4A0A92D7
:102E30000822ADF814200C228DF80C20684646229A
:102E40008DF816201DF0E9FDF0B917481EF022FAA2
:102E50006946B6201DF0D0FD4FF4A47000211CF08F
:102E600099FE684600F0C4F980B91048104D6C46D0
:102E70001EF010FA0FCC0FC50FCC0FC594E80F0051
:102E800085E80F000DB030BD0A48DFE70A48EDE7DE
:102E90003F8C0200458C020022ED00207D2D0000B9
:102EA000C12D000037050200648C0200A68C0200D0
:102EB00034AD0020818C0200C08C020070B5374D0B
:102EC0000FCD8CB06C460FC40FCD0FC495E80F002A
:102ED00084E80F006946B6201DF08EFD044690B9C7
:102EE0002F481EF0D7F9002140F6CD401CF052FECD
:102EF00068461DF092FD044360B284B22CB12948AB
:102F00001EF0C8F915E02848EBE728481EF0C2F982
:102F1000694601201DF04BFD84B26CB924481EF0B7
:102F2000B9F9684600F064F984B23CB1214804F074
:102F30008FFC20460CB070BD1F48E1E71F4804F02D
:102F400087FC01216A4608461DF08FFD84B20CB152
:102F50001B48ECE71B4804F07BFC20466B46012233
:102F600002211DF06EFD84B224B12146164804F002
:102F70006FFCDEE7694601201DF0EEFD84B2002CF7
:102F8000F3D16D460FCD054E0FC60FCD0FC695E898
:102F90000F0086E80F000D48B2E700BF34AD0020F7
:102FA000E18C0200448D02000F8D0200708D020042
:102FB000958D0200D68D0200B28D0200F08D0200C8
:102FC000108E02002B8E0200428E0200528E0200F2
:102FD00030B50C4D0FCD8FB002AC0FC40FCD0FC468
:102FE00095E80F0084E80F00002302A901A80193CF
:102FF0001DF0E5FD10B104481EF04CF901980FB02A
:1030000030BD00BF34AD00206A8E0200F7B5054622
:10301000294600208DF804008DF805001DF0F4FB12
:10302000AB6A696804464FF4E17098474CB92B4687
:10303000012201A959201DF00BFC0446002800F0D4
:103040008780204603B0F0BD73092F698DF80630E4
:103050002846C6F3430337448DF807301DF06DFA58
:10306000002872D1002F70D02B4601220DF10701EC
:103070005B201DF0EDFB044678B92B4601220DF1D3
:1030800006015C201DF0E4FB044630B9AA8A2B46F9
:1030900039465E201DF05FFA0446AB8A1E44B6B284
:1030A000AB8DB342D0D8002CCBD101262B46324673
:1030B00001A959208DF804601DF0CAFB04460028C0
:1030C000BFD1AB6A69682548984732462B460DF157
:1030D00005012A201DF010FB9DF8056006F00F0683
:1030E0008DF8056004460028ABD1012E32D1294667
:1030F00030461DF089FB04460028A2D18DF8060059
:103100008DF8070028461DF018FA0446002898D1CB
:103110002B4632460DF106015B201DF041FA0446B4
:1031200000288ED12B4632460DF107015C201DF0A0
:1031300037FA0446002884D19DF8063003F00F03C7
:10314000EB759DF807302B767BE74FF0FF34A4E753
:103150000646A5E76FF0040473E700BFF0490200DC
:10316000F7B51C46214B1646B3F803205B798DF862
:103170000630074645F2567320460D46ADF804204A
:10318000ADF800301DF0D9F970BB2346032201A928
:1031900056201DF0B1FA38BB02AB012E03EB070637
:1031A0004FEA152217BF16F8041C06F8045C21EA42
:1031B000050506F8045C16BF9DF806308DF806205C
:1031C000934301A918BF8DF8063016F8080C234662
:1031D000012239441DF03CFB30B9234601220DF198
:1031E000060158201DF034FB03B0F0BDF871020059
:1031F00090B10378162B12D1838A9A1E92B241F2B3
:10320000FE718A420ED8DA0744BF03F1FF3383828E
:10321000064B0361FFF7FABE4FF0FF3070476FF0C7
:10322000030070476FF00900704700BF878E0200EF
:1032300030B5054685B00C460A481BF035FE022223
:103240008DF800508DF80140CDF804D002928DF831
:103250000C20836801225C6801A95723A047C0B2F3
:1032600005B030BD3F8C020030B5054689B00C4634
:103270000D481BF019FE0DF1070202920122CDE963
:1032800005420392002107228DF807508DF8101097
:103290008DF81C20836802225C6802A95723A0478E
:1032A000C0B209B030BD00BF3F8C020008B540215C
:1032B0000920FFF7BDFF20B904481DF0EBFF0120F6
:1032C00008BD03481DF0E6FF0020F9E787A60200CD
:1032D0009EA6020013B5FFF7E9FF00214FF400405E
:1032E0001CF058FC0DF106010020FFF7BDFF0DF1A9
:1032F0000701FF20FFF7B8FF044650B99DF80730DB
:10330000152B0CBF044805481DF0C4FF204602B031
:1033100010BD0348F8E700BFBCA60200DEA602000D
:1033200007A702002DE9F04190B0182206460D468D
:1033300004A8002120F04CFC274B002418680290C0
:103340009B882C600DF1060134600420ADF80C3030
:10335000FFF78AFF0DF10601062002AFFFF784FF99
:103360001E481BF0A1FD07220DEB02010A9101216D
:103370000B9106218DF807208DF830400D970E91A6
:103380008DF83C2083680222D3F804800AA95723D1
:10339000C04704AB013417F8012B43F8042B062C6B
:1033A000F8D1059B049A1B0203EB0243069A1344CF
:1033B0002B60089B079A1B0203EB0243099A1344F4
:1033C000C3F3110333602B680020C3F311032B6098
:1033D00010B0BDE8F08100BFFE7102003F8C02001A
:1033E0002DE9F04F234F244BDFF890B0DFF89080A9
:1033F000244D3B6000244FF4FA73234ECBF8004079
:1034000087B0C8F80030A946A246D8F80010A142FB
:1034100011DC1E4B59F824201A601D4B02931D4BE2
:1034200001931D4B0093174A1C4B174800F036FAC6
:1034300007B0BDE8F08F8DF817A00DF1170100203F
:10344000FFF712FF9DF81730402BF6D13146284682
:10345000FFF768FF55F8043B3A689342DBF8002019
:1034600038BF3B60934288BFCBF80030013404364C
:10347000CBE700BF14BD0020FFFF030010BD0020FC
:1034800008BD002034B5002064AD002018BD002028
:1034900023ED002004BD002024ED00200CBD002001
:1034A0002DE9F04F3F4DDFF80091DFF800C189B002
:1034B0000E463F49CDE9042300233E4A2A600746D1
:1034C0000B60CE464FF4F57418469A46DCF8281087
:1034D000DEF828804CF8041B91423CBF0A464FF0AE
:1034E000010A814284BF08460123013C4EF8048B47
:1034F000ECD1BAF1000F00D02A600BB12C4B186050
:10350000DFF8B480DFF8B4A02D4D4FF4F5644FF030
:10351000000B58F8043BCAF800308DF81FB00DF1CD
:103520001F010020FFF7A0FE9DF81F30402BF6D1B1
:103530000DF11F010420FFF797FE0DF11F0106207A
:10354000FFF792FE09EB04014046FFF7EBFE2B6804
:103550003B601C4B1C491A68326091F90020501ED8
:103560004242424104980270184890F9002002F14A
:10357000FF3CDCF1000242EB0C020434DDF814C025
:10358000B4F5FA6F8CF80020C3D1CDE90151104990
:103590000090064A0968044800F080F909B0BDE8C7
:1035A000F08F00BF14BD002064AD002034B50020B2
:1035B00010BD0020FFFF0300D8BC002018BD002074
:1035C00004BD00200CBD002023ED002024ED0020D0
:1035D00008BD002001481DF05DBE00BF3BA70200F2
:1035E00070B528481BF060FC044628B9BDE870405F
:1035F000244925481DF04EBE072140F211121DF04E
:103600003CFB014630B11F4A20480723BDE870400B
:103610001DF040BEA36807219D694FF4A0324FF40E
:1036200080232046A847014618B1164A18480723A8
:10363000ECE71849184B4B6080238B60A368DB696B
:1036400013B101222046984714481BF02DFC054673
:1036500040B9124912481DF01DFE124B1C60124B5E
:103660001D6070BD0A214FF400721DF006FB01467B
:103670000028F2D0094A0D480A231DF00BFE002550
:10368000EBE700BF4CA7020053A7020071A702009E
:103690009AA702001CBD0020D5350000D0A702006B
:1036A000D7A7020028BD00202CBD0020F2A70200F1
:1036B000024B1968024B18681DF0F2BA2CBD0020AD
:1036C00028BD002030B5054685B00C460A481BF0E1
:1036D000EBFB02238DF800508DF80140CDF804D0AB
:1036E00002938DF80C305023012201A91DF0FBFA42
:1036F000C0B205B030BD00BF3F8C020030B50546FA
:1037000089B00C460C481BF0CFFB0DF10703029368
:103710000123CDE905430393002207238DF80750C9
:103720008DF810208DF81C305023022202A91DF0C4
:10373000DAFAC0B209B030BD3F8C02001FB50446B2
:103740000A481BF0B1FB00238DF8013002238DF8ED
:103750000040CDF804D002938DF80C30682301228C
:1037600001A91DF0C0FA04B010BD00BF3F8C0200DB
:1037700030B5054689B00C460C481BF095FB0DF1A1
:10378000070302930123CDE9054303930022072396
:103790008DF807508DF810208DF81C306823022218
:1037A00002A91DF0A0FAC0B209B030BD3F8C0200E2
:1037B00013B5FF200DF10701FFF7A0FF044650B934
:1037C0009DF80730302B0CBF054806481DF062FD00
:1037D000204602B010BD014603481DF05BFDF7E72F
:1037E00026A8020048A8020071A8020010B5002116
:1037F0000120FFF767FF002104460420FFF762FF66
:10380000002104430520FFF75DFFA4B2044300211B
:103810000620FFF757FFA4B204430F210920FFF74A
:1038200051FFA4B204431A210A20FFF74BFFA4B2B0
:103830000443C1211420FFF745FFA4B20443A4B2FE
:1038400024B903481DF026FD204610BD0148F9E7C4
:10385000A8A80200C3A8020007B56B20FFF76EFFFF
:103860001B20FFF76BFF3820FFF768FF01A97520C9
:10387000FFF77EFF019B682B0CBF034803481DF038
:1038800009FD03B05DF804FBE5A80200FFA80200F3
:1038900001481BF009BB00BF21A902002DE9F04F30
:1038A000BDB090460022059306460D461346AA4237
:1038B00045DBB3FBF5F39B4C00222046AA4243DBD9
:1038C000984A0021176852F8043F506803449068F2
:1038D0003B441B1848BF033301319B10B1F5F87FFF
:1038E00042F8043CEED190488E4F8446002240F2CC
:1038F000EF1E3B4679681B680132CB1A72454CF8C3
:10390000043B07F10407F4D1874A0021136852F8F9
:10391000047F3B44013103EBD3735B10B1F5F77FB8
:1039200042F8043CF2D1804F00214B1DDFF8FCE14E
:103930008B42B4BF01230623BC46002212E056F896
:10394000221001320B44B2E756F82210C91A40F88F
:10395000041B0132B2E75CF804ABD1463EF802AB7F
:1039600009FB1A22013BF6D140F27A4C013192FB5D
:10397000FCF247F8042B40F2E9129142D5D11A46E5
:1039800040F2EF1750F8041B01330029B8BF494239
:10399000BB420A44F6D10821052092FBF3F2CDE99F
:1039A0000110009209A9604A2DA81DF061FA099F33
:1039B000012F4FF0000338DD2DAA01201146D2F867
:1039C00004C009680130ACEB0101874202F1040236
:1039D0000B44F3D17A1E93FBF2F341F2707292FB27
:1039E000F3F3479A13600123489A0DF13C0C1370CE
:1039F0002DA8614600239F421BDC4D4B49491846C8
:103A000000228E46AA421BDB002005460DF1780AF3
:103A1000AF421FDC01283FDC059A464B13600023B0
:103A2000469A13703DB0BDE8F08F4799414A0A604D
:103A3000DAE750F8042B023241F8042B0133DAE7BD
:103A400056F8229041F8049B58F8229040F8049BC5
:103A50000132D7E75CF8046B711DB1F5F77F0FDC1D
:103A6000721F002A0CDD063E9142B4BF01210B21DA
:103A700031444FF0807801268A4203D106B90130E3
:103A80000135C5E75EF82290C145BEBF4AF8252042
:103A9000C84600260132EFE70025216854F8042FBC
:103AA000666832441144A2681E688A1848BF03320F
:103AB000921044F8042C53F8042F59680A4499686A
:103AC0003244521848BF033201359210B5F5F87FE1
:103AD00043F8042CE1D10023CDE90A33CDE90C33BE
:103AE0001EAC0E93224652F8041BB1F5FA7F93DC0C
:103AF00001339842F7D100210A4D0D4E8E4600F158
:103B0000FF3AD4F804C054F8042BACEB0208B8F127
:103B10000A0F0EF1010E56DD4FF07F471346B946EE
:103B200018E000BFF0C4002030BD002094890200DE
:103B3000C0CC002019FCFFFF55F82300B842C8BFD5
:103B4000074656F82300C8BF07934845C4BF9B46A5
:103B5000814601339C45EFDC55F8223055F82C00A6
:103B6000C01A079B9B1A584390FBF8F355F82200A4
:103B7000069355F82B301B1A06981B1A09FB03F302
:103B80004FEAE319B9F1000F1DDD04291BDC56F8DB
:103B9000220056F82C30ABEB02021B1A5A4356F89F
:103BA0002B3092FBF8F81B1AA3EB08035F43FF11BD
:103BB00009D03CAB03EB810C64235F43013197FBDD
:103BC000F9F74CF8C87CD6459BDB0AA81DF0E6F84F
:103BD0004A1003294FEA820314DD3CA901EB82015C
:103BE00051F8CC3C51F8C82C134403EBD3735B1051
:103BF000DA1EB42A3FF610AF054AD35C059A13606B
:103C000001230DE73CAA134453F8C83CF0E700BF7A
:103C100027A902002DE9F04128481BF045F9054687
:103C200038B9274825491DF035FB4FF0FF30BDE876
:103C3000F0810C211DF03FF9044638B10C232148D6
:103C40001E4A21461DF026FB20B2F0E71B481BF060
:103C50002BF906460028E4D00A211DF02CF9044671
:103C600008B10A23EBE715481BF01EF9804600282F
:103C7000D7D0062130461DF01EF9044608B10623B0
:103C8000DDE70E481BF010F907460028C9D00521D2
:103C900030461DF010F9044608B10523CFE70A4865
:103CA0001DF0F8FA094B1D60094B1E60094BC3F863
:103CB0000080094B20461F60B9E700BF4CA70200F7
:103CC000DFA90200F6A9020026AA02009CD4002067
:103CD00094D4002098D4002090D4002008B5064B3E
:103CE00002460C2118681DF0D6F818B103481DF0E3
:103CF000D1FA012008BD00BF9CD4002041AA0200D7
:103D000008B5064B02460A2118681DF0C4F818B120
:103D100003481DF0BFFA012008BD00BF94D4002065
:103D200052AA020008B5064B0246062118681DF08B
:103D3000B2F818B103481DF0ADFA012008BD00BF6C
:103D400098D4002066AA020008B5064B0246052159
:103D500018681DF0A0F818B103481DF09BFA012067
:103D600008BD00BF90D400207AAA02001FB50093BE
:103D7000069B01930123CDF808D00393836802AA20
:103D80001C680023A04720B103481DF083FA6FF0A0
:103D9000040004B010BD00BF8CAA020001481BF053
:103DA00083B800BFA4AA020070B588B00024CDE992
:103DB00005448DF80F000794FFF7F0FF054620B982
:103DC00012481DF067FA08B070BD4FF48073ADF86B
:103DD00018300F4B20461B6805930126FFF77EFF26
:103DE0002046FFF7B1FF05A900960DF10F0322460B
:103DF0002846FFF7BBFF014618B106481DF04AFAF6
:103E0000E1E73046FFF76AFFDDE700BFAAAA02003C
:103E10006C730200C5AA020070B588B00024CDE919
:103E200005448DF80F000794FFF7B8FF054620B949
:103E300012481DF02FFA08B070BD4FF48073ADF832
:103E400018300F4B20461B6805930126FFF746FFED
:103E50000120FFF779FF05A900960DF10F03224617
:103E60002846FFF783FF014618B106481DF012FAF5
:103E7000E1E73046FFF732FFDDE700BFAAAA020004
:103E80006C730200C5AA02002DE9F04F8BB000252B
:103E9000CDE9075503900995FFF780FF064628B93D
:103EA0002B481DF0F7F90BB0BDE8F08F4FF480738D
:103EB000ADF82030274BDFF8A0901B680793C8228D
:103EC00040F2171340F25D1132201DF01FF8284612
:103ED000FFF704FF0120FFF737FF4FF0500A0027DC
:103EE00005EB09080AFB07F318F80340ECB1039B44
:103EF00001241B0A8DF81830002206AB009407A994
:103F00003046FFF733FF009403AB002207A9304689
:103F10000137FFF72BFFB7F5967FE3D10135502D21
:103F2000DDD10120FFF7DAFEBDE74FF0010B0DF107
:103F300017032246CDF800B007A9304606948DF845
:103F40001740FFF713FFCDF800B006AB2246DDE7C0
:103F5000AAAA02006C730200382200202DE9F04F5B
:103F60008BB00024CDE90744DDF854800391074667
:103F7000164699460994FFF711FF054628B92E48C1
:103F80001DF088F90BB0BDE8F08F4FF48073ADF8E9
:103F900020302A4B1B680793149B08F1FF31013B2B
:103FA0004B444A46314430461CF0B0FF2046FFF7F0
:103FB00095FE0120FFF7C8FE4FF0320A149BA34282
:103FC00036D80120FFF78AFEDCE70AFB06F31BF870
:103FD0000320D2B1039B4FF001091B0A8DF8183062
:103FE000002206ABCDF8009007A92846FFF7BEFED9
:103FF000CDF8009003AB002207A92846FFF7B6FED4
:104000000136B045E1D80134D8E74FF001090DF190
:104010001703CDF8009007A9284606928DF81720BF
:104020000292FFF7A3FE029ACDF8009006ABE3E7F9
:10403000002607EB040BE4E7AAAA02006C73020057
:1040400008B5FFF7E7FD01201CF046FF15481DF0FD
:1040500021F90120FFF766FE64201CF03DFF0120DE
:10406000FFF73CFE0120FFF74BFE50201CF034FF11
:104070000020FFF745FE50201CF02EFF0120FFF727
:104080003FFE4FF4F0701CF027FFFFF787FE20B9CA
:104090000548BDE808401DF0FDB81CF066FF034868
:1040A000F7E700BFEDAA0200AAAA0200FBA80200DF
:1040B00070B588B0002403900020FFF70FFE0120A8
:1040C000FFF742FECDE905440794FFF767FE05467A
:1040D00020B911481DF0DEF808B070BD4FF48073B0
:1040E000ADF818300D4B1B680593039B01261B0A86
:1040F0008DF8133022460DF1130305A90096FFF742
:1041000035FE009603AB224605A92846FFF72EFE92
:104110003046FFF7E3FDDFE7AAAA02006C73020056
:104120002DE9F04104461E46084602F114030F3102
:104130001CF0ECFE20465F2C0C4C4FF02A0328BFED
:104140005F2003FB0044E71814F8018B002508FAF0
:1041500005F31B0654BF069830460135FFF7A8FF4C
:10416000082DF4D1A742EFD1BDE8F081B4080020BA
:1041700070B517481AF098FE064630B9154814492C
:104180001DF088F84FF0FF3070BD04211CF0AFFF28
:10419000044638B1042310480D4A21461DF07AF830
:1041A00020B2F1E70A481AF07FFE05460028E5D064
:1041B00003211CF09CFF044608B10323EBE70748EA
:1041C0001DF068F8064B1E60064B20461D60DBE7BD
:1041D000D0A70200DFA90200F6A9020026AA020069
:1041E000A0D40020A4D4002038B50B4D4FF47A742D
:1041F0002868012204211CF08AFFFA2022F000FB2B
:104200002868002204211CF082FFFA2022F0F8FA2C
:10421000013CEDD1012038BDA0D4002010B5094CDF
:1042200003460122206803214BB11CF070FF0021DE
:104230004FF400501BF0AEFC2068002203211CF05C
:1042400066FF10BDA4D4002030B50A4C0A44914248
:1042500000D130BD11F8013B58400309E35C83EA0B
:104260000013DDB2C3F30313E05C80EA0510C0B2B3
:10427000EDE700BF06AB02000B6801330B60014B9A
:104280001B68184754020020014B1860704700BF9C
:104290005402002007B50B46002102460191034855
:1042A00001A900F0F9F803B05DF804FB79420000C1
:1042B00030B585B0CDE901010446002501A90548C6
:1042C000039500F0E9F8DDE902309842B8BF2554C3
:1042D00005B030BD6F1202002DE9F84FB0F818900C
:1042E00019F00808044693460DD001290CBF49F087
:1042F000100949F02009A0F818908BF31188BFF33A
:104300006F8FBDE8F88F09F00709022907D1204611
:104310001CF0DAFF0028F0D00128238B4ED167690A
:10432000218B002F15DA256821F00701C4E90088E8
:1043300041F0010121830026218B01F0070ACA45C3
:1043400002D0A368002B5AD10DB9002E71D00023E2
:1043500056E001F007035A1F012A1ED821F0070179
:10436000062B256889B2C4E900880AD13DB1638B68
:104370002A46126801339BB2002AFAD1638341F0C6
:104380000201218320461CF09FFF06460028D3D05F
:10439000238B43F020032383CDE7042B0CD121F0A2
:1043A000070189B2218320461CF08EFF05460028B4
:1043B000C1D041F0200121830025BCE7032809D1A9
:1043C000226923F00703166843F0060323830025C0
:1043D0002F46B1E7042806D1226923F00703566867
:1043E00043F00403F2E7052806D1226923F007030E
:1043F000966843F00503E9E700252E46E8E7012328
:1044000041F0080121838BF31188BFF36F8FFBB953
:1044100085BB16B11F492046B0474FF02003EFF38C
:10442000118B83F31188BFF36F8F238B23F0080365
:104430002383238BDA0625D523F010032383012160
:10444000B4F8189009F0070900297FF45EAF54E72B
:10445000A1680029DCD0D1F80090D1F804B03B4627
:1044600052462046D847B9F1000FD1D04946D9F875
:104470000090F2E729463B46524620462D681CF044
:104480003FFFC5E713F020011EBF23F02003238365
:104490000221D5E72D1302002DE9F04F91B08B4694
:1044A000029092461C4600259AF8000008B928465A
:1044B0005FE325280AF1010707D0029B5946984778
:1044C0000028C0F25683013512E2182200210AA802
:1044D0001FF07EFB9AF80130252B78D00022104681
:1044E000964694461646394617F8013B2B2B00F0AA
:1044F0009D8000F29480202B00F09B80232B00F005
:104500009B802EB19DF8306046F004068DF8306037
:10451000BCF1000F05D09DF8306046F008068DF81C
:104520003060BEF1000F05D09DF8306046F01006F7
:104530008DF8306028B19DF8300040F020008DF8F3
:1045400030002AB19DF8302042F040028DF8302032
:104550009DF8302002F04400442803D16FF3861206
:104560008DF830209DF830202A2B42F080028DF803
:1045700030207BD19DF8312042F001024B1C8DF898
:1045800031201A782E2A9DF831200CBF01210021FC
:1045900061F341028DF8312074D15A782A2A6AD009
:1045A000013300210A26184610F8012BA2F130072A
:1045B000092F40F28E809DF830200E91C2F340000A
:1045C00040EAD17161F341028DF830205AE00AF1DE
:1045D00002078DF833309DF83130D90740F1498119
:1045E00054F8049BB9F1000F07DA9DF8302042F02F
:1045F00004028DF83020C9F100095A0740F14281C8
:1046000054F8048BB8F1000F80F241819DF83130ED
:104610006FF341038DF831304FF0FF3837E12D2B28
:104620000CD0302B7FF46DAF01225CE74FF0010C12
:1046300059E74FF0010E56E7012054E7012652E7F3
:104640000CFB0202303A33461E4616F8010BA0F16D
:104650003007092FF4D9994293D09DF830100D926C
:10466000D20F62F341018DF830108AE70B46002229
:104670004FF00A0CE8E79DF8312042F004028DF873
:10468000312002331F4617F8012B6C2A41D025D860
:10469000682A2BD06A2A46D04C2A4CD01F4617F8DD
:1046A000012B9DF831308DF83320782A00F2D98023
:1046B000572A4DD8412A03D0453A022A00F2D18028
:1046C0009DF83230042262F302038DF83230012368
:1046D0009EE006FB01213039034664E7742A26D0A8
:1046E0007A2ADBD19DF8313006220DE05A78682A0B
:1046F0009DF8312006D1012161F3C6028DF83120E9
:104700009F1CCCE71346022262F3C6038DF83130BA
:10471000C5E75A786C2A9DF8312001D10421EBE7D6
:1047200013460322F0E79DF831300522ECE79DF8AF
:1047300031300722E8E7BDF8303023F4F04323F0AE
:10474000020343F4804343F00203ADF83030A6E7A0
:10475000A2F15801202900F2848001A050F821F034
:1047600025480000634800006348000063480000DB
:10477000634800006348000063480000634800008D
:1047800063480000C146000063480000254800005F
:10479000E5470000C1460000C1460000C1460000D8
:1047A00063480000E54700006348000063480000DC
:1047B00063480000634800002D48000025480000C1
:1047C0004948000063480000634800004948000071
:1047D000634800002548000063480000634800006B
:1047E000254800009DF83210012003F0780360F3A3
:1047F0000201402B8DF8321002BF9DF8301041F0BD
:1048000001018DF83010632A31D1003B18BF01231C
:104810009DF83020C2F340010B4363F341028DF851
:104820003020D8E69DF832100220DEE79DF83220D5
:1048300003F07803A3F14000032161F30202434235
:104840008DF832204341E3E79DF83220032113F035
:10485000780F61F302028DF8322014BF0123002388
:10486000D6E79DF8303043F001038DF83030002357
:10487000CEE79DF93020002AB4BFDDF834904FF028
:10488000FF39BAE69B077FF5C7AEDDF838809DF8A3
:1048900031100023CDE90D339DF8323003F00703CA
:1048A000012BC1F3C30138D1CB1E042B22D8DFE882
:1048B00003F003090921210054F8043BDA17CDE97C
:1048C0000A3206E0073424F00704F4E80223CDE9B5
:1048D0000A239DF8303013F0030656D002983B4669
:1048E000524659461DF0E3F80028C0F242810544C3
:1048F000BA46D9E554F8043B01294FEAE372CDE901
:104900000A3205D19DF828300A9300230B93E0E783
:104910000229DED1BDF92830D0E7022B23D1CB1EEE
:10492000042B13D8DFE803F0030A0A1212002268EE
:104930000A920023201D0B930446CAE7E01D20F0D5
:104940000700F0E80223CDE90A23F5E754F8043B19
:104950000A9301294FF000030B93D3D00229B8D159
:10496000BDF82830D0E7042B09D1E31D23F007035D
:1049700003F10804D3E90023CDE90A23A9E7032BB7
:1049800004BF54F8043B0A93A3E79DF8330078284A
:10499000AED8622822D825283FF48FAD5828A7D159
:1049A0000DF126030093DDE90A0104AB0CAA1DF00A
:1049B00038F88246B8F1000F0DF126000CDB9DF8A7
:1049C0003020A0EB0A036FF3861298458DF8302053
:1049D00002D9A8EB03030D9380463DE06338152808
:1049E00086D801A252F820F0694A0000CD4A0000A2
:1049F000F1480000F1480000F1480000F1480000D3
:104A0000CD4A0000F1480000F1480000F1480000E4
:104A1000F1480000274B0000F54A0000F94A000069
:104A2000F1480000F1480000414A0000F148000050
:104A3000F54A0000F1480000F1480000F54A000086
:104A4000B8F1000FDDF828A00ADB414650461FF000
:104A50005DF80AEB00080026BAF1000F0CD147E719
:104A600050461FF04CF8F4E70A9B8DF810300026F2
:104A70000DF1100A0DF11108A8EB0A0306B101337C
:104A80009DF83220D00668D5023352060D9948BFF2
:104A90000E9A0B4448BF9B18B9F1000F76DD9DF8C4
:104AA0003020A9EB0309C2F38003039353076DD4AD
:104AB000500661D546B1029B5946304698470028BA
:104AC00057DB039B01351E46302356E01E070FD4EB
:104AD00013F0100618BF2026DDE90A23002BBFF6CD
:104AE0005FAF524263EB4303CDE90A232D2657E71C
:104AF0002B26F1E7002653E70A9840B30DF1260371
:104B000000930CAA04AB00211CF08BFFBDF83230DF
:104B100003F0EF0343F4F04343F010038246ADF893
:104B20003230002646E70A9B07293FF6E1AEDFE870
:104B300001F00C04060C08080C0C1D70D8E61D8052
:104B4000D6E6EA17C3E90052D2E61D60D0E6DFF8E8
:104B5000C8A006460AF105088EE7110748BF0133D1
:104B600093E7184603935946029B98470028039BF6
:104B700004DA11B0BDE8F08F20234D444A46002AE4
:104B8000A5EB090109F1FF39EBDC0D4636B1029BBB
:104B90005946304698470028EBDB01359DF8323006
:104BA000D90601D41A0706D5029B594630209847EA
:104BB0000028DEDB01359DF83230DB0607D59DF895
:104BC0003300029B594698470028D2DB01350D9EE1
:104BD0002E44731B002B16DC02984346524659465E
:104BE0001CF065FF0028C4DB0544A944A9EB0503BC
:104BF000002B7FF77DAE029B594620209847002866
:104C0000B7DB0135F2E7029B594630209847002870
:104C1000AFDB0135DDE700BF16AB020030B5104950
:104C2000104889B0002221F0DDFE0F4D0F4900220F
:104C30000023CDE9062300240E23CDE90334CDE97A
:104C400001440B4B00944FF4407228461BF05AF875
:104C50000849284621F0D8FD204609B030BD00BFE4
:104C6000794C000060A4002098A4002040FE0020A1
:104C7000D14F00001CAB020001481AF0ABBF00BFCF
:104C8000A09F002008B500F067FA09481CF026FF35
:104C9000042328220749084821F0B7FB074B084A9C
:104CA0001A604FF40040BDE8084000F09DBC00BF12
:104CB000B4D40020F8290120BCD4002058020020E0
:104CC0001B1B0200F8B50F4BBFF35B8F002553E8A9
:104CD000007F43E80052002AF9D1BFF35B8F0A4CF2
:104CE0000A4E361B3611B54200DBF8BD63685B79AE
:104CF0002BB12368DB6813B139462046984701354C
:104D00001034F0E7ACD40020307102005071020082
:104D1000064BBFF35B8F53E8002F013243E80021BD
:104D20000029F8D1BFF35B8F704700BFACD40020DF
:104D3000044A054B9B1AB1EBD30F34BF52F8310034
:104D400000207047C86F020030710200094A4368B2
:104D5000801A10B50011084C196001300122187139
:104D60005A71237813B905481AF034FF01232370D0
:104D700010BD00BF3071020026ED0020A09F002072
:104D800070B5114BBFF35B8F53E8005F6A1C43E8BB
:104D900000210029F8D1BFF35B8F2DB90B4C0C4ECD
:104DA000361B3611B54200DB70BD237B43B123684F
:104DB0005B6903B19847042200212046FFF7C6FF34
:104DC00001351034EEE700BFB0D40020307102008E
:104DD00050710200164B984237B5044602D3154B6A
:104DE000984220D314480022002301A91AF024FA83
:104DF0000546D8B90122019BBFF35B8F53E8001F22
:104E000043E800200028F9D1BFF35B8F01982146C9
:104E10001F2204301EF061FE019C7E2384F82330A3
:104E200084F824500434204603B030BD034CFAE724
:104E3000EC6C020060D00200BCD4002024AB020065
:104E400048B1054B984205D3A03398422CBF0020AF
:104E50000120704700207047F82901202DE9F04F0C
:104E60004D4B1B7885B0044603B960B34FF0200367
:104E7000EFF3118683F31188BFF36F8F47481CF05F
:104E80003DFE054686F31188BFF36F8F78B1BFF3FF
:104E90005B8F434B53E8002F013A43E80021002980
:104EA000F8D1BFF35B8F94B128461CF040FF24B9C2
:104EB0003C4B1B680BB1FFF705FF38481CF01CFE8C
:104EC000041E18BF0124204605B0BDE8F08F364B04
:104ED0001B78E3B92B7ADB0719D41CF03BFF07469C
:104EE00028461CF002FF014638461CF01AFEDFF887
:104EF000BC802F4BDFF8BCB0A3EB0803DB080393A7
:104F00002D4BA3EB080306464FEAD30A36B92B4EC6
:104F10002B4FBF1B3F114FF000083AE0B6FA86F165
:104F2000C1F11F09494628461CF0E2FE254B984274
:104F3000014602D3244A90421AD30846FFF780FF65
:104F40000246A8B9214B994212D06B890399C3F349
:104F500089138B4238BF58F833204FEA8A1343F045
:104F60000103ADF8003049463B4658461CF033FE7D
:104F7000012303FA09F126EA0106C7E773685B79A2
:104F800023B1336829461B683046984708F1010869
:104F90001036B845F2DB87E726ED0020B4D40020B8
:104FA000A8D40020ACD4002027ED0020C86F020058
:104FB000307102003EAB0200E87002003071020066
:104FC00050710200EC6C020060D0020024AB0200C1
:104FD00010B5FFF7D5FE1AF0F7FD0C4B186030B195
:104FE0000B4B1B68092B02DD0A481AF0F3FD094C34
:104FF0000020FFF733FF0028FAD14FF0FF324FF0C7
:10500000FF3320461AF00CFEF2E700BFD8D4002090
:10501000A8D40020A09F0020294B73B51B684181B4
:1050200004469847274DE060BFF35B8F55E8003F8B
:10503000013345E80032002AF8D1BFF35B8F4FF00F
:105040002003EFF3118683F31188BFF36F8F1E489F
:1050500021461CF047FD86F31188BFF36F8F1B4B71
:105060001B7883B14FF02003EFF3118483F3118891
:10507000BFF36F8F0020FFF7F1FE84F31188BFF3B9
:105080006F8F02B070BD124A2B681268002AF8D0E8
:10509000012B0AD100220023CDE900230D484FF453
:1050A000004200231BF0BEF8EBE70A2BE9D10948C8
:1050B00021F0A4FC084802B0BDE870401AF08ABD97
:1050C00058020020A8D40020B4D4002027ED0020EE
:1050D000D8D4002060A40020A09F0020F8B50E4F77
:1050E0003D7875B90D4C0E4EFFF74AFE361B361152
:1050F000B54207DB0020FFF7B1FE0028FAD10123FB
:105100003B70F8BD63685B791BB1236820461B695F
:10511000984701351034EBE727ED0020307102008D
:105120005071020007B504380190BFF35B8F50E85F
:10513000003F5A1E40E800210029F8D1BFF35B8FE1
:10514000012B03D1034801A91AF0A6F803B05DF8BA
:1051500004FB00BFBCD400202023024902481A46A9
:1051600021F053B9982A0120DCD4002037B5002360
:10517000094D01930120FFF771FE0446FFF7C8FDBA
:105180000022002301A928461AF056F808B1002C85
:10519000F0D1019803B030BDDCD4002007B5002366
:1051A000019307480022002301A91AF045F810B125
:1051B000FFF7DCFF0190019803B05DF804FB00BF2E
:1051C000DCD40020F0B5037A85B0DC0701901ED452
:1051D000457A2D091BD000242646019831461CF043
:1051E00087FD0746FFF72CFE70B134B9019B2946B5
:1051F00018691CF096FC044648B124FA06F3D90756
:1052000002D53846FFF78EFF0136AE42E5D3019B4B
:105210001A7A920704D55B69084C0393039B2BB958
:10522000064801A91AF038F805B0F0BD1D6803A9B9
:1052300020461AF031F80395F0E700BFDCD40020D7
:105240000EB403B503AB014653F8042B0448019395
:10525000FFF722F902B05DF804EB03B0704700BF1E
:105260000D2102002DE9F0471D46089B1746DA067E
:1052700004460E4605D499064CBF2A492A49FFF731
:10528000DFFFDFF8A8904FF00008A8452ADBDFF821
:10529000A080DFF8A090DFF894A00025BD422FD2B7
:1052A000725D49462046FFF7CBFF0135102D20D116
:1052B0002149DFF87880DFF884902046FFF7C0FFAF
:1052C0000025AF4228D9725DA2F120035F2B28BFD1
:1052D0002E2249462046FFF7B3FF0135102D14D189
:1052E000BDE8F08749462046FFF7AAFF08F101080C
:1052F000CBE76A07D2D151462046FFF7A1FFCDE7A1
:1053000041462046FFF79CFFCFE76B07D9D14146C6
:105310002046FFF795FFD4E741462046FFF790FF70
:10532000DBE700BF538B02003F8E02009CA6020009
:1053300087AB020081AB02008BAB02008DAB020099
:105340002DE9F04F85B011F0020490469DF83870B9
:1053500006461A4601F0010901F0080506D011F0D1
:10536000440F36D13249FFF76BFF0446B9F1000F05
:105370000AD0304B304953F82720304B3046002AB2
:1053800008BF1A46FFF75CFF3DB12D4B2D4953F87E
:1053900027203046FFF754FF0546B8F1000F44D0F0
:1053A000012303FA07F7284B17F0100F274F18BFF8
:1053B0001F46BDF840109DF83C00FFF7B9FC394688
:1053C00002463046FFF73CFF2844204405B0BDE8C4
:1053D000F08F1F4B196831B31E4B4FF4616C1B6883
:1053E000B2FBF3F34FF47A7BB3FBF1F4B4FBFCF2C2
:1053F0000CFB124C01FB14340BFB04F44FF03C0E7D
:10540000B4FBF1FA01FB1A440BFB04F4BCFBFEF302
:10541000B4FBF1F1CDE901A10EFB13C100910E49DE
:10542000FFF70EFFA1E708469FE7084FC1E700BF5F
:105430009EAB020070730200EABB020090AB020058
:1054400084730200C3AB02009AAB020095AB02006A
:10545000F8D40020FCD40020A7AB020038B50C46DD
:10546000E107054603D5084A0849FFF7E9FEE206C9
:1054700008D4A30628464CBF05490649BDE8384074
:10548000FFF7DEBE38BD00BF90AB0200EABB0200F2
:10549000538B02003F8E02002DE9F0478B7A13F008
:1054A00007088AB005460E46174622D00A7A49896F
:1054B000C3F3C203C1F38911D243CDE90083029142
:1054C000F36802F001023946FFF73AFF8146347A69
:1054D000E44314F001040ED0294630461CF0ACFC25
:1054E000B8F1000F2BD0424639462846FFF7B6FFE9
:1054F00025E0C146EBE7B8F1000F26D12746EB685F
:10550000069306AA3B46A96830461CF081FC069A21
:105510006B681A603AB1AB68134413F8014CA4F1FC
:105520000A035C425C4128461CF0E3FD069B1F44D5
:10553000002BE4D11CB114492846FFF781FE284610
:105540000AB0BDE8F0471CF0D4BD30461CF002FCA8
:105550000E4902462846FFF773FE4FF0100A05AACF
:10556000234606A93046CDF814A01CF051FC059A3C
:10557000002AB8D04B46009706A92846FFF772FECE
:10558000059B1C44EBE700BFC9AB0200EABB02006D
:1055900073B542F20F738B4228BF0B4605680F4A62
:1055A0000446052168461BF082FE63680C495B686F
:1055B00006460B2228461CF032FC636832466946D8
:1055C00028465B681CF02BFC636806495B681B225D
:1055D00028461CF024FC02B070BD00BFDDB60200FE
:1055E00007AC0200EBAB0200084A10B50123084CDF
:1055F00013600021A04204D801B11360054B18606C
:1056000010BD40085B000121F4E700BFFCD400207E
:1056100040420F00F8D40020F8B5074F0D4604466D
:105620004618B44201D12846F8BD386814F8011B69
:1056300083685B689847F4E714D5002001481CF0A4
:1056400058BD00BFB07302000148FFF7A1BF00BF03
:10565000B073020008B5034819F026FC024B18602D
:1056600008BD00BF13AC020014D5002010B50846D9
:105670000C461CF02DFB054821460F22FFF70CFFBE
:105680002046BDE810401CF052BB00BFB0730200C2
:10569000014B01221A70704739ED0020024B03487C
:1056A00001221A701CF025BD3AED0020D8730200CB
:1056B0000148FFF76DBF00BFD873020010B5084660
:1056C0000C461CF005FB054821460F22FFF7E4FEBF
:1056D0002046BDE810401CF02ABB00BFD873020072
:1056E000054B1B781BB141F2883021F089B8A4200A
:1056F00000211AF04FBA00BF3AED00202DE9F04723
:10570000DFF88880DFF888A007460E46042498F862
:10571000003033B94FF0FF324FF0FF33504619F0ED
:10572000E7FD32463946002001F0F4F998F80030E0
:10573000814613B9504619F04DFE164DB9F1000FD0
:1057400018D001232B7098F8003033B93046BDE8EB
:10575000F0875CB92C704FF0FF34002001F026FA7E
:105760000028F3D02B78002BF3D1EFE7013CFFF7B3
:10577000B7FFF2E72B7813B1013C04D12C702B78E2
:10578000002BC4D1E2E7FFF7ABFFF8E73AED0020CA
:10579000609F002039ED0020024B01221A7000208A
:1057A000704700BF3DED00201FB501240294044C5A
:1057B0000194BDF8184000941FF02DFD04B010BDF9
:1057C0003DED0020074B084A0848D21AD208084B82
:1057D0009201012914BF0146194642F0030205480F
:1057E0001CF0CCB9C86F0200D0700200DA89020048
:1057F000D28902003BAC020010B50D4C86B00623E6
:10580000607018220021684623701EF0E1F9094BF0
:105810006946CDE9013400200223ADF80C3007F0D1
:105820009BFF10F1390F08BF002006B010BD00BF6C
:105830003BED0020FC7302002DE9F7430E46804645
:105840000821C06ADFF84C901CF022FD3468241A4D
:105850000746346004EA0905AC4203D8002003B0CF
:10586000BDE8F08308236A46214640461CF06CFCE4
:105870000028F4D168461CF0EBFC40B9BDF80230BA
:10588000BDF80420346005EA090513441D44E41BF7
:10589000E2E700BF0000FFFF2DE9F04F044693B0A0
:1058A000C06A08211CF0F4FC63681B0C1B048046D2
:1058B00001A9E08901931CF0E0FC019BA189194436
:1058C000A1EB0801082304AA204602911CF03CFC2D
:1058D0000028C0F28380E36A04AA1979002312F831
:1058E000010B81426CD10133082BF8D1019920467C
:1058F0001CF087FC72E0029BBDF812201B0C1B04FD
:1059000013440293DFF8DCA0DDF8089006AA02A990
:1059100020461CF0C7FC002860D106A81CF098FCAB
:1059200080BB6368039308AA03A92046039D1CF06B
:10593000B9FC002852D1BDF82020BDF818309A4299
:1059400023D06268039B9A42EDD14D451AD1BDF830
:105950001C30BBB1BDF81A3009EA0A061E4406A87D
:10596000A368ADF81A301CF07FFCE36ABDF81C7028
:105970001D686D4205F020056FB906A920461CF090
:105980003FFD58BBC145BFD1B0E708A81CF060FC83
:105990000028D6D1D9E7BD42AB4628BFBB465B46FF
:1059A0000AAA314620461CF0CFFBB8B95A460AA9CC
:1059B00020461CF012FD88B9A7EB0B075E44DBE71D
:1059C0000298A0EB080804A81CF042FC002892D022
:1059D00002A92046FFF730FF002893D013B0BDE89E
:1059E000F08F00BF0000FFFF2DE9F047044686B0AE
:1059F0000D4600F11406304620F02AFD284619F025
:105A000053FAA06278B9A24BA249A348C91AC9089F
:105A1000890141F001011CF0A4F86FF0050528464A
:105A200006B0BDE8F08783681B699847E06260B9FB
:105A30009849974B9948C91AC908890141F0010151
:105A40001CF08FF86FF01505E9E7A06A83681B6901
:105A500098470368013B1F2B08D98E498C4B90480F
:105A6000C91AC908890141F00101E9E7A06A216862
:105A700003AA20F09DFA40B18649854B8948C91A8E
:105A8000C908890141F00101DAE7A5892DB1049B1C
:105A9000B5FBF3F203FB125545B17E497C4B8248BE
:105AA000C91AC908890141F00101C9E7E389012B3D
:105AB00008D87849764B7D48C91AC908890141F050
:105AC0000101BDE7E36A009593F804904FF0FF33BE
:105AD0004FF0FF32304619F00BFCE06A08211CF051
