:1000000020170120A1710000F1390200D171000018
:10001000D1710000D1710000D1710000000000001A
:10002000000000000000000000000000016F000060
:10003000D171000000000000AD6E0000AB2702008F
:1000400061710000ADA101006171000061710000EB
:100050006171000061710000617100006171000058
:100060006171000061710000617100006171000048
:100070006171000061710000617100006171000038
:100080006171000061710000617100006171000028
:100090006171000061710000617100006171000018
:1000A0006171000061710000617100006171000008
:1000B00061710000617100006171000061710000F8
:1000C00061710000617100006171000061710000E8
:1000D00061710000617100006171000061710000D8
:1000E00061710000617100006171000061710000C8
:1000F00061710000617100006171000061710000B8
:1001000081F0004102E000BF83F0004330B54FEAC8
:1001100041044FEA430594EA050F08BF90EA020F35
:100120001FBF54EA000C55EA020C7FEA645C7FEAC8
:10013000655C00F0E2804FEA5454D4EB5555B8BFEB
:100140006D420CDD2C4480EA020281EA030382EA5C
:10015000000083EA010180EA020281EA0303362DEE
:1001600088BF30BD11F0004F4FEA01314FF4801CC1
:100170004CEA113102D0404261EB410113F0004FD3
:100180004FEA03334CEA133302D0524263EB43038A
:1001900094EA050F00F0A780A4F10104D5F1200E28
:1001A0000DDB02FA0EFC22FA05F2801841F1000183
:1001B00003FA0EF2801843FA05F359410EE0A5F157
:1001C00020050EF1200E012A03FA0EFC28BF4CF088
:1001D000020C43FA05F3C01851EBE37101F000453E
:1001E00007D54FF0000EDCF1000C7EEB00006EEB4B
:1001F0000101B1F5801F1BD3B1F5001F0CD34908D5
:100200005FEA30004FEA3C0C04F101044FEA44522B
:1002100012F5800F80F09A80BCF1004F08BF5FEAB2
:10022000500C50F1000041EB045141EA050130BD92
:100230005FEA4C0C404141EB0101013C28BFB1F5A4
:10024000801FE9D291F0000F04BF01460020B1FAEF
:1002500081F308BF2033A3F10B03B3F120020CDAC2
:100260000C3208DD02F1140CC2F10C0201FA0CF0A0
:1002700021FA02F10CE002F11402D8BFC2F1200C05
:1002800001FA02F120FA0CFCDCBF41EA0C019040BB
:10029000E41AA2BF01EB0451294330BD6FEA040404
:1002A0001F3C1CDA0C340EDC04F11404C4F12002EF
:1002B00020FA04F001FA02F340EA030021FA04F301
:1002C00045EA030130BDC4F10C04C4F1200220FA58
:1002D00002F001FA04F340EA0300294630BD21FA96
:1002E00004F0294630BD94F0000F83F4801306BF5C
:1002F00081F480110134013D4EE77FEA645C18BF50
:100300007FEA655C29D094EA050F08BF90EA020FE6
:1003100005D054EA000C04BF1946104630BD91EADE
:10032000030F1EBF0021002030BD5FEA545C05D1E1
:100330004000494128BF41F0004130BD14F5800420
:100340003CBF01F5801130BD01F0004545F0FE4194
:1003500041F470014FF0000030BD7FEA645C1ABFC9
:10036000194610467FEA655C1CBF0B46024650EA00
:10037000013406BF52EA033591EA030F41F400212C
:1003800030BD00BF90F0000F04BF0021704730B5B2
:100390004FF4806404F132044FF000054FF0000187
:1003A00050E700BF90F0000F04BF0021704730B548
:1003B0004FF4806404F1320410F0004548BF40421D
:1003C0004FF000013EE700BF42004FEAE2014FEA72
:1003D00031014FEA02701FBF12F07F4393F07F4F4D
:1003E00081F06051704732F07F4208BF704793F050
:1003F0007F4F04BF41F40021704730B54FF4607463
:1004000001F0004521F000411CE700BF50EA010265
:1004100008BF704730B54FF000050AE050EA01020E
:1004200008BF704730B511F0004502D5404261EB7E
:1004300041014FF4806404F132045FEA915C3FF4BF
:10044000D8AE4FF003025FEADC0C18BF03325FEA5C
:10045000DC0C18BF033202EBDC02C2F1200300FA0D
:1004600003FC20FA02F001FA03FE40EA0E0021FA32
:1004700002F11444BDE600BF70B54FF0FF0C4CF420
:10048000E06C1CEA11541DBF1CEA135594EA0C0FD2
:1004900095EA0C0F00F0DEF82C4481EA030621EA0D
:1004A0004C5123EA4C5350EA013518BF52EA033548
:1004B00041F4801143F4801338D0A0FB02CE4FF0FA
:1004C0000005E1FB02E506F00042E0FB03E54FF02A
:1004D0000006E1FB03569CF0000F18BF4EF0010E22
:1004E000A4F1FF04B6F5007F64F5407404D25FEA1E
:1004F0004E0E6D4146EB060642EAC62141EA5551D1
:100500004FEAC52040EA5E504FEACE2EB4F1FD0C12
:1005100088BFBCF5E06F1ED8BEF1004F08BF5FEA90
:10052000500E50F1000041EB045170BD06F0004642
:1005300046EA010140EA020081EA0301B4EB5C04EF
:10054000C2BFD4EB0C0541EA045170BD41F48011E7
:100550004FF0000E013C00F3AB8014F1360FDEBF0C
:10056000002001F0004170BDC4F10004203C35DAE8
:100570000C341BDC04F11404C4F1200500FA05F36B
:1005800020FA04F001FA05F240EA020001F000420C
:1005900021F0004110EBD37021FA04F642EB060182
:1005A0005EEA430E08BF20EAD37070BDC4F10C04AC
:1005B000C4F1200500FA04F320FA05F001FA04F270
:1005C00040EA020001F0004110EBD37041F100015C
:1005D0005EEA430E08BF20EAD37070BDC4F1200567
:1005E00000FA05F24EEA020E20FA04F301FA05F2CF
:1005F00043EA020321FA04F001F0004121FA04F277
:1006000020EA020000EBD3705EEA430E08BF20EA46
:10061000D37070BD94F0000F0FD101F00046400080
:1006200041EB010111F4801F08BF013CF7D041EA02
:10063000060195F0000F18BF704703F00046520006
:1006400043EB030313F4801F08BF013DF7D043EAD7
:100650000603704794EA0C0F0CEA135518BF95EA8D
:100660000C0F0CD050EA410618BF52EA4306D1D114
:1006700081EA030101F000414FF0000070BD50EA33
:10068000410606BF1046194652EA430619D094EABD
:100690000C0F02D150EA013613D195EA0C0F05D1A7
:1006A00052EA03361CBF104619460AD181EA0301FB
:1006B00001F0004141F0FE4141F470014FF00000B3
:1006C00070BD41F0FE4141F4780170BD70B54FF04E
:1006D000FF0C4CF4E06C1CEA11541DBF1CEA1355CE
:1006E00094EA0C0F95EA0C0F00F0A7F8A4EB0504B0
:1006F00081EA030E52EA03354FEA013100F08880A7
:100700004FEA03334FF0805545EA131343EA12636F
:100710004FEA022245EA111545EA10654FEA002624
:100720000EF000419D4208BF964244F1FD0404F5DD
:10073000407402D25B084FEA3202B61A65EB030539
:100740005B084FEA32024FF480104FF4002CB6EBF6
:10075000020E75EB030E22BFB61A754640EA0C0076
:100760005B084FEA3202B6EB020E75EB030E22BFB6
:10077000B61A754640EA5C005B084FEA3202B6EBF7
:10078000020E75EB030E22BFB61A754640EA9C00B6
:100790005B084FEA3202B6EB020E75EB030E22BF86
:1007A000B61A754640EADC0055EA060E18D04FEA44
:1007B000051545EA16754FEA06164FEAC30343EAE4
:1007C00052734FEAC2025FEA1C1CC0D111F4801FB1
:1007D0000BD141EA00014FF000004FF0004CB6E7AA
:1007E00011F4801F04BF01430020B4F1FD0C88BF49
:1007F000BCF5E06F3FF6AFAEB5EB030C04BFB6EB54
:10080000020C5FEA500C50F1000041EB045170BD46
:100810000EF0004E4EEA113114EB5C04C2BFD4EB73
:100820000C0541EA045170BD41F480114FF0000EF7
:10083000013C90E645EA060E8DE60CEA135594EA73
:100840000C0F08BF95EA0C0F3FF43BAF94EA0C0F76
:100850000AD150EA01347FF434AF95EA0C0F7FF4EB
:1008600025AF104619462CE795EA0C0F06D152EA3F
:1008700003353FF4FDAE1046194622E750EA410623
:1008800018BF52EA43067FF4C5AE50EA41047FF434
:100890000DAF52EA43057FF4EBAE12E74FEA410297
:1008A00012F5001215D211D56FF47873B3EB6252C2
:1008B00012D94FEAC12343F0004343EA505311F0E9
:1008C000004F23FA02F018BF404270474FF000007B
:1008D000704750EA013005D111F0004008BF6FF0B9
:1008E000004070474FF00000704700BF4FEA4102E0
:1008F000B2F1E04324BFB3F5001CDCF1FE5C0DD97E
:1009000001F0004C4FEAC0024CEA5070B2F1004FC7
:1009100040EB830008BF20F00100704711F0804FCA
:1009200021D113F13872BCBF01F00040704741F48F
:1009300080114FEA5252C2F11802C2F1200C10FA93
:100940000CF320FA02F018BF40F001004FEAC12377
:100950004FEAD32303FA0CFC40EA0C0023FA02F31B
:100960004FEA4303CCE77FEA625307D150EA0133F1
:100970001EBF4FF0FE4040F44000704701F00040C1
:1009800040F0FE4040F40000704700BF80F000409F
:1009900002E000BF81F0004142001FBF5FEA410357
:1009A00092EA030F7FEA226C7FEA236C6AD04FEA57
:1009B0001262D2EB1363C1BFD2184140484041409C
:1009C000B8BF5B42192B88BF704710F0004F40F44E
:1009D000000020F07F4018BF404211F0004F41F46A
:1009E000000121F07F4118BF494292EA030F3FD036
:1009F000A2F1010241FA03FC10EB0C00C3F1200349
:100A000001FA03F100F0004302D5494260EB4000D7
:100A1000B0F5000F13D3B0F1807F06D340084FEA42
:100A2000310102F10102FE2A51D2B1F1004F40EB37
:100A3000C25008BF20F0010040EA0300704749009F
:100A400040EB0000013A28BFB0F5000FEDD2B0FA3C
:100A500080FCACF1080CB2EB0C0200FA0CF0AABF5F
:100A600000EBC25052421843BCBFD04018437047FD
:100A700092F0000F81F4000106BF80F40000013203
:100A8000013BB5E74FEA41037FEA226C18BF7FEADA
:100A9000236C21D092EA030F04D092F0000F08BF1C
:100AA0000846704790EA010F1CBF0020704712F003
:100AB0007F4F04D1400028BF40F00040704712F142
:100AC00000723CBF00F50000704700F0004343F0A7
:100AD000FE4040F4000070477FEA226216BF0846DD
:100AE0007FEA23630146420206BF5FEA412390EAA0
:100AF000010F40F4800070474FF0000304E000BF96
:100B000010F0004348BF40425FEA000C08BF704746
:100B100043F0964301464FF000001CE050EA01020A
:100B200008BF70474FF000030AE000BF50EA01021F
:100B300008BF704711F0004302D5404261EB41010C
:100B40005FEA010C02BF84460146002043F0B64331
:100B500008BFA3F18053A3F50003BCFA8CF2083A56
:100B6000A3EBC25310DB01FA02FC634400FA02FC5F
:100B7000C2F12002BCF1004F20FA02F243EB020066
:100B800008BF20F00100704702F1200201FA02FCC8
:100B9000C2F1200250EA4C0021FA02F243EB0200BB
:100BA00008BF20EADC7070474FF0FF0C1CEAD052FF
:100BB0001EBF1CEAD15392EA0C0F93EA0C0F6FD0C0
:100BC0001A4480EA010C400218BF5FEA41211ED09E
:100BD0004FF0006343EA501043EA5111A0FB01318A
:100BE0000CF00040B1F5000F3EBF490041EAD3715F
:100BF0005B0040EA010062F17F02FD2A1DD8B3F1DB
:100C0000004F40EBC25008BF20F00100704790F049
:100C1000000F0CF0004C08BF49024CEA502040EA9B
:100C200051207F3AC2BFD2F1FF0340EAC250704761
:100C300040F400004FF00003013A5DDC12F1190F9F
:100C4000DCBF00F000407047C2F10002410021FA11
:100C500002F1C2F1200200FA02FC5FEA310040F129
:100C6000000053EA4C0308BF20EADC70704792F0A2
:100C7000000F00F0004C02BF400010F4000F013ADA
:100C8000F9D040EA0C0093F0000F01F0004C02BFD5
:100C9000490011F4000F013BF9D041EA0C018FE744
:100CA0000CEAD15392EA0C0F18BF93EA0C0F0AD04A
:100CB00030F0004C18BF31F0004CD8D180EA010070
:100CC00000F00040704790F0000F17BF90F0004F09
:100CD000084691F0000F91F0004F14D092EA0C0FEB
:100CE00001D142020FD193EA0C0F03D14B0218BF7E
:100CF000084608D180EA010000F0004040F0FE40C4
:100D000040F40000704740F0FE4040F4400070475F
:100D10004FF0FF0C1CEAD0521EBF1CEAD15392EADE
:100D20000C0F93EA0C0F69D0A2EB030280EA010CCE
:100D300049024FEA402037D04FF0805343EA111167
:100D400043EA10130CF000408B4238BF5B0042F1C5
:100D50007D024FF4000C8B4224BF5B1A40EA0C006A
:100D6000B3EB510F24BFA3EB510340EA5C00B3EB9C
:100D7000910F24BFA3EB910340EA9C00B3EBD10F8A
:100D800024BFA3EBD10340EADC001B0118BF5FEADC
:100D90001C1CE0D1FD2A3FF650AF8B4240EBC25005
:100DA00008BF20F0010070470CF0004C4CEA5020C6
:100DB0007F32C2BFD2F1FF0340EAC250704740F415
:100DC00000004FF00003013A37E792F0000F00F007
:100DD000004C02BF400010F4000F013AF9D040EA85
:100DE0000C0093F0000F01F0004C02BF490011F419
:100DF000000F013BF9D041EA0C0195E70CEAD15311
:100E000092EA0C0F08D142027FF47DAF93EA0C0FF7
:100E10007FF470AF084676E793EA0C0F04D14B02DB
:100E20003FF44CAF08466EE730F0004C18BF31F08D
:100E3000004CCAD130F000427FF45CAF31F0004387
:100E40007FF43CAF5FE700BF53B94AB9002908BF40
:100E500000281CBF4FF0FF314FF0FF3000F074B995
:100E6000ADF1080C6DE904CE00F006F8DDF804E001
:100E7000DDE9022304B070472DE9F047089E0D46D6
:100E800004468846002B4DD18A42944668D9B2FA6E
:100E900082F252B101FA02F3C2F1200120FA01F10B
:100EA0000CFA02FC41EA030894404FEA1C45210C6D
:100EB000B8FBF5FE1FFA8CF705FB1E8341EA0343DE
:100EC0000EFB07F199420BD91CEB03030EF1FF3027
:100ED00080F01E81994240F21B81AEF1020E634404
:100EE0005B1AA4B2B3FBF5F005FB103344EA0344EC
:100EF00000FB07F7A7420AD91CEB040400F1FF33FB
:100F000080F00881A74240F2058164440238E41B66
:100F100040EA0E4000211EB1D4400023C6E9004340
:100F2000BDE8F0878B4208D9002E00F0EE8000214A
:100F3000C6E900050846BDE8F087B3FA83F1002949
:100F40004AD1AB4202D3824200F2F980841A65EBA7
:100F5000030301209846002EE2D0C6E90048DFE7EF
:100F600002B9FFDEB2FA82F2002A40F09180A1EBD2
:100F70000C054FEA1C471FFA8CFE0121B5FBF7F365
:100F800007FB1350250C45EA00450EFB03F0A84271
:100F900008D91CEB050503F1FF3802D2A84200F284
:100FA000CB8043462D1AA4B2B5FBF7F007FB1055D2
:100FB00044EA05440EFB00FEA64508D91CEB0404D8
:100FC00000F1FF3502D2A64500F2BB802846A4EB13
:100FD0000E0440EA03409EE7C1F120078B4022FA4D
:100FE00007FC4CEA030C20FA07F405FA01F31C4352
:100FF000FD404FEA1C4900FA01F3B5FBF9F8200C5B
:101000001FFA8CFE09FB185540EA054508FB0EF057
:10101000A84202FA01F20BD91CEB050508F1FF3AD0
:1010200080F08880A84240F28580A8F102086544DB
:101030002D1AA4B2B5FBF9F009FB105544EA054599
:1010400000FB0EFEAE4508D91CEB050500F1FF3490
:101050006CD2AE456AD90238654440EA0840A0FB2C
:101060000294A5EB0E05A542C846A64656D353D01A
:101070005EB1B3EB080265EB0E0505FA07F722FA3D
:1010800001F3CD401F43C6E900750021BDE8F0879C
:10109000C2F1200320FA03F10CFA02FC25FA03F353
:1010A00095400D434FEA1C471FFA8CFEB3FBF7F146
:1010B00007FB11302B0C43EA004301FB0EF0984272
:1010C00004FA02F408D91CEB030301F1FF382FD214
:1010D00098422DD9023963441B1AADB2B3FBF7F025
:1010E00007FB103345EA034500FB0EF3AB4208D97A
:1010F0001CEB050500F1FF3816D2AB4214D90238BB
:101100006544ED1A40EA014138E73146304607E7C9
:101110008646E5E61846FAE64B45A9D2B9EB020841
:1011200064EB0C0E0138A3E74046EAE7204694E75B
:101130004146D1E7D0467BE7023B654432E70846AB
:1011400009E76444023842E7704700BF000000002E
:101150002DE9F04794B06D460024042000F05CF8BF
:101160000134142C45F8040BF7D117A7D7E9006711
:10117000DFF85C904FF0000AE84613255446D8F893
:10118000041048F8041B2046FFF706FC013D044606
:10119000F5D1042000F040F821461390FFF7FCFB46
:1011A0004946FFF7B5FDFFF70FF932463B46FFF71B
:1011B00063F9FFF773FB074B18604FF47A701FF069
:1011C000DDF901F01BFBD7E73333333333E3524010
:1011D0000000A0412002002037B5054601A802F01A
:1011E00043FB019B1A0444BF5B42019304460198F0
:1011F000FFF786FCFFF7E8F805A3D3E90023FFF724
:101200003BF9FFF773FB2860204603B030BD00BFF9
:101210007B14AE47E17A743FF0B5012387B0834079
:1012200002930C2300260493274F01960A230546B8
:10123000ADF8143003978DF8166002F05BFB234B7A
:101240001A78954204460CD0214A1D70167070B968
:1012500000241D480C22002122F0CAFCB4B91D480C
:101260002CE00028F4D01A4B1B78002BF1D11A493E
:101270000B7965F304030B71A36820461B6898473C
:101280000028E5D1124B01221A70E2E7A36801A9F8
:101290005B68204698470028E1D1B7F90000431C5D
:1012A000DDD0FFF77FF806A3D3E90023FFF7E4F8CA
:1012B0000A4B0022FFF7E0F8FFF718FB07B0F0BD7C
:1012C000CDCCCCCCCCCC0C40F2EC0020B308002030
:1012D00025ED0020000080BF860700200000503F61
:1012E00070B5444DD5F81C31996811F0010188B0F2
:1012F0001FD103AA40F6034007F0AAFD04460028C8
:1013000074D1039B9B681B7883B905F1940318463D
:1013100022F002FEBFF35B8F00F0050053E8002FC0
:1013200043E800010029F9D1BFF35B8F03981BF05C
:10133000A7FD03AA002141F2030007F089FD04463E
:10134000002853D1039B2C4899680822013122F0D0
:1013500024FC03981BF094FD214603AA41F20100EE
:1013600007F076FD0446002840D1039883685A7838
:1013700085F83420D9789A7842EA0122EA861A79E7
:1013800085F83520197ADA7942EA01222A875A79D2
:101390009B7942EA03236B871BF072FD214603AA67
:1013A00041F2020007F054FD0446F8B9039B1348CC
:1013B00099684022013122F0F0FB95F866300398DD
:1013C00043F0060385F866301BF05AFD95F840306F
:1013D0005A061BD40A4B0B490B48C91AC908890184
:1013E00041F0010120F0CDFB6FF01204204608B05F
:1013F00070BD00BF000000203C0000204400002021
:10140000E86F0200A0700200C9BC0200214603AAD6
:1014100042F2030007F01CFD04460028E6D1039BBE
:10142000B54899680822013122F0B7FB03981BF0F8
:1014300027FD214603AA42F2020007F009FD0446F7
:101440000028D3D1039B9B68B3F80120A5F8C420E2
:1014500091B221B1DA78A948114625F0CBF9039869
:101460001BF00EFD95F8406016F0200600F01E817E
:1014700095F860301B0712D503AA002142F21C0028
:1014800007F0E6FC04460028B0D103988368D3F83F
:101490000120D3F80530C5E928231BF0F1FC95F8AD
:1014A00098309E0624D502A90DF1060007F0A0FE93
:1014B000044600289AD1042142F2240007F068FB78
:1014C0000646002800F0F9800421083024F0B9FB1A
:1014D000BDF806300380BDF808304380224631460F
:1014E00042F2240007F0B4FC044600287FF47EAFEB
:1014F00095F898305C062CD5022142F22E0007F0B8
:1015000047FB0446002800F0D8800221083024F070
:1015100098FB6FF07B030370032343702146002286
:1015200042F22E0007F094FC044600287FF45EAFE0
:10153000014603AA42F22A0007F08AFC044600286A
:101540007FF454AF039883685B7885F8E0301BF034
:1015500097FC082142F2010007F01AFB044600281C
:1015600000F0AB800821084424F06BFB95F898103C
:1015700011F0400F024640F2022308BF0323880700
:101580004CBF43F02C0043F00C008B0695F89930CB
:1015900048BF40F0400013F0090F95F8663018BFBF
:1015A00040F4006003F00603CE0748BF40F010008F
:1015B000062B08BF40F4C070002122F0ECFC21464D
:1015C000002242F2010007F043FC044600287FF4A9
:1015D0000DAF95F8403098061ED4B5F8C410D9B9AF
:1015E00003AA41F2050007F033FC044600287FF40B
:1015F000FDAEB5F8C43063B9039B9B685A789978FF
:1016000042EA0122A5F8C4209A883C48114625F0F8
:10161000F1F803981BF034FC082140F6014007F074
:10162000B7FA0446002848D00821084424F009FBF2
:1016300095F89830D907024654D52DA1D1E900017B
:1016400022F0A9FC2146002240F6014007F000FCF0
:10165000044600287FF4CAAE014602AA4FF60140B4
:1016600007F0F6FB264E274BF61AF608B6010028BF
:1016700054D0254846F0020120F083FA09F0FCFE20
:10168000044600287FF4B2AE014630221F4822F003
:10169000AFFA1F4BC5F83431EB79002B40F0AB802B
:1016A0001C4846F0030120F06CFA9FE6022140F648
:1016B0006D4007F06DFA044610B96FF0360495E6F8
:1016C0000221083024F0BDFA012303704670214640
:1016D000324640F66D4007F0BBFB044600283FF45D
:1016E000C7AE83E60C484FF00051A9E7AFF3008086
:1016F000908800020080002098000020C800002090
:10170000A0700200E86F0200EDBC02003001002072
:10171000A5910000C1BD020010880002029B39485B
:101720009C68B4F80120032A96BF3749374951F81D
:10173000221046F0030320F045FAB4F80110B4F883
:101740000320022946F003032ED1032A2CD8304966
:1017500051F822102F4820F035FA62792E48032ADA
:1017600096BF2E49294951F82210CDE90312A279DA
:101770000592B4F807200692D4F80920079246F0A3
:101780000303052203A920F052FA02981BF078FB0C
:1017900002AA00214FF6024007F05AFB044628B186
:1017A0001F4846F0020167E71849D3E7029B1D482E
:1017B00099680222013122F0F0F902981BF060FBD7
:1017C00095F885305B077FF559AF02AA21464FF6A1
:1017D000034007F03DFB18B1134846F002014BE708
:1017E000029B124899680122114422F0D6F902980E
:1017F0001BF046FB42E704210D4822F09CFB08F059
:101800007FFAF3E511BD020090770200BBB602003B
:10181000507702002ABD020042BD0200C8770200D4
:101820006FBD02008500002098BD020084000020EA
:1018300094000020000000002DE9F041D0E90B35B4
:10184000866A5C193034A6428846174618D81C4D63
:10185000A3FB050118A3D3E90023FFF7F5FAA41BA6
:1018600020F07F40C8F8000013A3D3E90023A4FBB5
:101870000501FFF7E9FA20F07F403860BDE8F0810C
:101880000F4C0DA3D3E90023A6FB0401FFF7DCFAFC
:1018900005F1300120F07F40C8F8000006A3D3E92D
:1018A0000023A1FB0401FFF7CFFA20F07F4038604E
:1018B000BDE8F081AFF300808D49FD1A07000000FC
:1018C00000CA9A3B000000002DE9F04F8FB00028BD
:1018D00000F04B81AA4C94F84E6016F0010636D108
:1018E00094F82D2094F8393094F8290004EB820202
:1018F00004EB8303FF2100F00300D2F83080D3F81B
:101900003C9084F82A1018F063F894F84E004707CA
:1019100000F11781B8F1000F11D09948414612F03B
:101920006FFF98F800305D0605D506210EF028FB04
:10193000002800F0DF819248494612F061FF98F8D4
:10194000003013F00E0F40F0D380636A23B10C26F1
:1019500030460FB0BDE8F08F12F0BAF8824600288A
:1019600000F0D78112F0C0F88346002800F0D6813D
:1019700013F0A2FC0546002800F0CD81806F4FF6E1
:10198000FF73AB8505F11C03002800F0BE8105F153
:101990006C0205F168010B930EF0FEFAB5F86420B5
:1019A00095F84010C5F83CA122F4EF6222F007023E
:1019B00042F4887242F00102A5F8642095F83D20B7
:1019C00002F03F0262F07F0285F83D2095F8322157
:1019D00022F0030285F8322195F87E2022F01F02C2
:1019E00085F87E20674A2A66674AC5F828210027BD
:1019F0004FF01B1267F30001EA65062285F84010DC
:101A0000C5E9137785F83F706F866F636F65A5F83A
:101A1000C870A5F8CC70C5F80C71A5F81071A5F8C0
:101A20002471C5F82C71A5F8307185F83B71AF674A
:101A3000A5F87C70A5F85C71A5F8C42095F85E2126
:101A4000A5F87C7122F0070285F85E21B5F8DC204C
:101A5000C5F8E47002F0FC02A5F8DC2095F87E21C0
:101A6000A5F8E87067F3041285F87E2195F8A621A1
:101A700085F8EA7067F3C30285F8A621A5F8A4717A
:101A8000A5F8B07113F052FFA5F8D60013F054FF7B
:101A9000D5F8B4113D4AA5F8D8000A40C5F8B421DC
:101AA00013F050FF95F8B82160F3020285F8B821D1
:101AB00013F04EFF0B9B6362C4E911AB95F8B8318C
:101AC000C5F8BC7160F3C50385F8B83195F82030CE
:101AD000ED6167F30003C5E97277C5E97077C5E981
:101AE000057785F8203018F097FF002840F0048132
:101AF00094F828300121C3F342030DF133008DF82F
:101B000033300EF0C3FB002800F0998098F80020D5
:101B100002F00F02022A3BD0012A00F0F18099F86E
:101B200001301033DB00002A00F0D980062A00F0D3
:101B3000FA804FF4DA734FF41B71013803FB001184
:101B400032E0C0F3C000324604F14F0118F0ACF8A7
:101B5000FF2884F82A003FF4DDAE304617F052FF2C
:101B6000B8F1000F7FF4D9AEE9E6054B93F84E309B
:101B7000DB077FF5ECAE0FB0BDE8F04F12F00CBC08
:101B800058E10020480148017F4101000000FFF6B4
:101B900098F801301033DB0000FB03F3411E03F51E
:101BA000AA73642000FB013194F820306648E46198
:101BB000002565F3000384F8203031232360A1FB66
:101BC00000015FA3D3E90023C4E90555C4E9015529
:101BD000FFF73AF9B4F84C70E0600FF09BFC8146D7
:101BE00047B998F8005005F00F05A5F10105B5FAC1
:101BF00085F56D0994F8280065F3000010F00105E3
:101C000084F8280022D0E368504ADFF84481049326
:101C1000002002250DAF019305920321CDE90200BA
:101C200006944B4600900897CDF81C802A460D95E7
:101C30000FF0A4FB394612F001F800283BD0636A8C
:101C4000002B3FF484AE12F065FB80E6E368414A66
:101C50004148049303F24713A7FB00010694029541
:101C60001360912303FB0711394B0793374B0593FF
:101C70004FF6FF7309924FF0020803930DAF30A3A4
:101C8000D3E90023CDF834800897FFF7DDF84B4601
:101C9000CDE900504246284603210FF019FB394692
:101CA00011F0CCFF0028CAD194F84E3043F0010364
:101CB00084F84E304CE6294A05924AF2D832009216
:101CC000CDE90300CDE90100CDF81C80089706940A
:101CD0004B46012203210D950FF050FBDFE798F8EA
:101CE0000110103103EBC103CA0003F54D7102F579
:101CF0009A7322E712262BE612F00CFB032627E646
:101D00004FF4F2734FF47F7117E705F17000A86785
:101D10003DE607261CE6584611F0ECFE504611F051
:101D2000DDFE072614E698F80120103203EBC2030B
:101D3000D20003F54D7102F59A73FEE6AFF3008011
:101D40008D49FD1A0700000000CA9A3BF5400100CA
:101D50008D2D0100B0E10020002AE784D93F010069
:101D60002DE9F04FC24D2B688BB004460F469046CC
:101D7000002B00F01682638EE68E1E4494F812311A
:101D80003E4413F00703B6B240F08E81B4F8EC90F5
:101D9000A6EB09021FFA82FB120400F1EB8194F911
:101DA0003D20002AC0F22B8194F8E83084F8E93015
:101DB00094F87C2194F87D3194F8101184F8111175
:101DC000934206D094F87E3103F00703052B00F010
:101DD0003E822B68A34204BF00232B60D4F80C5131
:101DE000002D00F030812868002800F02C81E28D61
:101DF000B4F814314168C4F80C119342B4F81621B8
:101E000000F00581B4F81811B4F82CC0EB83152349
:101E10002B710023A5F806C02A8469842B772946F4
:101E200011F06EFE11F076FE2368002B0ADAD4E979
:101E3000012123F0004391422CBF88449044236049
:101E4000A8EB0308E08DB4F8145110FB0BF080B23E
:101E5000B0FBF5F115FB01F39BB298421FFA81FA32
:101E600080F08D811B1A834940F2E24003FB00F0B1
:101E7000A0FB01017CA3D3E90023FEF7E5FF20F0DE
:101E80007F408044618E94F93D30A9EB0609D1442E
:101E90000F444F446786002B40F2E24707FB05F6EC
:101EA000C0F28181744A7549754840F6F6131FF0F7
:101EB00001FA404080F311884FF0030002DF002751
:101EC000B346704AB4F818316F48B4F81611218639
:101ED0003244B2FBF6F2A4F8CA2042F2107202FBBE
:101EE00003633044013BB0FBF6F0B3FBF6F6B4F805
:101EF0001431E38583B2881D8342A4F8C660A4F838
:101F0000D23002DD5B1A063B9BB2A4F8CE3094F8C7
:101F100012311B0744BF0023A4F8C830022101205E
:101F20001AF0F8FC00220221814601200EF084F80C
:101F300056494FF4EA7220460EF00EF800F1030AFB
:101F40005FFA8AFA524B00945246012100200FF0AA
:101F50009FFA30F002030CD0474A4E49484840F6F9
:101F600025231FF0A7F9404080F311884FF00300AC
:101F700002DF404EABFB066B3BA3D3E900233046A8
:101F80005946FEF761FF089420F07F4506944248C9
:101F9000E3680493A5FB0001072303FB05113F4BF6
:101FA00007933F4B0593301A4FF6FE736BEB01011D
:101FB00003934FF47A720023FEF746FF4346CDE9C0
:101FC000015000975246012100200FF0D7F930F060
:101FD00002030CD0284A2F49294840F63F231FF01E
:101FE00069F9404080F311884FF0030002DFB9F136
:101FF000000F40F0238148460BB0BDE8F08F94F805
:10200000DD20002A3FF4D0AE84F8DD30D0E6218E0A
:102010009142B4F818117FF4F7AE40F2E24C0CFB99
:1020200003FE42F2107C0CFB01EC0CF1FF3CBCFB0C
:10203000FEFCB4F8C6E01FFA8CFCE6457FF4E4AE83
:1020400001232B71EBE60C4A16490D4840F67A1332
:102050001FF030F9404080F311884FF0030002DF99
:102060002868C4E6AFF300808D49FD1A0700000020
:10207000A4E3002000CA9A3B907F02006C7B020020
:10208000D47A0200FF5962027FC3C901D0E1002067
:102090001D4B0100708002008D49FD1AC54A0100E8
:1020A000B98E01005C800200012011F039FD074665
:1020B000002800F0DE8076480DF018FF0546002865
:1020C00000F0D78011F04AFD2B793A68D4F80C1152
:1020D000516043F00303C4F80C7100212B710C23F1
:1020E0006B71E97194F820312B72238ED4F81C2186
:1020F0001E44684BA3FB0232B4F81431A5F80B3030
:10210000920AB4F81631A5F80920A5F80D3094F814
:102110001221B4F81831A5F80F300636D4F8BC31C6
:10212000B6B261F30202A4F8EC6084F81221A5F8BB
:102130001160002B00F0918094F85E21900700F16F
:102140008C8094F8B721D10700F18780D4F8C8219A
:10215000934204BF1A68C4F8C821D4F8C021002AE9
:102160007ED11A682A601D602B68C4E970550BB9CE
:10217000C4F8CC516FF043000BB0BDE8F08F05FB05
:10218000110140F2E243444889B203FB01F1A1FB93
:1021900000013DA3D3E90023FEF756FEA8EB00089B
:1021A00070E62860E7E5626CE36C02FB1B33E364D6
:1021B00018F084FC054694F8DC00C0F3820018F0A7
:1021C0007FFC054406FB05F5344B94F8202105F50A
:1021D000742505F23F25A3FB0535AD0C07FB02F284
:1021E000E36C626505FB0AF072080344963A934279
:1021F00028BF13466564A6EB050B274DC4E91223DF
:102200000023C4F8E430A0FB05011FA3D3E9002399
:10221000FEF71AFE1F49A8EB0008D4F81C01A1FB29
:102220000030800A07FB00F017A3D3E90023A0FBCE
:102230000501FEF709FE20F07F4742E60122104625
:1022400002210DF0F9FE00200BB0BDE8F08F002355
:1022500084F87D21A4F8CC30BBE5D4F8C0216AB164
:10226000D4F8C4311A682A601D602B68C4F8C451C0
:102270007DE76FF036000BB0BDE8F08F2B60C4E94E
:102280006F55C4F8C45172E78D49FD1A070000006C
:1022900028E400205917B7D100CA9A3B83DE1B43BC
:1022A0002DE9F04F93B092460A90126818461D46E9
:1022B0000C46176850F80C8B03222E3105F10809E3
:1022C00021F06BFC05F11C06042204F12A014846AA
:1022D00021F063FC052204F13A01304621F05DFC57
:1022E000304605210DF0D2FF95F8212000F03F0087
:1022F00060F30502012885F821200AD994F83F10DF
:1023000001F01F02053AC1F304000B2A85F82200F0
:1023100002D913B0BDE8F08FDAF8002000209060F9
:10232000A68E6E8294F8362094F8370042EA002296
:10233000AA8298F8DC20638E0C93490961F3840229
:1023400088F8DC2018F0BAFB0B9098F8DC00C0F39A
:10235000820018F0B5FB0B9BC34AC44940F2E24B24
:10236000B6B20BFB06F6184406FB00F000F574202D
:1023700000F23F20A2FB003094F831200BFB02F268
:10238000EA637208800C963AA862EA62238FA88AF0
:10239000B74AADF8363042F2107C3144B1FBF6F169
:1023A000A8F8CA1099B20CFB01613244013900F15E
:1023B000060CB1FBF6F1B2FBF6F2A8F8C61091B22A
:1023C0006145A8F8D21002DD091A063989B2A8F8C9
:1023D000CE100422494608F1E00021F0DEFB227F06
:1023E00004F11E09C2F380134946062210A80F9378
:1023F00021F0D3FB227F4FF48071A183C2F34013FD
:1024000097F82A009AF812B00E930B9317F0E2FD9A
:1024100006220146002840F0EA8004F12B0021F05A
:10242000E7FBBBF1FF0F00F0EC804946584604F192
:102430001F0217F05DF8A27F0232A27710A90622D0
:1024400004F1250021F0A9FB98F8DC20698ABDF889
:1024500036306186C2F38202A98AA186E38684F8B7
:102460003820404612F034FF21462882E080DAF816
:1024700004400A9811F044FB2B8AE380182323714F
:102480000B9B2068002B00F0CC8095F821302A8926
:1024900043F0400385F821306B8953406B8401235E
:1024A0002377214611F02CFB11F034FB95F84900FD
:1024B000012100F0070018F007FA83466D484FF03D
:1024C000000931230BF25241C8F80030C8E90199E4
:1024D00063A3D3E90023A1FB0001FEF7B5FCAB6ABF
:1024E000DAF80C40F61A0C9B40F2E24101FB03447F
:1024F00020F07F4004F28634A4EB0B034A4602210D
:10250000C8F80C0001200A930DF096FD384612F031
:10251000FFF8821C584B0097D2B2484601210EF0BA
:10252000B7FF012800F0898097F82830DB077CD4BA
:10253000404612F0CDFEDFF83C91A6FB094648A3C9
:10254000D3E90023054631462046FEF77DFCDAF844
:102550000830CDF81880A3F1310A484B0793484B57
:1025600005934FF4B6730893D8F80C3020F07F47EA
:1025700044484FF0000BCDE903B3A7FB000107234C
:10258000201A03FB071166EB01014FF47A72002356
:10259000FEF75AFC0A9BCDE90170A3FB090130A3A9
:1025A000D3E90023FEF750FC033520F07F40EDB265
:1025B000009053462A46012158460EF0DFFE30F0C7
:1025C00002030CD0304A3149314840F26D131EF0FD
:1025D00071FE404080F311884FF0030002DF0122BA
:1025E000022110460DF028FD13B0BDE8F08F04F174
:1025F000240104F12B0021F0D0FABBF1FF0F7FF48E
:1026000014AF0622002104F1250021F0F1FA9DF813
:102610003C30A37710A9062204F11F0021F0BDFA77
:1026200012E79DF8383023773BE70023012200931F
:10263000184611460EF02CFF7AE711F03DFB874259
:102640003FF472AF104A1349114840F2FD131EF0D7
:1026500031FE404080F311884FF0030002DF63E752
:102660008D49FD1A0700000083DE1B43FF596202FB
:102670007FC3C90100CA9A3B7D8E01004D8E0100C7
:10268000B98E01008D49FD1AB881020070800200E8
:10269000D47A0200108202002DE9F04F8FB0DFF8EB
:1026A000D8800A900DF137010DF1360011F0A0FA33
:1026B000324F9DF836A09DF837B00EF02BFFD8F8BA
:1026C0000040A4FB07542AA3D3E9002381462146F6
:1026D0002846FEF7B9FB0A9B0B90D8F80400069336
:1026E000274B0593002622A3D3E90023A0FB070173
:1026F000CDE90766FEF7A8FB0B9B20F07F40CDE9F4
:102700000360204823F07F47A7FB00010723281A16
:1027100003FB071164EB01014FF47A720023FEF70B
:1027200093FB0096CDE901704B465A460321504673
:102730000EF024FE30F0020416D1134A1348002391
:102740001DF0A0FA68B19DF837209DF8360000947E
:10275000234603210EF09CFE6FF03B000FB0BDE856
:10276000F08FD8F80C00F9E76FF04700F6E700BFEC
:102770008D49FD1A0700000060EB002000CA9A3B5B
:10278000E1DB01008D49FD1A447B0B0070EB00205A
:1027900038B50F4D04460EF0BDFEA9680EF0BCFE24
:1027A0006968B0FBF4F404440A4807A3D3E90023A2
:1027B000A1FB0001FEF748FB20F07F40844294BF5C
:1027C0000020012038BD00BF8D49FD1A0700000020
:1027D00060EB002000CA9A3B01481EF06BBD00BFB1
:1027E000F289020011B103481EF064BD02481EF0D8
:1027F00061BD00BF108A0200308A0200044B1A68D3
:10280000C82A84BF00221A60188803F027B800BFC6
:1028100018AD002070B503788AB004460E4607ADA7
:10282000032B20D8DFE803F002191B1D11492846AD
:1028300021F059F963780493A3780393E378029322
:1028400023790193637900930B4AA37905951E219F
:1028500030461EF03CFD0AB070BD0849E7E7084964
:10286000E5E70849E3E7084A0A2128461EF02FFD5C
:10287000E0E700BF3B8A02005D8A0200428A020054
:10288000498A0200538A02008CCA020000B589B04E
:1028900021F0F4FD6946FFF7BDFF034869461EF0CD
:1028A00009FD09B05DF804FB808A020010B588B00C
:1028B0000C4621F0E3FD6946FFF7ACFF03482246D2
:1028C00069461EF0F7FC08B010BD00BF978A0200F1
:1028D00008B5054C237813B9012001F0B7FC4FF47B
:1028E000FA701DF04BFEF5E72B08002008B5064CEA
:1028F00023783BB9012001F0C3FC4FF4FA701DF0BE
:102900003DFEF5E70020F6E72B08002008B500F0B3
:102910006FFE01F05FFC044C00F0D2FE20704FF41B
:10292000FA701DF02BFEF7E72B0800208FB500F0A2
:1029300071FA00F0CBFA00F0D5FC1EF08EF900F031
:1029400057FD00F03DFF00F059FF00F0B7FF1C4BB2
:10295000DFF87090DFF870801C4F01221A60D9F800
:1029600000303BB3012BFCD1194E1A4B1A4A1649C1
:1029700016481A4C1A4D00F09BFD3046FEF72CFC11
:1029800000F02EFB206028461EF0E6F9FFF736FF28
:102990003068FDF719FD0B4629880291D8F8001020
:1029A000019139680091024621680E4804F082FFC7
:1029B0000A2001E04FF4FA701DF0E0FDCFE700BF00
:1029C00014AD002020AD002028AD002018AD00205F
:1029D00030AD002021ED002020ED00202CAD0020A6
:1029E000F0EC0020AD8A020070B5002088B007F03E
:1029F000FFF9064630B101461F4808B0BDE87040F7
:102A00001EF058BC1D4D1E481EF054FC1FF044FD26
:102A10000FCD03AC0FC42B6823601A4900963346D0
:102A2000042203A807F066FD0146E0B116481EF037
:102A300041FC1648164C08F0D7F8164808F0F4FC8C
:102A400015481EF037FC23688BB1144D012641F266
:102A500088301DF093FD042342F210702E60236035
:102A60001DF08CFDF3E70E481EF024FCE1E74FF467
:102A70007A701DF083FDE6E7F58A020070710200AE
:102A8000158B0200687202002C8B020024020020C9
:102A900014AD0020F8010020748B020020AD00204E
:102AA000528B020008B51EF06DFA01201DF066FD84
:102AB00001F0F8FA024B1868BDE808401EF02CBA85
:102AC000400200202DE9F04188B001F0EBFAFF2030
:102AD0001EF022FA8E4E8F4D3368FF2B31DDFF231F
:102AE00033602B68326893422FDA8B4A12681344A2
:102AF0002B602B68FF2B2DDDFF232B6028681EF039
:102B00000BFA864B1C68012C28D0042C40D0002CDA
:102B1000E2D1834F83480094962211464FF6FF730B
:102B20001EF0CBFA3A68804B53F8220001F0DEF930
:102B30003B68032B98BF5C1C7C4B3C6000221A60F6
:102B4000CAE7312BCDDC3223CAE7D2DD724A1268E4
:102B50009B1ACDE7312BD1DC3223CEE7734C2368AF
:102B6000012B01D0FFF79EFF9622002711467048E7
:102B700000974FF6FF731EF0A0FA4FF6FF736D48F3
:102B80000097C82282211EF098FA01232360A3E750
:102B9000DFF89881D8F80030042B4DD0FFF782FF82
:102BA0003224642300271A4663481F21CDE90044DC
:102BB00001F006FA614800974FF6FF73A0225A21F0
:102BC0001EF07BFA5E4864234FF482724FF4784122
:102BD000CDE9004401F0F4F95A4800974FF6FF732D
:102BE000A0224FF484711EF068FA57484FF48C739A
:102BF00064224FF4FC61CDE9004401F0E1F953484F
:102C000000974FF6FF734FF4AA725E211EF055FA3B
:102C10004F484FF48C734FF482724FF47841CDE9F2
:102C2000004401F0CDF94B4800974FF6FF734FF485
:102C3000AA72FA211EF041FA474B48491A6802A8C5
:102C4000002404F01FFE4FF6FF730094BE2278218B
:102C500002A81EF032FA424B1B7873B1414B424935
:102C60001A6806A804F00EFE00944FF6FF73BE2209
:102C70004FF4877106A81EF020FA3C4B1868FDF748
:102C8000A3FB002402460B4604A8394904F0FAFDD0
:102C90004FF6FF73374800944FF4B9725A211EF073
:102CA0000CFA354B1B787BB1344B2C491A6806A8BB
:102CB00004F0E8FD00944FF6FF734FF4B9724FF43F
:102CC000827106A81EF0F9F92D4B1B78EBB9009321
:102CD0004FF478432B481E2280211EF0EEF9042386
:102CE000C8F80030284B1D491A88D53A92B206A878
:102CF0001A8004F0C7FD00230093F0224FF6FF7303
:102D0000BE2106A81EF0D9F9E6E600230093E1E70C
:102D100020020020400200201C02002014AD0020F0
:102D20001CAD0020968B02004402002010AD002054
:102D30009E8B0200A68B0200BC890020B18B020092
:102D400074180020B78B020080930020BB8B020018
:102D5000F87F0020C08B02002CAD002054B7020089
:102D600020ED002018AD0020C58B020030AD002002
:102D7000CA8B0200CF8B020021ED002028AD00207D
:102D80002B080020D48B0200F0EC002070B5064622
:102D900088B00D4614460D481CF0B8F80DF1070236
:102DA00002920122039200228DF810200722CDE921
:102DB00005548DF807608DF81C20836802225C683A
:102DC00002A91923A047C0B208B070BD808C0200D0
:102DD00070B5064688B00D4614460D481CF096F8AE
:102DE0000DF1070202920122039200228DF81020B9
:102DF0000222CDE905548DF807608DF81C20836808
:102E000002A95C681923A047C0B208B070BD00BF1A
:102E1000808C020030B58DB021481CF077F828B9BD
:102E200020480DB0BDE830401EF044BA1E4B01935F
:102E300019221A701D4A08921D4A09921D4A0A92C7
:102E40000822ADF814200C228DF80C20684646228A
:102E50008DF816201DF014FEF0B917481EF02AFA5E
:102E60006946B6201DF0FBFD4FF4A47000211CF054
:102E7000C3FE684600F0C4F980B91048104D6C4696
:102E80001EF018FA0FCC0FC50FCC0FC594E80F0039
:102E900085E80F000DB030BD0A48DFE70A48EDE7CE
:102EA000808C0200868C020022ED00208D2D000017
:102EB000D12D00009D050200A58C0200E78C0200C8
:102EC00034AD0020C28C0200018D020070B5374D78
:102ED0000FCD8CB06C460FC40FCD0FC495E80F001A
:102EE00084E80F006946B6201DF0B9FD044690B98C
:102EF0002F481EF0DFF9002140F6CD401CF07CFE8B
:102F000068461DF0BDFD044360B284B22CB129486F
:102F10001EF0D0F915E02848EBE728481EF0CAF962
:102F2000694601201DF076FD84B26CB924481EF07C
:102F3000C1F9684600F064F984B23CB1214804F05C
:102F4000B9FC20460CB070BD1F48E1E71F4804F0F3
:102F5000B1FC01216A4608461DF0BAFD84B20CB1ED
:102F60001B48ECE71B4804F0A5FC20466B460122F9
:102F700002211DF099FD84B224B12146164804F0C7
:102F800099FCDEE7694601201DF019FE84B2002C91
:102F9000F3D16D460FCD054E0FC60FCD0FC695E888
:102FA0000F0086E80F000D48B2E700BF34AD0020E7
:102FB000228D0200858D0200508D0200B18D02002D
:102FC000D68D0200178E0200F38D0200318E0200B2
:102FD000518E02006C8E0200838E0200938E0200DE
:102FE00030B50C4D0FCD8FB002AC0FC40FCD0FC458
:102FF00095E80F0084E80F00002302A901A80193BF
:103000001DF010FE10B104481EF054F901980FB0E5
:1030100030BD00BF34AD0020AB8E0200F7B50546D1
:10302000294600208DF804008DF805001DF01FFCD6
:10303000AB6A696804464FF4E17098474CB92B4677
:10304000012201A959201DF036FC0446002800F099
:103050008780204603B0F0BD73092F698DF80630D4
:103060002846C6F3430337448DF807301DF098FA1D
:10307000002872D1002F70D02B4601220DF10701DC
:103080005B201DF018FC044678B92B4601220DF197
:1030900006015C201DF00FFC044630B9AA8A2B46BD
:1030A00039465E201DF08AFA0446AB8A1E44B6B249
:1030B000AB8DB342D0D8002CCBD101262B46324663
:1030C00001A959208DF804601DF0F5FB0446002885
:1030D000BFD1AB6A69682548984732462B460DF147
:1030E00005012A201DF03BFB9DF8056006F00F0648
:1030F0008DF8056004460028ABD1012E32D1294657
:1031000030461DF0B4FB04460028A2D18DF806001D
:103110008DF8070028461DF043FA0446002898D190
:103120002B4632460DF106015B201DF06CFA044679
:1031300000288ED12B4632460DF107015C201DF090
:1031400062FA0446002884D19DF8063003F00F038C
:10315000EB759DF807302B767BE74FF0FF34A4E743
:103160000646A5E76FF0040473E700BFF0490200CC
:10317000F7B51C46214B1646B3F803205B798DF852
:103180000630074645F2567320460D46ADF804203A
:10319000ADF800301DF004FA70BB2346032201A9EC
:1031A00056201DF0DCFA38BB02AB012E03EB0706FC
:1031B0004FEA152217BF16F8041C06F8045C21EA32
:1031C000050506F8045C16BF9DF806308DF806204C
:1031D000934301A918BF8DF8063016F8080C234652
:1031E000012239441DF067FB30B9234601220DF15D
:1031F000060158201DF05FFB03B0F0BD18720200FD
:1032000090B10378162B12D1838A9A1E92B241F2A2
:10321000FE718A420ED8DA0744BF03F1FF3383827E
:10322000064B0361FFF7FABE4FF0FF3070476FF0B7
:10323000030070476FF00900704700BFC88E02009E
:1032400030B5054685B00C460A481BF05FFE0222E9
:103250008DF800508DF80140CDF804D002928DF821
:103260000C20836801225C6801A95723A047C0B2E3
:1032700005B030BD808C020030B5054689B00C46E3
:103280000D481BF043FE0DF1070202920122CDE929
:1032900005420392002107228DF807508DF8101087
:1032A0008DF81C20836802225C6802A95723A0477E
:1032B000C0B209B030BD00BF808C020008B540210B
:1032C0000920FFF7BDFF20B904481DF0F3FF0120DE
:1032D00008BD03481DF0EEFF0020F9E7C8A6020074
:1032E000DFA6020013B5FFF7E9FF00214FF400400D
:1032F0001CF082FC0DF106010020FFF7BDFF0DF16F
:103300000701FF20FFF7B8FF044650B99DF80730CA
:10331000152B0CBF044805481DF0CCFF204602B019
:1033200010BD0348F8E700BFFDA602001FA702007A
:1033300048A702002DE9F04190B0182206460D463C
:1033400004A8002120F054FC274B002418680290A8
:103350009B882C600DF1060134600420ADF80C3020
:10336000FFF78AFF0DF10601062002AFFFF784FF89
:103370001E481BF0CBFD07220DEB02010A91012133
:103380000B9106218DF807208DF830400D970E9196
:103390008DF83C2083680222D3F804800AA95723C1
:1033A000C04704AB013417F8012B43F8042B062C5B
:1033B000F8D1059B049A1B0203EB0243069A1344BF
:1033C0002B60089B079A1B0203EB0243099A1344E4
:1033D000C3F3110333602B680020C3F311032B6088
:1033E00010B0BDE8F08100BF1E720200808C0200A8
:1033F0002DE9F04F234F244BDFF890B0DFF8908099
:10340000244D3B6000244FF4FA73234ECBF8004068
:1034100087B0C8F80030A946A246D8F80010A142EB
:1034200011DC1E4B59F824201A601D4B02931D4BD2
:1034300001931D4B0093174A1C4B174800F060FA8C
:1034400007B0BDE8F08F8DF817A00DF1170100202F
:10345000FFF712FF9DF81730402BF6D13146284672
:10346000FFF768FF55F8043B3A689342DBF8002009
:1034700038BF3B60934288BFCBF80030013404363C
:10348000CBE700BF14BD0020FFFF030010BD0020EC
:1034900008BD002034B5002064AD002018BD002018
:1034A00023ED002004BD002024ED00200CBD0020F1
:1034B0002DE9F04F3F4DDFF80091DFF800C189B0F2
:1034C0000E463F49CDE9042300233E4A2A600746C1
:1034D0000B60CE464FF4F57418469A46DCF8281077
:1034E000DEF828804CF8041B91423CBF0A464FF09E
:1034F000010A814284BF08460123013C4EF8048B37
:10350000ECD1BAF1000F00D02A600BB12C4B18603F
:10351000DFF8B480DFF8B4A02D4D4FF4F5644FF020
:10352000000B58F8043BCAF800308DF81FB00DF1BD
:103530001F010020FFF7A0FE9DF81F30402BF6D1A1
:103540000DF11F010420FFF797FE0DF11F0106206A
:10355000FFF792FE09EB04014046FFF7EBFE2B68F4
:103560003B601C4B1C491A68326091F90020501EC8
:103570004242424104980270184890F9002002F13A
:10358000FF3CDCF1000242EB0C020434DDF814C015
:10359000B4F5FA6F8CF80020C3D1CDE90151104980
:1035A0000090064A0968044800F0AAF909B0BDE88D
:1035B000F08F00BF14BD002064AD002034B50020A2
:1035C00010BD0020FFFF0300D8BC002018BD002064
:1035D00004BD00200CBD002023ED002024ED0020C0
:1035E00008BD002001481DF065BE00BF7CA7020099
:1035F00070B528481BF08AFC044628B9BDE8704025
:10360000244925481DF056BE072140F211121DF035
:1036100067FB014630B11F4A20480723BDE87040D0
:103620001DF048BEA36807219D694FF4A0324FF4F6
:1036300080232046A847014618B1164A1848072398
:10364000ECE71849184B4B6080238B60A368DB695B
:1036500013B101222046984714481BF057FC054639
:1036600040B9124912481DF025FE124B1C60124B46
:103670001D6070BD0A214FF400721DF031FB014640
:103680000028F2D0094A0D480A231DF013FE002538
:10369000EBE700BF8DA7020094A70200B2A70200CB
:1036A000DBA702001CBD0020E535000011A80200C8
:1036B00018A8020028BD00202CBD002033A802005D
:1036C000024B1968024B18681DF01DBB2CBD002071
:1036D00028BD002030B5054685B00C460A481BF0D1
:1036E00015FC02238DF800508DF80140CDF804D070
:1036F00002938DF80C305023012201A91DF026FB06
:10370000C0B205B030BD00BF808C020030B50546A8
:1037100089B00C460C481BF0F9FB0DF1070302932E
:103720000123CDE905430393002207238DF80750B9
:103730008DF810208DF81C305023022202A91DF0B4
:1037400005FBC0B209B030BD808C02001FB5044635
:103750000A481BF0DBFB00238DF8013002238DF8B3
:103760000040CDF804D002938DF80C30682301227C
:1037700001A91DF0EBFA04B010BD00BF808C02005F
:1037800030B5054689B00C460C481BF0BFFB0DF167
:10379000070302930123CDE9054303930022072386
:1037A0008DF807508DF810208DF81C306823022208
:1037B00002A91DF0CBFAC0B209B030BD808C020066
:1037C00013B5FF200DF10701FFF7A0FF044650B924
:1037D0009DF80730302B0CBF054806481DF06AFDE8
:1037E000204602B010BD014603481DF063FDF7E717
:1037F00067A8020089A80200B2A8020010B5002143
:103800000120FFF767FF002104460420FFF762FF55
:10381000002104430520FFF75DFFA4B2044300210B
:103820000620FFF757FFA4B204430F210920FFF73A
:1038300051FFA4B204431A210A20FFF74BFFA4B2A0
:103840000443C1211420FFF745FFA4B20443A4B2EE
:1038500024B903481DF02EFD204610BD0148F9E7AC
:10386000E9A8020004A90200F7B50023036004469A
:10387000C1211420FFF72EFF0DF107010546082096
:10388000FFF744FF0DF1070108209DF80770FFF7CF
:103890003DFF9DF8076006EB072626600DF1070146
:1038A0000520FFF733FF266015B103481DF002FD28
:1038B000284603B0F0BD00BF26A9020007B56B2063
:1038C000FFF744FF1B20FFF741FF3820FFF73EFFC3
:1038D00001A97520FFF754FF019B682B0CBF03481B
:1038E00003481DF0E7FC03B05DF804FB4BA90200A0
:1038F00065A9020001481BF009BB00BF87A90200AF
:103900002DE9F04FBDB090460022059306460D46C6
:103910001346AA4245DBB3FBF5F39B4C002220463D
:10392000AA4243DB984A0021176852F8043F5068C6
:10393000034490683B441B1848BF033301319B107C
:10394000B1F5F87F42F8043CEED190488E4F8446A2
:10395000002240F2EF1E3B4679681B680132CB1A09
:1039600072454CF8043B07F10407F4D1874A002163
:10397000136852F8047F3B44013103EBD3735B10AF
:10398000B1F5F77F42F8043CF2D1804F00214B1D86
:10399000DFF8FCE18B42B4BF01230623BC460022C2
:1039A00012E056F8221001320B44B2E756F822100A
:1039B000C91A40F8041B0132B2E75CF804ABD146E7
:1039C0003EF802AB09FB1A22013BF6D140F27A4CD9
:1039D000013192FBFCF247F8042B40F2E9129142CC
:1039E000D5D11A4640F2EF1750F8041B01330029D5
:1039F000B8BF4942BB420A44F6D10821052092FBD8
:103A0000F3F2CDE90110009209A9604A2DA81DF03A
:103A10003FFA099F012F4FF0000338DD2DAA012046
:103A20001146D2F804C009680130ACEB01018742AD
:103A300002F104020B44F3D17A1E93FBF2F341F23C
:103A4000707292FBF3F3479A13600123489A0DF1C9
:103A50003C0C13702DA8614600239F421BDC4D4B8C
:103A60004949184600228E46AA421BDB0020054623
:103A70000DF1780AAF421FDC01283FDC059A464B66
:103A800013600023469A13703DB0BDE8F08F47994C
:103A9000414A0A60DAE750F8042B023241F8042B5D
:103AA0000133DAE756F8229041F8049B58F8229047
:103AB00040F8049B0132D7E75CF8046B711DB1F547
:103AC000F77F0FDC721F002A0CDD063E9142B4BF67
:103AD00001210B2131444FF0807801268A4203D125
:103AE00006B901300135C5E75EF82290C145BEBF79
:103AF0004AF82520C84600260132EFE70025216854
:103B000054F8042F666832441144A2681E688A186B
:103B100048BF0332921044F8042C53F8042F59681C
:103B20000A4499683244521848BF03320135921052
:103B3000B5F5F87F43F8042CE1D10023CDE90A3331
:103B4000CDE90C331EAC0E93224652F8041BB1F59E
:103B5000FA7F93DC01339842F7D100210A4D0D4ED4
:103B60008E4600F1FF3AD4F804C054F8042BACEBB5
:103B70000208B8F10A0F0EF1010E56DD4FF07F4733
:103B80001346B94618E000BFF0C4002030BD002045
:103B9000B4890200C0CC002019FCFFFF55F82300B7
:103BA000B842C8BF074656F82300C8BF0793484528
:103BB000C4BF9B46814601339C45EFDC55F822305B
:103BC00055F82C00C01A079B9B1A584390FBF8F33A
:103BD00055F82200069355F82B301B1A06981B1A2D
:103BE00009FB03F34FEAE319B9F1000F1DDD0429C6
:103BF0001BDC56F8220056F82C30ABEB02021B1AE5
:103C00005A4356F82B3092FBF8F81B1AA3EB080323
:103C10005F43FF1109D03CAB03EB810C64235F438E
:103C2000013197FBF9F74CF8C87CD6459BDB0AA815
:103C30001DF0C4F84A1003294FEA820314DD3CA9A1
:103C400001EB820151F8CC3C51F8C82C134403EB32
:103C5000D3735B10DA1EB42A3FF610AF054AD35C6B
:103C6000059A136001230DE73CAA134453F8C83C9E
:103C7000F0E700BF8DA902002DE9F04128481BF0B4
:103C800045F9054638B9274825491DF013FB4FF083
:103C9000FF30BDE8F0810C211DF01DF9044638B15C
:103CA0000C2321481E4A21461DF004FB20B2F0E7F8
:103CB0001B481BF02BF906460028E4D00A211DF012
:103CC0000AF9044608B10A23EBE715481BF01EF970
:103CD00080460028D7D0062130461DF0FCF8044667
:103CE00008B10623DDE70E481BF010F9074600284F
:103CF000C9D0052130461DF0EEF8044608B1052371
:103D0000CFE70A481DF0D6FA094B1D60094B1E602B
:103D1000094BC3F80080094B20461F60B9E700BF7C
:103D20008DA7020045AA02005CAA02008CAA02002C
:103D30009CD4002094D4002098D4002090D400205B
:103D400008B5064B02460C2118681DF0B4F818B1EE
:103D500003481DF0AFFA012008BD00BF9CD400202D
:103D6000A7AA020008B5064B02460A2118681DF0F2
:103D7000A2F818B103481DF09DFA012008BD00BF4C
:103D800094D40020B8AA020008B5064B02460621CA
:103D900018681DF090F818B103481DF08BFA012047
:103DA00008BD00BF98D40020CCAA020008B5064B7D
:103DB0000246052118681DF07EF818B103481DF071
:103DC00079FA012008BD00BF90D40020E0AA0200CB
:103DD0001FB50093069B01930123CDF808D00393F0
:103DE000836802AA1C680023A04720B103481DF085
:103DF00061FA6FF0040004B010BD00BFF2AA020027
:103E000001481BF083B800BF0AAB020070B588B050
:103E10000024CDE905448DF80F000794FFF7F0FF6B
:103E2000054620B912481DF045FA08B070BD4FF4A0
:103E30008073ADF818300F4B20461B6805930126A0
:103E4000FFF77EFF2046FFF7B1FF05A900960DF1B1
:103E50000F0322462846FFF7BBFF014618B106486C
:103E60001DF028FAE1E73046FFF76AFFDDE700BF03
:103E700010AB02008C7302002BAB020070B588B04F
:103E80000024CDE905448DF80F000794FFF7B8FF33
:103E9000054620B912481DF00DFA08B070BD4FF468
:103EA0008073ADF818300F4B20461B680593012630
:103EB000FFF746FF0120FFF779FF05A900960DF1F6
:103EC0000F0322462846FFF783FF014618B1064834
:103ED0001DF0F0F9E1E73046FFF732FFDDE700BF04
:103EE00010AB02008C7302002BAB02002DE9F04FE7
:103EF0008BB00025CDE9075503900995FFF780FFAA
:103F0000064628B92B481DF0D5F90BB0BDE8F08F57
:103F10004FF48073ADF82030274BDFF8A0901B687A
:103F20000793C82240F2171340F25D1132201CF0B3
:103F3000FDFF2846FFF704FF0120FFF737FF4FF092
:103F4000500A002705EB09080AFB07F318F803409D
:103F5000ECB1039B01241B0A8DF81830002206AB3C
:103F6000009407A93046FFF733FF009403AB00220B
:103F700007A930460137FFF72BFFB7F5967FE3D14E
:103F80000135502DDDD10120FFF7DAFEBDE74FF0FE
:103F9000010B0DF117032246CDF800B007A93046FA
:103FA00006948DF81740FFF713FFCDF800B006AB6D
:103FB0002246DDE710AB02008C730200382200209D
:103FC0002DE9F04F8BB00024CDE90744DDF8548093
:103FD00003910746164699460994FFF711FF0546D7
:103FE00028B92E481DF066F90BB0BDE8F08F4FF4EC
:103FF0008073ADF820302A4B1B680793149B08F19F
:10400000FF31013B4B444A46314430461CF08EFFA1
:104010002046FFF795FE0120FFF7C8FE4FF0320A59
:10402000149BA34236D80120FFF78AFEDCE70AFB87
:1040300006F31BF80320D2B1039B4FF001091B0AC2
:104040008DF81830002206ABCDF8009007A928465D
:10405000FFF7BEFECDF8009003AB002207A928466B
:10406000FFF7B6FE0136B045E1D80134D8E74FF08E
:1040700001090DF11703CDF8009007A92846069213
:104080008DF817200292FFF7A3FE029ACDF8009058
:1040900006ABE3E7002607EB040BE4E710AB0200F6
:1040A0008C73020008B5FFF7E7FD01201CF024FF28
:1040B00015481DF0FFF80120FFF766FE64201CF094
:1040C0001BFF0120FFF73CFE0120FFF74BFE5020B5
:1040D0001CF012FF0020FFF745FE50201CF00CFFE3
:1040E0000120FFF73FFE4FF4F0701CF005FFFFF7D3
:1040F00087FE20B90548BDE808401DF0DBB81CF07C
:1041000044FF0348F7E700BF53AB020010AB0200C7
:1041100061A9020070B588B0002403900020FFF769
:104120000FFE0120FFF742FECDE905440794FFF79B
:1041300067FE054620B911481DF0BCF808B070BDF7
:104140004FF48073ADF818300D4B1B680593039B3B
:1041500001261B0A8DF8133022460DF1130305A921
:104160000096FFF735FE009603AB224605A92846C8
:10417000FFF72EFE3046FFF7E3FDDFE710AB02004E
:104180008C7302002DE9F04104461E46084602F1F8
:1041900014030F311CF0CAFE20465F2C0C4C4FF06C
:1041A0002A0328BF5F2003FB0044E71814F8018BA3
:1041B000002508FA05F31B0654BF06983046013562
:1041C000FFF7A8FF082DF4D1A742EFD1BDE8F08199
:1041D000B408002070B517481AF098FE064630B9AA
:1041E000154814491DF066F84FF0FF3070BD0421EA
:1041F0001CF08DFF044638B1042310480D4A2146B7
:104200001DF058F820B2F1E70A481AF07FFE054683
:104210000028E5D003211CF07AFF044608B10323EF
:10422000EBE707481DF046F8064B1E60064B20469C
:104230001D60DBE711A8020045AA02005CAA02008B
:104240008CAA0200A0D40020A4D4002038B50B4DC5
:104250004FF47A742868012204211CF068FFFA20C8
:1042600022F0DEFA2868002204211CF060FFFA2008
:1042700022F0D6FA013CEDD1012038BDA0D40020B7
:1042800010B5094C03460122206803214BB11CF0F4
:104290004EFF00214FF400501BF0AEFC20680022BE
:1042A00003211CF044FF10BDA4D4002030B50A4CFB
:1042B0000A44914200D130BD11F8013B5840030936
:1042C000E35C83EA0013DDB2C3F30313E05C80EA2E
:1042D0000510C0B2EDE700BF6CAB02000B68013304
:1042E0000B60014B1B68184754020020014B1860FB
:1042F000704700BF5402002007B50B46002102465C
:104300000191034801A900F0F9F803B05DF804FB3E
:10431000DD42000030B585B0CDE90101044600253D
:1043200001A90548039500F0E9F8DDE9023098425B
:10433000B8BF255405B030BD8F1202002DE9F84FEB
:10434000B0F8189019F00808044693460DD00129DA
:104350000CBF49F0100949F02009A0F818908BF320
:104360001188BFF36F8FBDE8F88F09F007090229A4
:1043700007D120461CF0B8FF0028F0D00128238B7D
:104380004ED16769218B002F15DA256821F00701CE
:10439000C4E9008841F0010121830026218B01F04E
:1043A000070ACA4502D0A368002B5AD10DB9002EC6
:1043B00071D0002356E001F007035A1F012A1ED8CE
:1043C00021F00701062B256889B2C4E900880AD1CB
:1043D0003DB1638B2A46126801339BB2002AFAD1A1
:1043E000638341F00201218320461CF07DFF0646D5
:1043F0000028D3D0238B43F020032383CDE7042B65
:104400000CD121F0070189B2218320461CF06CFFFA
:1044100005460028C1D041F0200121830025BCE7DA
:10442000032809D1226923F00703166843F0060325
:10443000238300252F46B1E7042806D1226923F003
:104440000703566843F00403F2E7052806D1226902
:1044500023F00703966843F00503E9E700252E469D
:10446000E8E7012341F0080121838BF31188BFF3B2
:104470006F8FFBB985BB16B11F492046B0474FF07F
:104480002003EFF3118B83F31188BFF36F8F238B1E
:1044900023F008032383238BDA0625D523F01003AA
:1044A00023830121B4F8189009F0070900297FF44B
:1044B0005EAF54E7A1680029DCD0D1F80090D1F8B4
:1044C00004B03B4652462046D847B9F1000FD1D040
:1044D0004946D9F80090F2E729463B465246204625
:1044E0002D681CF01DFFC5E713F020011EBF23F04F
:1044F000200323830221D5E74D1302002DE9F04F5D
:1045000091B08B46029092461C4600259AF8000016
:1045100008B928465FE325280AF1010707D0029B66
:10452000594698470028C0F25683013512E21822F6
:1045300000210AA81FF05CFB9AF80130252B78D0E7
:1045400000221046964694461646394617F8013B17
:104550002B2B00F09D8000F29480202B00F09B809C
:10456000232B00F09B802EB19DF8306046F00406AE
:104570008DF83060BCF1000F05D09DF8306046F03A
:1045800008068DF83060BEF1000F05D09DF8306050
:1045900046F010068DF8306028B19DF8300040F0EC
:1045A00020008DF830002AB19DF8302042F0400202
:1045B0008DF830209DF8302002F04400442803D1CB
:1045C0006FF386128DF830209DF830202A2B42F0B0
:1045D00080028DF830207BD19DF8312042F001021D
:1045E0004B1C8DF831201A782E2A9DF831200CBFF3
:1045F0000121002161F341028DF8312074D15A78F4
:104600002A2A6AD0013300210A26184610F8012B05
:10461000A2F13007092F40F28E809DF830200E91D4
:10462000C2F3400040EAD17161F341028DF83020BD
:104630005AE00AF102078DF833309DF83130D9077E
:1046400040F1498154F8049BB9F1000F07DA9DF855
:10465000302042F004028DF83020C9F100095A07D9
:1046600040F1428154F8048BB8F1000F80F241818F
:104670009DF831306FF341038DF831304FF0FF3842
:1046800037E12D2B0CD0302B7FF46DAF01225CE78E
:104690004FF0010C59E74FF0010E56E7012054E7A7
:1046A000012652E70CFB0202303A33461E4616F84A
:1046B000010BA0F13007092FF4D9994293D09DF84E
:1046C00030100D92D20F62F341018DF830108AE75D
:1046D0000B4600224FF00A0CE8E79DF8312042F02B
:1046E00004028DF8312002331F4617F8012B6C2A83
:1046F00041D025D8682A2BD06A2A46D04C2A4CD0E3
:104700001F4617F8012B9DF831308DF83320782A99
:1047100000F2D980572A4DD8412A03D0453A022ABF
:1047200000F2D1809DF83230042262F302038DF84A
:10473000323001239EE006FB01213039034664E755
:10474000742A26D07A2ADBD19DF8313006220DE07A
:104750005A78682A9DF8312006D1012161F3C602FA
:104760008DF831209F1CCCE71346022262F3C6036A
:104770008DF83130C5E75A786C2A9DF8312001D187
:104780000421EBE713460322F0E79DF831300522C0
:10479000ECE79DF831300722E8E7BDF8303023F42C
:1047A000F04323F0020343F4804343F00203ADF8E7
:1047B0003030A6E7A2F15801202900F2848001A040
:1047C00050F821F089480000C7480000C7480000A1
:1047D000C7480000C7480000C7480000C74800009D
:1047E000C7480000C748000025470000C748000030
:1047F000894800004948000025470000254700007F
:1048000025470000C748000049480000C74800008D
:10481000C7480000C7480000C74800009148000092
:1048200089480000AD480000C7480000C7480000A4
:10483000AD480000C748000089480000C748000094
:10484000C7480000894800009DF83210012003F09D
:10485000780360F30201402B8DF8321002BF9DF8FF
:10486000301041F001018DF83010632A31D1003B46
:1048700018BF01239DF83020C2F340010B4363F3BE
:1048800041028DF83020D8E69DF832100220DEE794
:104890009DF8322003F07803A3F14000032161F377
:1048A000020243428DF832204341E3E79DF8322073
:1048B000032113F0780F61F302028DF8322014BF48
:1048C00001230023D6E79DF8303043F001038DF833
:1048D00030300023CEE79DF93020002AB4BFDDF848
:1048E00034904FF0FF39BAE69B077FF5C7AEDDF88D
:1048F00038809DF831100023CDE90D339DF832301A
:1049000003F00703012BC1F3C30138D1CB1E042BE5
:1049100022D8DFE803F003090921210054F8043B01
:10492000DA17CDE90A3206E0073424F00704F4E888
:104930000223CDE90A239DF8303013F0030656D048
:1049400002983B46524659461DF0C1F80028C0F275
:1049500042810544BA46D9E554F8043B01294FEA9F
:10496000E372CDE90A3205D19DF828300A9300237D
:104970000B93E0E70229DED1BDF92830D0E7022B06
:1049800023D1CB1E042B13D8DFE803F0030A0A124D
:10499000120022680A920023201D0B930446CAE7E6
:1049A000E01D20F00700F0E80223CDE90A23F5E737
:1049B00054F8043B0A9301294FF000030B93D3D022
:1049C0000229B8D1BDF82830D0E7042B09D1E31D66
:1049D00023F0070303F10804D3E90023CDE90A23F8
:1049E000A9E7032B04BF54F8043B0A93A3E79DF8FF
:1049F00033007828AED8622822D825283FF48FAD1E
:104A00005828A7D10DF126030093DDE90A0104AB74
:104A10000CAA1DF016F88246B8F1000F0DF1260021
:104A20000CDB9DF83020A0EB0A036FF3861298454B
:104A30008DF8302002D9A8EB03030D9380463DE0AA
:104A40006338152886D801A252F820F0CD4A00001C
:104A5000314B000055490000554900005549000000
:104A600055490000314B00005549000055490000F0
:104A700055490000554900008B4B0000594B000080
:104A80005D4B00005549000055490000A54A000053
:104A900055490000594B0000554900005549000098
:104AA000594B0000B8F1000FDDF828A00ADB4146A1
:104AB00050461FF03BF80AEB00080026BAF1000F41
:104AC0000CD147E750461FF02AF8F4E70A9B8DF80F
:104AD000103000260DF1100A0DF11108A8EB0A03A1
:104AE00006B101339DF83220D00668D50233520654
:104AF0000D9948BF0E9A0B4448BF9B18B9F1000F9F
:104B000076DD9DF83020A9EB0309C2F380030393FF
:104B100053076DD4500661D546B1029B59463046C5
:104B20009847002857DB039B01351E46302356E08B
:104B30001E070FD413F0100618BF2026DDE90A2344
:104B4000002BBFF65FAF524263EB4303CDE90A236C
:104B50002D2657E72B26F1E7002653E70A9840B3A6
:104B60000DF1260300930CAA04AB00211CF069FF91
:104B7000BDF8323003F0EF0343F4F04343F0100389
:104B80008246ADF83230002646E70A9B07293FF6F9
:104B9000E1AEDFE801F00C04060C08080C0C1D70F7
:104BA000D8E61D80D6E6EA17C3E90052D2E61D60BA
:104BB000D0E6DFF8C8A006460AF105088EE711071F
:104BC00048BF013393E7184603935946029B984721
:104BD0000028039B04DA11B0BDE8F08F20234D4478
:104BE0004A46002AA5EB090109F1FF39EBDC0D4625
:104BF00036B1029B5946304698470028EBDB013519
:104C00009DF83230D90601D41A0706D5029B5946C1
:104C1000302098470028DEDB01359DF83230DB0676
:104C200007D59DF83300029B594698470028D2DBF0
:104C300001350D9E2E44731B002B16DC0298434653
:104C4000524659461CF043FF0028C4DB0544A944E2
:104C5000A9EB0503002B7FF77DAE029B5946202070
:104C600098470028B7DB0135F2E7029B5946302010
:104C700098470028AFDB0135DDE700BF7CAB0200C1
:104C800030B51049104889B0002221F0BBFE0F4D0D
:104C90000F4900220023CDE9062300240E23CDE98D
:104CA0000334CDE901440B4B00944FF44072284685
:104CB0001BF05AF80849284621F0B6FD204609B0F5
:104CC00030BD00BFDD4C000060A4002098A400208F
:104CD00040FE00203550000082AB020001481AF06F
:104CE000ABBF00BFA09F002008B500F067FA0948DD
:104CF0001CF004FF042328220749084821F095FBF3
:104D0000074B084A1A604FF40040BDE8084000F025
:104D10009DBC00BFB4D40020F8290120BCD40020E1
:104D2000580200203B1B0200F8B50F4BBFF35B8F0E
:104D3000002553E8007F43E80052002AF9D1BFF371
:104D40005B8F0A4C0A4E361B3611B54200DBF8BDAC
:104D500063685B792BB12368DB6813B13946204661
:104D6000984701351034F0E7ACD4002050710200B0
:104D700070710200064BBFF35B8F53E8002F0132C6
:104D800043E800210029F8D1BFF35B8F704700BFD3
:104D9000ACD40020044A054B9B1AB1EBD30F34BFAF
:104DA00052F8310000207047E86F02005071020095
:104DB000094A4368801A10B50011084C1960013087
:104DC000012218715A71237813B905481AF034FF7B
:104DD0000123237010BD00BF5071020026ED00209A
:104DE000A09F002070B5114BBFF35B8F53E8005FAD
:104DF0006A1C43E800210029F8D1BFF35B8F2DB96D
:104E00000B4C0C4E361B3611B54200DB70BD237BBC
:104E100043B123685B6903B198470422002120460F
:104E2000FFF7C6FF01351034EEE700BFB0D4002015
:104E30005071020070710200164B984237B504465B
:104E400002D3154B984220D314480022002301A915
:104E50001AF024FA0546D8B90122019BBFF35B8FF3
:104E600053E8001F43E800200028F9D1BFF35B8F0F
:104E7000019821461F2204301EF03FFE019C7E2334
:104E800084F8233084F824500434204603B030BD25
:104E9000034CFAE70C6D0200D8D00200BCD400200D
:104EA0008AAB020048B1054B984205D3A033984223
:104EB0002CBF00200120704700207047F8290120F6
:104EC0002DE9F04F4D4B1B7885B0044603B960B314
:104ED0004FF02003EFF3118683F31188BFF36F8F38
:104EE00047481CF01BFE054686F31188BFF36F8F01
:104EF00078B1BFF35B8F434B53E8002F013A43E88F
:104F000000210029F8D1BFF35B8F94B128461CF033
:104F10001EFF24B93C4B1B680BB1FFF705FF384857
:104F20001CF0FAFD041E18BF0124204605B0BDE8A0
:104F3000F08F364B1B78E3B92B7ADB0719D41CF0C2
:104F400019FF074628461CF0E0FE014638461CF0D3
:104F5000F8FDDFF8BC802F4BDFF8BCB0A3EB0803F3
:104F6000DB0803932D4BA3EB080306464FEAD30A55
:104F700036B92B4E2B4FBF1B3F114FF000083AE0C4
:104F8000B6FA86F1C1F11F09494628461CF0C0FE59
:104F9000254B9842014602D3244A90421AD3084630
:104FA000FFF780FF0246A8B9214B994212D06B89C6
:104FB0000399C3F389138B4238BF58F833204FEA63
:104FC0008A1343F00103ADF8003049463B4658468A
:104FD0001CF011FE012303FA09F126EA0106C7E7D6
:104FE00073685B7923B1336829461B68304698475C
:104FF00008F101081036B845F2DB87E726ED0020FE
:10500000B4D40020A8D40020ACD4002027ED002088
:10501000E86F020050710200A4AB020008710200A8
:1050200050710200707102000C6D0200D8D00200B5
:105030008AAB020010B5FFF7D5FE1AF0F7FD0C4B56
:10504000186030B10B4B1B68092B02DD0A481AF0BF
:10505000F3FD094C0020FFF733FF0028FAD14FF091
:10506000FF324FF0FF3320461AF00CFEF2E700BF8C
:10507000D8D40020A8D40020A09F0020294B73B5CD
:105080001B68418104469847274DE060BFF35B8F62
:1050900055E8003F013345E80032002AF8D1BFF35C
:1050A0005B8F4FF02003EFF3118683F31188BFF37A
:1050B0006F8F1E4821461CF025FD86F31188BFF333
:1050C0006F8F1B4B1B7883B14FF02003EFF31184DC
:1050D00083F31188BFF36F8F0020FFF7F1FE84F395
:1050E0001188BFF36F8F02B070BD124A2B6812682F
:1050F000002AF8D0012B0AD100220023CDE9002399
:105100000D484FF4004200231BF0BEF8EBE70A2BDA
:10511000E9D1094821F082FC084802B0BDE870409E
:105120001AF08ABD58020020A8D40020B4D4002070
:1051300027ED0020D8D4002060A40020A09F0020EC
:10514000F8B50E4F3D7875B90D4C0E4EFFF74AFE7F
:10515000361B3611B54207DB0020FFF7B1FE0028F1
:10516000FAD101233B70F8BD63685B791BB12368FA
:1051700020461B69984701351034EBE727ED0020E6
:10518000507102007071020007B504380190BFF33E
:105190005B8F50E8003F5A1E40E800210029F8D1FB
:1051A000BFF35B8F012B03D1034801A91AF0A6F8C6
:1051B00003B05DF804FB00BFBCD4002020230249EB
:1051C00002481A4621F031B9982A0120DCD4002087
:1051D00037B50023094D01930120FFF771FE044606
:1051E000FFF7C8FD0022002301A928461AF056F84F
:1051F00008B1002CF0D1019803B030BDDCD4002000
:1052000007B50023019307480022002301A91AF0E3
:1052100045F810B1FFF7DCFF0190019803B05DF88D
:1052200004FB00BFDCD40020F0B5037A85B0DC07B6
:1052300001901ED4457A2D091BD0002426460198E2
:1052400031461CF065FD0746FFF72CFE70B134B9FE
:10525000019B294618691CF074FC044648B124FAE5
:1052600006F3D90702D53846FFF78EFF0136AE4266
:10527000E5D3019B1A7A920704D55B69084C039326
:10528000039B2BB9064801A91AF038F805B0F0BD08
:105290001D6803A920461AF031F80395F0E700BF16
:1052A000DCD400200EB403B503AB014653F8042B45
:1052B00004480193FFF722F902B05DF804EB03B054
:1052C000704700BF2D2102002DE9F0471D46089BC5
:1052D0001746DA0604460E4605D499064CBF2A49FD
:1052E0002A49FFF7DFFFDFF8A8904FF00008A84534
:1052F0002ADBDFF8A080DFF8A090DFF894A000257B
:10530000BD422FD2725D49462046FFF7CBFF0135E3
:10531000102D20D12149DFF87880DFF884902046D5
:10532000FFF7C0FF0025AF4228D9725DA2F120032C
:105330005F2B28BF2E2249462046FFF7B3FF0135D9
:10534000102D14D1BDE8F08749462046FFF7AAFF8B
:1053500008F10108CBE76A07D2D151462046FFF792
:10536000A1FFCDE741462046FFF79CFFCFE76B0743
:10537000D9D141462046FFF795FFD4E74146204664
:10538000FFF790FFDBE700BF948B0200808E0200E6
:10539000DDA60200EDAB0200E7AB0200F1AB0200BC
:1053A000F3AB02002DE9F04F85B011F002049046F6
:1053B0009DF8387006461A4601F0010901F008050B
:1053C00006D011F0440F36D13249FFF76BFF044687
:1053D000B9F1000F0AD0304B304953F82720304B39
:1053E0003046002A08BF1A46FFF75CFF3DB12D4B3F
:1053F0002D4953F827203046FFF754FF0546B8F1F2
:10540000000F44D0012303FA07F7284B17F0100FC1
:10541000274F18BF1F46BDF840109DF83C00FFF70E
:10542000B9FC394602463046FFF73CFF2844204489
:1054300005B0BDE8F08F1F4B196831B31E4B4FF418
:10544000616C1B68B2FBF3F34FF47A7BB3FBF1F4AE
:10545000B4FBFCF20CFB124C01FB14340BFB04F408
:105460004FF03C0EB4FBF1FA01FB1A440BFB04F4C1
:10547000BCFBFEF3B4FBF1F1CDE901A10EFB13C1BE
:1054800000910E49FFF70EFFA1E708469FE7084F7E
:10549000C1E700BF04AC02009073020061BC0200CF
:1054A000F6AB0200A473020029AC020000AC0200BB
:1054B000FBAB0200F8D40020FCD400200DAC0200AD
:1054C00038B50C46E107054603D5084A0849FFF7F9
:1054D000E9FEE20608D4A30628464CBF0549064962
:1054E000BDE83840FFF7DEBE38BD00BFF6AB0200B6
:1054F00061BC0200948B0200808E02002DE9F0470F
:105500008B7A13F007088AB005460E46174622D05C
:105510000A7A4989C3F3C203C1F38911D243CDE9A1
:1055200000830291F36802F001023946FFF73AFF67
:105530008146347AE44314F001040ED02946304603
:105540001CF08AFCB8F1000F2BD0424639462846A1
:10555000FFF7B6FF25E0C146EBE7B8F1000F26D113
:105560002746EB68069306AA3B46A96830461CF01E
:105570005FFC069A6B681A603AB1AB68134413F883
:10558000014CA4F10A035C425C4128461CF0C1FDB9
:10559000069B1F44002BE4D11CB114492846FFF799
:1055A00081FE28460AB0BDE8F0471CF0B2BD304687
:1055B0001CF0E0FB0E4902462846FFF773FE4FF051
:1055C000100A05AA234606A93046CDF814A01CF0FF
:1055D0002FFC059A002AB8D04B46009706A928460A
:1055E000FFF772FE059B1C44EBE700BF2FAC0200E7
:1055F00061BC020073B542F20F738B4228BF0B46A9
:1056000005680F4A0446052168461BF060FE636882
:105610000C495B6806460B2228461CF010FC6368A8
:105620003246694628465B681CF009FC63680649F7
:105630005B681B2228461CF002FC02B070BD00BF54
:1056400054B702006DAC020051AC0200084A10B51C
:105650000123084C13600021A04204D801B113605B
:10566000054B186010BD40085B000121F4E700BF46
:10567000FCD4002040420F00F8D40020F8B5074FBA
:105680000D4604464618B44201D12846F8BD386894
:1056900014F8011B83685B689847F4E714D5002071
:1056A00001481CF036BD00BFD07302000148FFF76F
:1056B000A1BF00BFD073020008B5034819F026FC53
:1056C000024B186008BD00BF79AC020014D5002061
:1056D00010B508460C461CF00BFB054821460F226E
:1056E000FFF70CFF2046BDE810401CF030BB00BFA8
:1056F000D0730200014B01221A70704739ED00206F
:10570000024B034801221A701CF003BD3AED002041
:10571000F87302000148FFF76DBF00BFF873020085
:1057200010B508460C461CF0E3FA054821460F2246
:10573000FFF7E4FE2046BDE810401CF008BB00BFA8
:10574000F8730200054B1B781BB141F2883021F041
:1057500067B8A42000211AF04FBA00BF3AED00202C
:105760002DE9F047DFF88880DFF888A007460E466D
:10577000042498F8003033B94FF0FF324FF0FF3374
:10578000504619F0E7FD32463946002001F0F4F9A1
:1057900098F80030814613B9504619F04DFE164D69
:1057A000B9F1000F18D001232B7098F8003033B9ED
:1057B0003046BDE8F0875CB92C704FF0FF34002014
:1057C00001F026FA0028F3D02B78002BF3D1EFE775
:1057D000013CFFF7B7FFF2E72B7813B1013C04D18E
:1057E0002C702B78002BC4D1E2E7FFF7ABFFF8E772
:1057F0003AED0020609F002039ED0020024B01228D
:105800001A700020704700BF3DED00201FB5012435
:105810000294044C0194BDF8184000941FF00BFD55
:1058200004B010BD3DED0020074B084A0848D21ACD
:10583000D208084B9201012914BF0146194642F0D3
:10584000030205481CF0AAB9E86F0200F0700200DC
:10585000A9AC0200A1AC0200B2AC020010B50D4C24
:1058600086B00623607018220021684623701EF05F
:10587000BFF9094B6946CDE9013400200223ADF898
:105880000C3007F09BFF10F1390F08BF002006B065
:1058900010BD00BF3BED00201C7402002DE9F74352
:1058A0000E4680460821C06ADFF84C901CF000FDCF
:1058B0003468241A0746346004EA0905AC4203D868
:1058C000002003B0BDE8F08308236A462146404625
:1058D0001CF04AFC0028F4D168461CF0C9FC40B911
:1058E000BDF80230BDF80420346005EA0905134410
:1058F0001D44E41BE2E700BF0000FFFF2DE9F04F6D
:10590000044693B0C06A08211CF0D2FC63681B0CEB
:105910001B04804601A9E08901931CF0BEFC019B99
:10592000A1891944A1EB0801082304AA2046029189
:105930001CF01AFC0028C0F28380E36A04AA1979DB
:10594000002312F8010B81426CD10133082BF8D1EE
:10595000019920461CF065FC72E0029BBDF8122004
:105960001B0C1B0413440293DFF8DCA0DDF8089045
:1059700006AA02A920461CF0A5FC002860D106A8B2
:105980001CF076FC80BB6368039308AA03A9204639
:10599000039D1CF097FC002852D1BDF82020BDF8D3
:1059A00018309A4223D06268039B9A42EDD14D454C
:1059B0001AD1BDF81C30BBB1BDF81A3009EA0A068D
:1059C0001E4406A8A368ADF81A301CF05DFCE36A1B
:1059D000BDF81C701D686D4205F020056FB906A961
:1059E00020461CF01DFD58BBC145BFD1B0E708A83B
:1059F0001CF03EFC0028D6D1D9E7BD42AB4628BFFB
:105A0000BB465B460AAA314620461CF0ADFBB8B93E
:105A10005A460AA920461CF0F0FC88B9A7EB0B07F0
:105A20005E44DBE70298A0EB080804A81CF020FC09
:105A3000002892D002A92046FFF730FF002893D01B
:105A400013B0BDE8F08F00BF0000FFFF2DE9F04765
:105A5000044686B00D4600F11406304620F008FDDD
:105A6000284619F053FAA06278B9A24BA249A3487C
:105A7000C91AC908890141F001011CF082F86FF0D0
:105A80000505284606B0BDE8F08783681B6998477E
:105A9000E06260B99849974B9948C91AC9088901C9
:105AA00041F001011CF06DF86FF01505E9E7A06AFF
:105AB00083681B6998470368013B1F2B08D98E49EF
:105AC0008C4B9048C91AC908890141F00101E9E7E6
:105AD000A06A216803AA20F07BFA40B18649854B71
